{
	"contracts/firebase2.sol": {
		"FirebaseSystem": {
			"abi": [
				{
					"constant": true,
					"inputs": [],
					"name": "counter",
					"outputs": [
						{
							"internalType": "uint256",
							"name": "",
							"type": "uint256"
						}
					],
					"payable": false,
					"stateMutability": "view",
					"type": "function"
				},
				{
					"constant": false,
					"inputs": [
						{
							"internalType": "uint256",
							"name": "_promptStatus",
							"type": "uint256"
						},
						{
							"internalType": "uint256",
							"name": "_date",
							"type": "uint256"
						},
						{
							"internalType": "address",
							"name": "_promptaddress",
							"type": "address"
						}
					],
					"name": "createDate",
					"outputs": [],
					"payable": false,
					"stateMutability": "nonpayable",
					"type": "function"
				},
				{
					"constant": true,
					"inputs": [
						{
							"internalType": "uint256",
							"name": "_date",
							"type": "uint256"
						}
					],
					"name": "getAddr",
					"outputs": [
						{
							"components": [
								{
									"internalType": "address",
									"name": "addr",
									"type": "address"
								}
							],
							"internalType": "struct FirebaseSystem.addresses",
							"name": "",
							"type": "tuple"
						}
					],
					"payable": false,
					"stateMutability": "view",
					"type": "function"
				}
			],
			"devdoc": {
				"methods": {}
			},
			"evm": {
				"assembly": "    /* \"contracts/firebase2.sol\":71:1593  contract FirebaseSystem{\r... */\n  mstore(0x40, 0x80)\n  callvalue\n    /* \"--CODEGEN--\":8:17   */\n  dup1\n    /* \"--CODEGEN--\":5:7   */\n  iszero\n  tag_1\n  jumpi\n    /* \"--CODEGEN--\":30:31   */\n  0x00\n    /* \"--CODEGEN--\":27:28   */\n  dup1\n    /* \"--CODEGEN--\":20:32   */\n  revert\n    /* \"--CODEGEN--\":5:7   */\ntag_1:\n    /* \"contracts/firebase2.sol\":71:1593  contract FirebaseSystem{\r... */\n  pop\n  dataSize(sub_0)\n  dup1\n  dataOffset(sub_0)\n  0x00\n  codecopy\n  0x00\n  return\nstop\n\nsub_0: assembly {\n        /* \"contracts/firebase2.sol\":71:1593  contract FirebaseSystem{\r... */\n      mstore(0x40, 0x80)\n      callvalue\n        /* \"--CODEGEN--\":8:17   */\n      dup1\n        /* \"--CODEGEN--\":5:7   */\n      iszero\n      tag_1\n      jumpi\n        /* \"--CODEGEN--\":30:31   */\n      0x00\n        /* \"--CODEGEN--\":27:28   */\n      dup1\n        /* \"--CODEGEN--\":20:32   */\n      revert\n        /* \"--CODEGEN--\":5:7   */\n    tag_1:\n        /* \"contracts/firebase2.sol\":71:1593  contract FirebaseSystem{\r... */\n      pop\n      jumpi(tag_2, lt(calldatasize, 0x04))\n      shr(0xe0, calldataload(0x00))\n      dup1\n      0x61bc221a\n      eq\n      tag_3\n      jumpi\n      dup1\n      0x70335c27\n      eq\n      tag_4\n      jumpi\n      dup1\n      0xd81f84b7\n      eq\n      tag_5\n      jumpi\n    tag_2:\n      0x00\n      dup1\n      revert\n        /* \"contracts/firebase2.sol\":288:307  uint public counter */\n    tag_3:\n      tag_6\n      tag_7\n      jump\t// in\n    tag_6:\n      mload(0x40)\n      tag_8\n      swap2\n      swap1\n      jump(tag_9)\n    tag_8:\n      mload(0x40)\n      dup1\n      swap2\n      sub\n      swap1\n      return\n        /* \"contracts/firebase2.sol\":493:1137  function createDate(uint _promptStatus,uint _date, address _promptaddress) public{\r... */\n    tag_4:\n      tag_10\n      0x04\n      dup1\n      calldatasize\n      sub\n      tag_11\n      swap2\n      swap1\n      dup2\n      add\n      swap1\n      jump(tag_12)\n    tag_11:\n      tag_13\n      jump\t// in\n    tag_10:\n      stop\n        /* \"contracts/firebase2.sol\":1143:1424  function getAddr(uint _date) public view returns(addresses memory){\r... */\n    tag_5:\n      tag_14\n      0x04\n      dup1\n      calldatasize\n      sub\n      tag_15\n      swap2\n      swap1\n      dup2\n      add\n      swap1\n      jump(tag_16)\n    tag_15:\n      tag_17\n      jump\t// in\n    tag_14:\n      mload(0x40)\n      tag_18\n      swap2\n      swap1\n      jump(tag_19)\n    tag_18:\n      mload(0x40)\n      dup1\n      swap2\n      sub\n      swap1\n      return\n        /* \"contracts/firebase2.sol\":288:307  uint public counter */\n    tag_7:\n      sload(0x01)\n      dup2\n      jump\t// out\n        /* \"contracts/firebase2.sol\":493:1137  function createDate(uint _promptStatus,uint _date, address _promptaddress) public{\r... */\n    tag_13:\n        /* \"contracts/firebase2.sol\":585:592  counter */\n      0x01\n      0x00\n        /* \"contracts/firebase2.sol\":585:594  counter++ */\n      dup2\n      sload\n      dup1\n      swap3\n      swap2\n      swap1\n      0x01\n      add\n      swap2\n      swap1\n      pop\n      sstore\n      pop\n        /* \"contracts/firebase2.sol\":626:627  0 */\n      0x00\n        /* \"contracts/firebase2.sol\":609:622  _promptStatus */\n      dup4\n        /* \"contracts/firebase2.sol\":609:627  _promptStatus == 0 */\n      eq\n        /* \"contracts/firebase2.sol\":605:1128  if (_promptStatus == 0){\r... */\n      iszero\n      tag_21\n      jumpi\n        /* \"contracts/firebase2.sol\":643:655  dateOfPolicy */\n      0x02\n        /* \"contracts/firebase2.sol\":643:670  dateOfPolicy[_promptStatus] */\n      0x00\n        /* \"contracts/firebase2.sol\":656:669  _promptStatus */\n      dup5\n        /* \"contracts/firebase2.sol\":643:670  dateOfPolicy[_promptStatus] */\n      dup2\n      mstore\n      0x20\n      add\n      swap1\n      dup2\n      mstore\n      0x20\n      add\n      0x00\n      keccak256\n        /* \"contracts/firebase2.sol\":643:677  dateOfPolicy[_promptStatus][_date] */\n      0x00\n        /* \"contracts/firebase2.sol\":671:676  _date */\n      dup4\n        /* \"contracts/firebase2.sol\":643:677  dateOfPolicy[_promptStatus][_date] */\n      dup2\n      mstore\n      0x20\n      add\n      swap1\n      dup2\n      mstore\n      0x20\n      add\n      0x00\n      keccak256\n        /* \"contracts/firebase2.sol\":683:697  _promptaddress */\n      dup2\n        /* \"contracts/firebase2.sol\":643:698  dateOfPolicy[_promptStatus][_date].push(_promptaddress) */\n      swap1\n      dup1\n        /* \"--CODEGEN--\":39:40   */\n      0x01\n        /* \"--CODEGEN--\":33:36   */\n      dup2\n        /* \"--CODEGEN--\":27:37   */\n      sload\n        /* \"--CODEGEN--\":23:41   */\n      add\n        /* \"--CODEGEN--\":57:67   */\n      dup1\n        /* \"--CODEGEN--\":52:55   */\n      dup3\n        /* \"--CODEGEN--\":45:68   */\n      sstore\n        /* \"--CODEGEN--\":79:89   */\n      dup1\n        /* \"--CODEGEN--\":72:89   */\n      swap2\n      pop\n        /* \"--CODEGEN--\":0:93   */\n      pop\n        /* \"contracts/firebase2.sol\":643:698  dateOfPolicy[_promptStatus][_date].push(_promptaddress) */\n      swap1\n      0x01\n      dup3\n      sub\n      swap1\n      0x00\n      mstore\n      keccak256(0x00, 0x20)\n      add\n      0x00\n      swap1\n      swap2\n      swap3\n      swap1\n      swap2\n      swap1\n      swap2\n      0x0100\n      exp\n      dup2\n      sload\n      dup2\n      0xffffffffffffffffffffffffffffffffffffffff\n      mul\n      not\n      and\n      swap1\n      dup4\n      0xffffffffffffffffffffffffffffffffffffffff\n      and\n      mul\n      or\n      swap1\n      sstore\n      pop\n      pop\n        /* \"contracts/firebase2.sol\":733:758  addresses(_promptaddress) */\n      mload(0x40)\n      dup1\n      0x20\n      add\n      0x40\n      mstore\n      dup1\n        /* \"contracts/firebase2.sol\":743:757  _promptaddress */\n      dup3\n        /* \"contracts/firebase2.sol\":733:758  addresses(_promptaddress) */\n      0xffffffffffffffffffffffffffffffffffffffff\n      and\n      dup2\n      mstore\n      pop\n        /* \"contracts/firebase2.sol\":712:723  addressList */\n      0x00\n        /* \"contracts/firebase2.sol\":712:730  addressList[_date] */\n      dup1\n        /* \"contracts/firebase2.sol\":724:729  _date */\n      dup5\n        /* \"contracts/firebase2.sol\":712:730  addressList[_date] */\n      dup2\n      mstore\n      0x20\n      add\n      swap1\n      dup2\n      mstore\n      0x20\n      add\n      0x00\n      keccak256\n        /* \"contracts/firebase2.sol\":712:758  addressList[_date] = addresses(_promptaddress) */\n      0x00\n      dup3\n      add\n      mload\n      dup2\n      0x00\n      add\n      exp(0x0100, 0x00)\n      dup2\n      sload\n      dup2\n      0xffffffffffffffffffffffffffffffffffffffff\n      mul\n      not\n      and\n      swap1\n      dup4\n      0xffffffffffffffffffffffffffffffffffffffff\n      and\n      mul\n      or\n      swap1\n      sstore\n      pop\n      swap1\n      pop\n      pop\n        /* \"contracts/firebase2.sol\":605:1128  if (_promptStatus == 0){\r... */\n      jump(tag_23)\n    tag_21:\n        /* \"contracts/firebase2.sol\":805:806  1 */\n      0x01\n        /* \"contracts/firebase2.sol\":788:801  _promptStatus */\n      dup4\n        /* \"contracts/firebase2.sol\":788:806  _promptStatus == 1 */\n      eq\n        /* \"contracts/firebase2.sol\":785:1128  if(_promptStatus == 1){\r... */\n      iszero\n      tag_24\n      jumpi\n        /* \"contracts/firebase2.sol\":822:834  dateOfPolicy */\n      0x02\n        /* \"contracts/firebase2.sol\":822:849  dateOfPolicy[_promptStatus] */\n      0x00\n        /* \"contracts/firebase2.sol\":835:848  _promptStatus */\n      dup5\n        /* \"contracts/firebase2.sol\":822:849  dateOfPolicy[_promptStatus] */\n      dup2\n      mstore\n      0x20\n      add\n      swap1\n      dup2\n      mstore\n      0x20\n      add\n      0x00\n      keccak256\n        /* \"contracts/firebase2.sol\":822:856  dateOfPolicy[_promptStatus][_date] */\n      0x00\n        /* \"contracts/firebase2.sol\":850:855  _date */\n      dup4\n        /* \"contracts/firebase2.sol\":822:856  dateOfPolicy[_promptStatus][_date] */\n      dup2\n      mstore\n      0x20\n      add\n      swap1\n      dup2\n      mstore\n      0x20\n      add\n      0x00\n      keccak256\n        /* \"contracts/firebase2.sol\":862:876  _promptaddress */\n      dup2\n        /* \"contracts/firebase2.sol\":822:877  dateOfPolicy[_promptStatus][_date].push(_promptaddress) */\n      swap1\n      dup1\n        /* \"--CODEGEN--\":39:40   */\n      0x01\n        /* \"--CODEGEN--\":33:36   */\n      dup2\n        /* \"--CODEGEN--\":27:37   */\n      sload\n        /* \"--CODEGEN--\":23:41   */\n      add\n        /* \"--CODEGEN--\":57:67   */\n      dup1\n        /* \"--CODEGEN--\":52:55   */\n      dup3\n        /* \"--CODEGEN--\":45:68   */\n      sstore\n        /* \"--CODEGEN--\":79:89   */\n      dup1\n        /* \"--CODEGEN--\":72:89   */\n      swap2\n      pop\n        /* \"--CODEGEN--\":0:93   */\n      pop\n        /* \"contracts/firebase2.sol\":822:877  dateOfPolicy[_promptStatus][_date].push(_promptaddress) */\n      swap1\n      0x01\n      dup3\n      sub\n      swap1\n      0x00\n      mstore\n      keccak256(0x00, 0x20)\n      add\n      0x00\n      swap1\n      swap2\n      swap3\n      swap1\n      swap2\n      swap1\n      swap2\n      0x0100\n      exp\n      dup2\n      sload\n      dup2\n      0xffffffffffffffffffffffffffffffffffffffff\n      mul\n      not\n      and\n      swap1\n      dup4\n      0xffffffffffffffffffffffffffffffffffffffff\n      and\n      mul\n      or\n      swap1\n      sstore\n      pop\n      pop\n        /* \"contracts/firebase2.sol\":912:937  addresses(_promptaddress) */\n      mload(0x40)\n      dup1\n      0x20\n      add\n      0x40\n      mstore\n      dup1\n        /* \"contracts/firebase2.sol\":922:936  _promptaddress */\n      dup3\n        /* \"contracts/firebase2.sol\":912:937  addresses(_promptaddress) */\n      0xffffffffffffffffffffffffffffffffffffffff\n      and\n      dup2\n      mstore\n      pop\n        /* \"contracts/firebase2.sol\":891:902  addressList */\n      0x00\n        /* \"contracts/firebase2.sol\":891:909  addressList[_date] */\n      dup1\n        /* \"contracts/firebase2.sol\":903:908  _date */\n      dup5\n        /* \"contracts/firebase2.sol\":891:909  addressList[_date] */\n      dup2\n      mstore\n      0x20\n      add\n      swap1\n      dup2\n      mstore\n      0x20\n      add\n      0x00\n      keccak256\n        /* \"contracts/firebase2.sol\":891:937  addressList[_date] = addresses(_promptaddress) */\n      0x00\n      dup3\n      add\n      mload\n      dup2\n      0x00\n      add\n      exp(0x0100, 0x00)\n      dup2\n      sload\n      dup2\n      0xffffffffffffffffffffffffffffffffffffffff\n      mul\n      not\n      and\n      swap1\n      dup4\n      0xffffffffffffffffffffffffffffffffffffffff\n      and\n      mul\n      or\n      swap1\n      sstore\n      pop\n      swap1\n      pop\n      pop\n        /* \"contracts/firebase2.sol\":785:1128  if(_promptStatus == 1){\r... */\n      jump(tag_26)\n    tag_24:\n        /* \"contracts/firebase2.sol\":984:985  2 */\n      0x02\n        /* \"contracts/firebase2.sol\":967:980  _promptStatus */\n      dup4\n        /* \"contracts/firebase2.sol\":967:985  _promptStatus == 2 */\n      eq\n        /* \"contracts/firebase2.sol\":964:1128  if(_promptStatus == 2){\r... */\n      iszero\n      tag_27\n      jumpi\n        /* \"contracts/firebase2.sol\":1001:1013  dateOfPolicy */\n      0x02\n        /* \"contracts/firebase2.sol\":1001:1028  dateOfPolicy[_promptStatus] */\n      0x00\n        /* \"contracts/firebase2.sol\":1014:1027  _promptStatus */\n      dup5\n        /* \"contracts/firebase2.sol\":1001:1028  dateOfPolicy[_promptStatus] */\n      dup2\n      mstore\n      0x20\n      add\n      swap1\n      dup2\n      mstore\n      0x20\n      add\n      0x00\n      keccak256\n        /* \"contracts/firebase2.sol\":1001:1035  dateOfPolicy[_promptStatus][_date] */\n      0x00\n        /* \"contracts/firebase2.sol\":1029:1034  _date */\n      dup4\n        /* \"contracts/firebase2.sol\":1001:1035  dateOfPolicy[_promptStatus][_date] */\n      dup2\n      mstore\n      0x20\n      add\n      swap1\n      dup2\n      mstore\n      0x20\n      add\n      0x00\n      keccak256\n        /* \"contracts/firebase2.sol\":1041:1055  _promptaddress */\n      dup2\n        /* \"contracts/firebase2.sol\":1001:1056  dateOfPolicy[_promptStatus][_date].push(_promptaddress) */\n      swap1\n      dup1\n        /* \"--CODEGEN--\":39:40   */\n      0x01\n        /* \"--CODEGEN--\":33:36   */\n      dup2\n        /* \"--CODEGEN--\":27:37   */\n      sload\n        /* \"--CODEGEN--\":23:41   */\n      add\n        /* \"--CODEGEN--\":57:67   */\n      dup1\n        /* \"--CODEGEN--\":52:55   */\n      dup3\n        /* \"--CODEGEN--\":45:68   */\n      sstore\n        /* \"--CODEGEN--\":79:89   */\n      dup1\n        /* \"--CODEGEN--\":72:89   */\n      swap2\n      pop\n        /* \"--CODEGEN--\":0:93   */\n      pop\n        /* \"contracts/firebase2.sol\":1001:1056  dateOfPolicy[_promptStatus][_date].push(_promptaddress) */\n      swap1\n      0x01\n      dup3\n      sub\n      swap1\n      0x00\n      mstore\n      keccak256(0x00, 0x20)\n      add\n      0x00\n      swap1\n      swap2\n      swap3\n      swap1\n      swap2\n      swap1\n      swap2\n      0x0100\n      exp\n      dup2\n      sload\n      dup2\n      0xffffffffffffffffffffffffffffffffffffffff\n      mul\n      not\n      and\n      swap1\n      dup4\n      0xffffffffffffffffffffffffffffffffffffffff\n      and\n      mul\n      or\n      swap1\n      sstore\n      pop\n      pop\n        /* \"contracts/firebase2.sol\":1091:1116  addresses(_promptaddress) */\n      mload(0x40)\n      dup1\n      0x20\n      add\n      0x40\n      mstore\n      dup1\n        /* \"contracts/firebase2.sol\":1101:1115  _promptaddress */\n      dup3\n        /* \"contracts/firebase2.sol\":1091:1116  addresses(_promptaddress) */\n      0xffffffffffffffffffffffffffffffffffffffff\n      and\n      dup2\n      mstore\n      pop\n        /* \"contracts/firebase2.sol\":1070:1081  addressList */\n      0x00\n        /* \"contracts/firebase2.sol\":1070:1088  addressList[_date] */\n      dup1\n        /* \"contracts/firebase2.sol\":1082:1087  _date */\n      dup5\n        /* \"contracts/firebase2.sol\":1070:1088  addressList[_date] */\n      dup2\n      mstore\n      0x20\n      add\n      swap1\n      dup2\n      mstore\n      0x20\n      add\n      0x00\n      keccak256\n        /* \"contracts/firebase2.sol\":1070:1116  addressList[_date] = addresses(_promptaddress) */\n      0x00\n      dup3\n      add\n      mload\n      dup2\n      0x00\n      add\n      exp(0x0100, 0x00)\n      dup2\n      sload\n      dup2\n      0xffffffffffffffffffffffffffffffffffffffff\n      mul\n      not\n      and\n      swap1\n      dup4\n      0xffffffffffffffffffffffffffffffffffffffff\n      and\n      mul\n      or\n      swap1\n      sstore\n      pop\n      swap1\n      pop\n      pop\n        /* \"contracts/firebase2.sol\":964:1128  if(_promptStatus == 2){\r... */\n    tag_27:\n        /* \"contracts/firebase2.sol\":785:1128  if(_promptStatus == 1){\r... */\n    tag_26:\n        /* \"contracts/firebase2.sol\":605:1128  if (_promptStatus == 0){\r... */\n    tag_23:\n        /* \"contracts/firebase2.sol\":493:1137  function createDate(uint _promptStatus,uint _date, address _promptaddress) public{\r... */\n      pop\n      pop\n      pop\n      jump\t// out\n        /* \"contracts/firebase2.sol\":1143:1424  function getAddr(uint _date) public view returns(addresses memory){\r... */\n    tag_17:\n        /* \"contracts/firebase2.sol\":1192:1208  addresses memory */\n      tag_29\n      tag_30\n      jump\t// in\n    tag_29:\n        /* \"contracts/firebase2.sol\":1220:1240  address[] memory ret */\n      0x60\n        /* \"contracts/firebase2.sol\":1257:1264  counter */\n      sload(0x01)\n        /* \"contracts/firebase2.sol\":1243:1265  new address[](counter) */\n      mload(0x40)\n      swap1\n      dup1\n      dup3\n      mstore\n      dup1\n      0x20\n      mul\n      0x20\n      add\n      dup3\n      add\n      0x40\n      mstore\n      dup1\n      iszero\n      tag_32\n      jumpi\n      dup2\n      0x20\n      add\n        /* \"--CODEGEN--\":29:31   */\n      0x20\n        /* \"--CODEGEN--\":21:27   */\n      dup3\n        /* \"--CODEGEN--\":17:32   */\n      mul\n        /* \"--CODEGEN--\":117:121   */\n      dup1\n        /* \"--CODEGEN--\":105:115   */\n      codesize\n        /* \"--CODEGEN--\":97:103   */\n      dup4\n        /* \"--CODEGEN--\":88:122   */\n      codecopy\n        /* \"--CODEGEN--\":148:152   */\n      dup1\n        /* \"--CODEGEN--\":140:146   */\n      dup3\n        /* \"--CODEGEN--\":136:153   */\n      add\n        /* \"--CODEGEN--\":126:153   */\n      swap2\n      pop\n        /* \"--CODEGEN--\":0:157   */\n      pop\n        /* \"contracts/firebase2.sol\":1243:1265  new address[](counter) */\n      swap1\n      pop\n    tag_32:\n      pop\n        /* \"contracts/firebase2.sol\":1220:1265  address[] memory ret = new address[](counter) */\n      swap1\n      pop\n        /* \"contracts/firebase2.sol\":1281:1287  uint i */\n      0x00\n        /* \"contracts/firebase2.sol\":1288:1289  0 */\n      dup1\n        /* \"contracts/firebase2.sol\":1281:1289  uint i=0 */\n      swap1\n      pop\n        /* \"contracts/firebase2.sol\":1276:1391  for (uint i=0; i < counter; i++){\r... */\n    tag_33:\n        /* \"contracts/firebase2.sol\":1295:1302  counter */\n      sload(0x01)\n        /* \"contracts/firebase2.sol\":1291:1292  i */\n      dup2\n        /* \"contracts/firebase2.sol\":1291:1302  i < counter */\n      lt\n        /* \"contracts/firebase2.sol\":1276:1391  for (uint i=0; i < counter; i++){\r... */\n      iszero\n      tag_34\n      jumpi\n        /* \"contracts/firebase2.sol\":1323:1334  addressList */\n      0x00\n        /* \"contracts/firebase2.sol\":1323:1341  addressList[_date] */\n      dup1\n        /* \"contracts/firebase2.sol\":1335:1340  _date */\n      dup6\n        /* \"contracts/firebase2.sol\":1323:1341  addressList[_date] */\n      dup2\n      mstore\n      0x20\n      add\n      swap1\n      dup2\n      mstore\n      0x20\n      add\n      0x00\n      keccak256\n      pop\n        /* \"contracts/firebase2.sol\":1304:1307  i++ */\n      dup1\n      dup1\n      0x01\n      add\n      swap2\n      pop\n      pop\n        /* \"contracts/firebase2.sol\":1276:1391  for (uint i=0; i < counter; i++){\r... */\n      jump(tag_33)\n    tag_34:\n      pop\n        /* \"contracts/firebase2.sol\":1143:1424  function getAddr(uint _date) public view returns(addresses memory){\r... */\n      pop\n      swap2\n      swap1\n      pop\n      jump\t// out\n        /* \"contracts/firebase2.sol\":71:1593  contract FirebaseSystem{\r... */\n    tag_30:\n      mload(0x40)\n      dup1\n      0x20\n      add\n      0x40\n      mstore\n      dup1\n      and(0xffffffffffffffffffffffffffffffffffffffff, 0x00)\n      dup2\n      mstore\n      pop\n      swap1\n      jump\t// out\n        /* \"--CODEGEN--\":5:135   */\n    tag_37:\n      0x00\n        /* \"--CODEGEN--\":85:91   */\n      dup2\n        /* \"--CODEGEN--\":72:92   */\n      calldataload\n        /* \"--CODEGEN--\":63:92   */\n      swap1\n      pop\n        /* \"--CODEGEN--\":97:130   */\n      tag_38\n        /* \"--CODEGEN--\":124:129   */\n      dup2\n        /* \"--CODEGEN--\":97:130   */\n      jump(tag_39)\n    tag_38:\n        /* \"--CODEGEN--\":57:135   */\n      swap3\n      swap2\n      pop\n      pop\n      jump\n        /* \"--CODEGEN--\":142:272   */\n    tag_40:\n      0x00\n        /* \"--CODEGEN--\":222:228   */\n      dup2\n        /* \"--CODEGEN--\":209:229   */\n      calldataload\n        /* \"--CODEGEN--\":200:229   */\n      swap1\n      pop\n        /* \"--CODEGEN--\":234:267   */\n      tag_41\n        /* \"--CODEGEN--\":261:266   */\n      dup2\n        /* \"--CODEGEN--\":234:267   */\n      jump(tag_42)\n    tag_41:\n        /* \"--CODEGEN--\":194:272   */\n      swap3\n      swap2\n      pop\n      pop\n      jump\n        /* \"--CODEGEN--\":279:520   */\n    tag_16:\n      0x00\n        /* \"--CODEGEN--\":383:385   */\n      0x20\n        /* \"--CODEGEN--\":371:380   */\n      dup3\n        /* \"--CODEGEN--\":362:369   */\n      dup5\n        /* \"--CODEGEN--\":358:381   */\n      sub\n        /* \"--CODEGEN--\":354:386   */\n      slt\n        /* \"--CODEGEN--\":351:353   */\n      iszero\n      tag_43\n      jumpi\n        /* \"--CODEGEN--\":399:400   */\n      0x00\n        /* \"--CODEGEN--\":396:397   */\n      dup1\n        /* \"--CODEGEN--\":389:401   */\n      revert\n        /* \"--CODEGEN--\":351:353   */\n    tag_43:\n        /* \"--CODEGEN--\":434:435   */\n      0x00\n        /* \"--CODEGEN--\":451:504   */\n      tag_44\n        /* \"--CODEGEN--\":496:503   */\n      dup5\n        /* \"--CODEGEN--\":487:493   */\n      dup3\n        /* \"--CODEGEN--\":476:485   */\n      dup6\n        /* \"--CODEGEN--\":472:494   */\n      add\n        /* \"--CODEGEN--\":451:504   */\n      jump(tag_40)\n    tag_44:\n        /* \"--CODEGEN--\":441:504   */\n      swap2\n      pop\n        /* \"--CODEGEN--\":413:510   */\n      pop\n        /* \"--CODEGEN--\":345:520   */\n      swap3\n      swap2\n      pop\n      pop\n      jump\n        /* \"--CODEGEN--\":527:1018   */\n    tag_12:\n      0x00\n      dup1\n      0x00\n        /* \"--CODEGEN--\":665:667   */\n      0x60\n        /* \"--CODEGEN--\":653:662   */\n      dup5\n        /* \"--CODEGEN--\":644:651   */\n      dup7\n        /* \"--CODEGEN--\":640:663   */\n      sub\n        /* \"--CODEGEN--\":636:668   */\n      slt\n        /* \"--CODEGEN--\":633:635   */\n      iszero\n      tag_45\n      jumpi\n        /* \"--CODEGEN--\":681:682   */\n      0x00\n        /* \"--CODEGEN--\":678:679   */\n      dup1\n        /* \"--CODEGEN--\":671:683   */\n      revert\n        /* \"--CODEGEN--\":633:635   */\n    tag_45:\n        /* \"--CODEGEN--\":716:717   */\n      0x00\n        /* \"--CODEGEN--\":733:786   */\n      tag_46\n        /* \"--CODEGEN--\":778:785   */\n      dup7\n        /* \"--CODEGEN--\":769:775   */\n      dup3\n        /* \"--CODEGEN--\":758:767   */\n      dup8\n        /* \"--CODEGEN--\":754:776   */\n      add\n        /* \"--CODEGEN--\":733:786   */\n      jump(tag_40)\n    tag_46:\n        /* \"--CODEGEN--\":723:786   */\n      swap4\n      pop\n        /* \"--CODEGEN--\":695:792   */\n      pop\n        /* \"--CODEGEN--\":823:825   */\n      0x20\n        /* \"--CODEGEN--\":841:894   */\n      tag_47\n        /* \"--CODEGEN--\":886:893   */\n      dup7\n        /* \"--CODEGEN--\":877:883   */\n      dup3\n        /* \"--CODEGEN--\":866:875   */\n      dup8\n        /* \"--CODEGEN--\":862:884   */\n      add\n        /* \"--CODEGEN--\":841:894   */\n      jump(tag_40)\n    tag_47:\n        /* \"--CODEGEN--\":831:894   */\n      swap3\n      pop\n        /* \"--CODEGEN--\":802:900   */\n      pop\n        /* \"--CODEGEN--\":931:933   */\n      0x40\n        /* \"--CODEGEN--\":949:1002   */\n      tag_48\n        /* \"--CODEGEN--\":994:1001   */\n      dup7\n        /* \"--CODEGEN--\":985:991   */\n      dup3\n        /* \"--CODEGEN--\":974:983   */\n      dup8\n        /* \"--CODEGEN--\":970:992   */\n      add\n        /* \"--CODEGEN--\":949:1002   */\n      jump(tag_37)\n    tag_48:\n        /* \"--CODEGEN--\":939:1002   */\n      swap2\n      pop\n        /* \"--CODEGEN--\":910:1008   */\n      pop\n        /* \"--CODEGEN--\":627:1018   */\n      swap3\n      pop\n      swap3\n      pop\n      swap3\n      jump\n        /* \"--CODEGEN--\":1025:1128   */\n    tag_49:\n        /* \"--CODEGEN--\":1098:1122   */\n      tag_50\n        /* \"--CODEGEN--\":1116:1121   */\n      dup2\n        /* \"--CODEGEN--\":1098:1122   */\n      jump(tag_51)\n    tag_50:\n        /* \"--CODEGEN--\":1093:1096   */\n      dup3\n        /* \"--CODEGEN--\":1086:1123   */\n      mstore\n        /* \"--CODEGEN--\":1080:1128   */\n      pop\n      pop\n      jump\n        /* \"--CODEGEN--\":1208:1528   */\n    tag_52:\n        /* \"--CODEGEN--\":1349:1353   */\n      0x20\n        /* \"--CODEGEN--\":1344:1347   */\n      dup3\n        /* \"--CODEGEN--\":1340:1354   */\n      add\n        /* \"--CODEGEN--\":1432:1436   */\n      0x00\n        /* \"--CODEGEN--\":1425:1430   */\n      dup3\n        /* \"--CODEGEN--\":1421:1437   */\n      add\n        /* \"--CODEGEN--\":1415:1438   */\n      mload\n        /* \"--CODEGEN--\":1444:1507   */\n      tag_53\n        /* \"--CODEGEN--\":1501:1505   */\n      0x00\n        /* \"--CODEGEN--\":1496:1499   */\n      dup6\n        /* \"--CODEGEN--\":1492:1506   */\n      add\n        /* \"--CODEGEN--\":1478:1490   */\n      dup3\n        /* \"--CODEGEN--\":1444:1507   */\n      jump(tag_49)\n    tag_53:\n        /* \"--CODEGEN--\":1369:1513   */\n      pop\n        /* \"--CODEGEN--\":1322:1528   */\n      pop\n      pop\n      pop\n      jump\n        /* \"--CODEGEN--\":1535:1648   */\n    tag_54:\n        /* \"--CODEGEN--\":1618:1642   */\n      tag_55\n        /* \"--CODEGEN--\":1636:1641   */\n      dup2\n        /* \"--CODEGEN--\":1618:1642   */\n      jump(tag_56)\n    tag_55:\n        /* \"--CODEGEN--\":1613:1616   */\n      dup3\n        /* \"--CODEGEN--\":1606:1643   */\n      mstore\n        /* \"--CODEGEN--\":1600:1648   */\n      pop\n      pop\n      jump\n        /* \"--CODEGEN--\":1655:1964   */\n    tag_19:\n      0x00\n        /* \"--CODEGEN--\":1821:1823   */\n      0x20\n        /* \"--CODEGEN--\":1810:1819   */\n      dup3\n        /* \"--CODEGEN--\":1806:1824   */\n      add\n        /* \"--CODEGEN--\":1798:1824   */\n      swap1\n      pop\n        /* \"--CODEGEN--\":1835:1954   */\n      tag_57\n        /* \"--CODEGEN--\":1951:1952   */\n      0x00\n        /* \"--CODEGEN--\":1940:1949   */\n      dup4\n        /* \"--CODEGEN--\":1936:1953   */\n      add\n        /* \"--CODEGEN--\":1927:1933   */\n      dup5\n        /* \"--CODEGEN--\":1835:1954   */\n      jump(tag_52)\n    tag_57:\n        /* \"--CODEGEN--\":1792:1964   */\n      swap3\n      swap2\n      pop\n      pop\n      jump\n        /* \"--CODEGEN--\":1971:2184   */\n    tag_9:\n      0x00\n        /* \"--CODEGEN--\":2089:2091   */\n      0x20\n        /* \"--CODEGEN--\":2078:2087   */\n      dup3\n        /* \"--CODEGEN--\":2074:2092   */\n      add\n        /* \"--CODEGEN--\":2066:2092   */\n      swap1\n      pop\n        /* \"--CODEGEN--\":2103:2174   */\n      tag_58\n        /* \"--CODEGEN--\":2171:2172   */\n      0x00\n        /* \"--CODEGEN--\":2160:2169   */\n      dup4\n        /* \"--CODEGEN--\":2156:2173   */\n      add\n        /* \"--CODEGEN--\":2147:2153   */\n      dup5\n        /* \"--CODEGEN--\":2103:2174   */\n      jump(tag_54)\n    tag_58:\n        /* \"--CODEGEN--\":2060:2184   */\n      swap3\n      swap2\n      pop\n      pop\n      jump\n        /* \"--CODEGEN--\":2191:2282   */\n    tag_51:\n      0x00\n        /* \"--CODEGEN--\":2253:2277   */\n      tag_59\n        /* \"--CODEGEN--\":2271:2276   */\n      dup3\n        /* \"--CODEGEN--\":2253:2277   */\n      jump(tag_60)\n    tag_59:\n        /* \"--CODEGEN--\":2242:2277   */\n      swap1\n      pop\n        /* \"--CODEGEN--\":2236:2282   */\n      swap2\n      swap1\n      pop\n      jump\n        /* \"--CODEGEN--\":2289:2410   */\n    tag_60:\n      0x00\n        /* \"--CODEGEN--\":2362:2404   */\n      0xffffffffffffffffffffffffffffffffffffffff\n        /* \"--CODEGEN--\":2355:2360   */\n      dup3\n        /* \"--CODEGEN--\":2351:2405   */\n      and\n        /* \"--CODEGEN--\":2340:2405   */\n      swap1\n      pop\n        /* \"--CODEGEN--\":2334:2410   */\n      swap2\n      swap1\n      pop\n      jump\n        /* \"--CODEGEN--\":2417:2489   */\n    tag_56:\n      0x00\n        /* \"--CODEGEN--\":2479:2484   */\n      dup2\n        /* \"--CODEGEN--\":2468:2484   */\n      swap1\n      pop\n        /* \"--CODEGEN--\":2462:2489   */\n      swap2\n      swap1\n      pop\n      jump\n        /* \"--CODEGEN--\":2496:2613   */\n    tag_39:\n        /* \"--CODEGEN--\":2565:2589   */\n      tag_61\n        /* \"--CODEGEN--\":2583:2588   */\n      dup2\n        /* \"--CODEGEN--\":2565:2589   */\n      jump(tag_51)\n    tag_61:\n        /* \"--CODEGEN--\":2558:2563   */\n      dup2\n        /* \"--CODEGEN--\":2555:2590   */\n      eq\n        /* \"--CODEGEN--\":2545:2547   */\n      tag_62\n      jumpi\n        /* \"--CODEGEN--\":2604:2605   */\n      0x00\n        /* \"--CODEGEN--\":2601:2602   */\n      dup1\n        /* \"--CODEGEN--\":2594:2606   */\n      revert\n        /* \"--CODEGEN--\":2545:2547   */\n    tag_62:\n        /* \"--CODEGEN--\":2539:2613   */\n      pop\n      jump\n        /* \"--CODEGEN--\":2620:2737   */\n    tag_42:\n        /* \"--CODEGEN--\":2689:2713   */\n      tag_63\n        /* \"--CODEGEN--\":2707:2712   */\n      dup2\n        /* \"--CODEGEN--\":2689:2713   */\n      jump(tag_56)\n    tag_63:\n        /* \"--CODEGEN--\":2682:2687   */\n      dup2\n        /* \"--CODEGEN--\":2679:2714   */\n      eq\n        /* \"--CODEGEN--\":2669:2671   */\n      tag_64\n      jumpi\n        /* \"--CODEGEN--\":2728:2729   */\n      0x00\n        /* \"--CODEGEN--\":2725:2726   */\n      dup1\n        /* \"--CODEGEN--\":2718:2730   */\n      revert\n        /* \"--CODEGEN--\":2669:2671   */\n    tag_64:\n        /* \"--CODEGEN--\":2663:2737   */\n      pop\n      jump\n\n    auxdata: 0xa365627a7a72315820302fe9e4a78c115d3d0493c808804bce3d8c7a31476d0652e61ce355873cf9976c6578706572696d656e74616cf564736f6c63430005110040\n}\n",
				"bytecode": {
					"linkReferences": {},
					"object": "608060405234801561001057600080fd5b5061066d806100206000396000f3fe608060405234801561001057600080fd5b50600436106100415760003560e01c806361bc221a1461004657806370335c2714610064578063d81f84b714610080575b600080fd5b61004e6100b0565b60405161005b91906105a5565b60405180910390f35b61007e60048036036100799190810190610501565b6100b6565b005b61009a600480360361009591908101906104d8565b610410565b6040516100a7919061058a565b60405180910390f35b60015481565b60016000815480929190600101919050555060008314156101df576002600084815260200190815260200160002060008381526020019081526020016000208190806001815401808255809150509060018203906000526020600020016000909192909190916101000a81548173ffffffffffffffffffffffffffffffffffffffff021916908373ffffffffffffffffffffffffffffffffffffffff1602179055505060405180602001604052808273ffffffffffffffffffffffffffffffffffffffff1681525060008084815260200190815260200160002060008201518160000160006101000a81548173ffffffffffffffffffffffffffffffffffffffff021916908373ffffffffffffffffffffffffffffffffffffffff16021790555090505061040b565b60018314156102f6576002600084815260200190815260200160002060008381526020019081526020016000208190806001815401808255809150509060018203906000526020600020016000909192909190916101000a81548173ffffffffffffffffffffffffffffffffffffffff021916908373ffffffffffffffffffffffffffffffffffffffff1602179055505060405180602001604052808273ffffffffffffffffffffffffffffffffffffffff1681525060008084815260200190815260200160002060008201518160000160006101000a81548173ffffffffffffffffffffffffffffffffffffffff021916908373ffffffffffffffffffffffffffffffffffffffff16021790555090505061040a565b6002831415610409576002600084815260200190815260200160002060008381526020019081526020016000208190806001815401808255809150509060018203906000526020600020016000909192909190916101000a81548173ffffffffffffffffffffffffffffffffffffffff021916908373ffffffffffffffffffffffffffffffffffffffff1602179055505060405180602001604052808273ffffffffffffffffffffffffffffffffffffffff1681525060008084815260200190815260200160002060008201518160000160006101000a81548173ffffffffffffffffffffffffffffffffffffffff021916908373ffffffffffffffffffffffffffffffffffffffff1602179055509050505b5b5b505050565b610418610485565b606060015460405190808252806020026020018201604052801561044b5781602001602082028038833980820191505090505b50905060008090505b60015481101561047e57600080858152602001908152602001600020508080600101915050610454565b5050919050565b6040518060200160405280600073ffffffffffffffffffffffffffffffffffffffff1681525090565b6000813590506104bd816105fc565b92915050565b6000813590506104d281610613565b92915050565b6000602082840312156104ea57600080fd5b60006104f8848285016104c3565b91505092915050565b60008060006060848603121561051657600080fd5b6000610524868287016104c3565b9350506020610535868287016104c3565b9250506040610546868287016104ae565b9150509250925092565b610559816105c0565b82525050565b6020820160008201516105756000850182610550565b50505050565b610584816105f2565b82525050565b600060208201905061059f600083018461055f565b92915050565b60006020820190506105ba600083018461057b565b92915050565b60006105cb826105d2565b9050919050565b600073ffffffffffffffffffffffffffffffffffffffff82169050919050565b6000819050919050565b610605816105c0565b811461061057600080fd5b50565b61061c816105f2565b811461062757600080fd5b5056fea365627a7a72315820302fe9e4a78c115d3d0493c808804bce3d8c7a31476d0652e61ce355873cf9976c6578706572696d656e74616cf564736f6c63430005110040",
					"opcodes": "PUSH1 0x80 PUSH1 0x40 MSTORE CALLVALUE DUP1 ISZERO PUSH2 0x10 JUMPI PUSH1 0x0 DUP1 REVERT JUMPDEST POP PUSH2 0x66D DUP1 PUSH2 0x20 PUSH1 0x0 CODECOPY PUSH1 0x0 RETURN INVALID PUSH1 0x80 PUSH1 0x40 MSTORE CALLVALUE DUP1 ISZERO PUSH2 0x10 JUMPI PUSH1 0x0 DUP1 REVERT JUMPDEST POP PUSH1 0x4 CALLDATASIZE LT PUSH2 0x41 JUMPI PUSH1 0x0 CALLDATALOAD PUSH1 0xE0 SHR DUP1 PUSH4 0x61BC221A EQ PUSH2 0x46 JUMPI DUP1 PUSH4 0x70335C27 EQ PUSH2 0x64 JUMPI DUP1 PUSH4 0xD81F84B7 EQ PUSH2 0x80 JUMPI JUMPDEST PUSH1 0x0 DUP1 REVERT JUMPDEST PUSH2 0x4E PUSH2 0xB0 JUMP JUMPDEST PUSH1 0x40 MLOAD PUSH2 0x5B SWAP2 SWAP1 PUSH2 0x5A5 JUMP JUMPDEST PUSH1 0x40 MLOAD DUP1 SWAP2 SUB SWAP1 RETURN JUMPDEST PUSH2 0x7E PUSH1 0x4 DUP1 CALLDATASIZE SUB PUSH2 0x79 SWAP2 SWAP1 DUP2 ADD SWAP1 PUSH2 0x501 JUMP JUMPDEST PUSH2 0xB6 JUMP JUMPDEST STOP JUMPDEST PUSH2 0x9A PUSH1 0x4 DUP1 CALLDATASIZE SUB PUSH2 0x95 SWAP2 SWAP1 DUP2 ADD SWAP1 PUSH2 0x4D8 JUMP JUMPDEST PUSH2 0x410 JUMP JUMPDEST PUSH1 0x40 MLOAD PUSH2 0xA7 SWAP2 SWAP1 PUSH2 0x58A JUMP JUMPDEST PUSH1 0x40 MLOAD DUP1 SWAP2 SUB SWAP1 RETURN JUMPDEST PUSH1 0x1 SLOAD DUP2 JUMP JUMPDEST PUSH1 0x1 PUSH1 0x0 DUP2 SLOAD DUP1 SWAP3 SWAP2 SWAP1 PUSH1 0x1 ADD SWAP2 SWAP1 POP SSTORE POP PUSH1 0x0 DUP4 EQ ISZERO PUSH2 0x1DF JUMPI PUSH1 0x2 PUSH1 0x0 DUP5 DUP2 MSTORE PUSH1 0x20 ADD SWAP1 DUP2 MSTORE PUSH1 0x20 ADD PUSH1 0x0 KECCAK256 PUSH1 0x0 DUP4 DUP2 MSTORE PUSH1 0x20 ADD SWAP1 DUP2 MSTORE PUSH1 0x20 ADD PUSH1 0x0 KECCAK256 DUP2 SWAP1 DUP1 PUSH1 0x1 DUP2 SLOAD ADD DUP1 DUP3 SSTORE DUP1 SWAP2 POP POP SWAP1 PUSH1 0x1 DUP3 SUB SWAP1 PUSH1 0x0 MSTORE PUSH1 0x20 PUSH1 0x0 KECCAK256 ADD PUSH1 0x0 SWAP1 SWAP2 SWAP3 SWAP1 SWAP2 SWAP1 SWAP2 PUSH2 0x100 EXP DUP2 SLOAD DUP2 PUSH20 0xFFFFFFFFFFFFFFFFFFFFFFFFFFFFFFFFFFFFFFFF MUL NOT AND SWAP1 DUP4 PUSH20 0xFFFFFFFFFFFFFFFFFFFFFFFFFFFFFFFFFFFFFFFF AND MUL OR SWAP1 SSTORE POP POP PUSH1 0x40 MLOAD DUP1 PUSH1 0x20 ADD PUSH1 0x40 MSTORE DUP1 DUP3 PUSH20 0xFFFFFFFFFFFFFFFFFFFFFFFFFFFFFFFFFFFFFFFF AND DUP2 MSTORE POP PUSH1 0x0 DUP1 DUP5 DUP2 MSTORE PUSH1 0x20 ADD SWAP1 DUP2 MSTORE PUSH1 0x20 ADD PUSH1 0x0 KECCAK256 PUSH1 0x0 DUP3 ADD MLOAD DUP2 PUSH1 0x0 ADD PUSH1 0x0 PUSH2 0x100 EXP DUP2 SLOAD DUP2 PUSH20 0xFFFFFFFFFFFFFFFFFFFFFFFFFFFFFFFFFFFFFFFF MUL NOT AND SWAP1 DUP4 PUSH20 0xFFFFFFFFFFFFFFFFFFFFFFFFFFFFFFFFFFFFFFFF AND MUL OR SWAP1 SSTORE POP SWAP1 POP POP PUSH2 0x40B JUMP JUMPDEST PUSH1 0x1 DUP4 EQ ISZERO PUSH2 0x2F6 JUMPI PUSH1 0x2 PUSH1 0x0 DUP5 DUP2 MSTORE PUSH1 0x20 ADD SWAP1 DUP2 MSTORE PUSH1 0x20 ADD PUSH1 0x0 KECCAK256 PUSH1 0x0 DUP4 DUP2 MSTORE PUSH1 0x20 ADD SWAP1 DUP2 MSTORE PUSH1 0x20 ADD PUSH1 0x0 KECCAK256 DUP2 SWAP1 DUP1 PUSH1 0x1 DUP2 SLOAD ADD DUP1 DUP3 SSTORE DUP1 SWAP2 POP POP SWAP1 PUSH1 0x1 DUP3 SUB SWAP1 PUSH1 0x0 MSTORE PUSH1 0x20 PUSH1 0x0 KECCAK256 ADD PUSH1 0x0 SWAP1 SWAP2 SWAP3 SWAP1 SWAP2 SWAP1 SWAP2 PUSH2 0x100 EXP DUP2 SLOAD DUP2 PUSH20 0xFFFFFFFFFFFFFFFFFFFFFFFFFFFFFFFFFFFFFFFF MUL NOT AND SWAP1 DUP4 PUSH20 0xFFFFFFFFFFFFFFFFFFFFFFFFFFFFFFFFFFFFFFFF AND MUL OR SWAP1 SSTORE POP POP PUSH1 0x40 MLOAD DUP1 PUSH1 0x20 ADD PUSH1 0x40 MSTORE DUP1 DUP3 PUSH20 0xFFFFFFFFFFFFFFFFFFFFFFFFFFFFFFFFFFFFFFFF AND DUP2 MSTORE POP PUSH1 0x0 DUP1 DUP5 DUP2 MSTORE PUSH1 0x20 ADD SWAP1 DUP2 MSTORE PUSH1 0x20 ADD PUSH1 0x0 KECCAK256 PUSH1 0x0 DUP3 ADD MLOAD DUP2 PUSH1 0x0 ADD PUSH1 0x0 PUSH2 0x100 EXP DUP2 SLOAD DUP2 PUSH20 0xFFFFFFFFFFFFFFFFFFFFFFFFFFFFFFFFFFFFFFFF MUL NOT AND SWAP1 DUP4 PUSH20 0xFFFFFFFFFFFFFFFFFFFFFFFFFFFFFFFFFFFFFFFF AND MUL OR SWAP1 SSTORE POP SWAP1 POP POP PUSH2 0x40A JUMP JUMPDEST PUSH1 0x2 DUP4 EQ ISZERO PUSH2 0x409 JUMPI PUSH1 0x2 PUSH1 0x0 DUP5 DUP2 MSTORE PUSH1 0x20 ADD SWAP1 DUP2 MSTORE PUSH1 0x20 ADD PUSH1 0x0 KECCAK256 PUSH1 0x0 DUP4 DUP2 MSTORE PUSH1 0x20 ADD SWAP1 DUP2 MSTORE PUSH1 0x20 ADD PUSH1 0x0 KECCAK256 DUP2 SWAP1 DUP1 PUSH1 0x1 DUP2 SLOAD ADD DUP1 DUP3 SSTORE DUP1 SWAP2 POP POP SWAP1 PUSH1 0x1 DUP3 SUB SWAP1 PUSH1 0x0 MSTORE PUSH1 0x20 PUSH1 0x0 KECCAK256 ADD PUSH1 0x0 SWAP1 SWAP2 SWAP3 SWAP1 SWAP2 SWAP1 SWAP2 PUSH2 0x100 EXP DUP2 SLOAD DUP2 PUSH20 0xFFFFFFFFFFFFFFFFFFFFFFFFFFFFFFFFFFFFFFFF MUL NOT AND SWAP1 DUP4 PUSH20 0xFFFFFFFFFFFFFFFFFFFFFFFFFFFFFFFFFFFFFFFF AND MUL OR SWAP1 SSTORE POP POP PUSH1 0x40 MLOAD DUP1 PUSH1 0x20 ADD PUSH1 0x40 MSTORE DUP1 DUP3 PUSH20 0xFFFFFFFFFFFFFFFFFFFFFFFFFFFFFFFFFFFFFFFF AND DUP2 MSTORE POP PUSH1 0x0 DUP1 DUP5 DUP2 MSTORE PUSH1 0x20 ADD SWAP1 DUP2 MSTORE PUSH1 0x20 ADD PUSH1 0x0 KECCAK256 PUSH1 0x0 DUP3 ADD MLOAD DUP2 PUSH1 0x0 ADD PUSH1 0x0 PUSH2 0x100 EXP DUP2 SLOAD DUP2 PUSH20 0xFFFFFFFFFFFFFFFFFFFFFFFFFFFFFFFFFFFFFFFF MUL NOT AND SWAP1 DUP4 PUSH20 0xFFFFFFFFFFFFFFFFFFFFFFFFFFFFFFFFFFFFFFFF AND MUL OR SWAP1 SSTORE POP SWAP1 POP POP JUMPDEST JUMPDEST JUMPDEST POP POP POP JUMP JUMPDEST PUSH2 0x418 PUSH2 0x485 JUMP JUMPDEST PUSH1 0x60 PUSH1 0x1 SLOAD PUSH1 0x40 MLOAD SWAP1 DUP1 DUP3 MSTORE DUP1 PUSH1 0x20 MUL PUSH1 0x20 ADD DUP3 ADD PUSH1 0x40 MSTORE DUP1 ISZERO PUSH2 0x44B JUMPI DUP2 PUSH1 0x20 ADD PUSH1 0x20 DUP3 MUL DUP1 CODESIZE DUP4 CODECOPY DUP1 DUP3 ADD SWAP2 POP POP SWAP1 POP JUMPDEST POP SWAP1 POP PUSH1 0x0 DUP1 SWAP1 POP JUMPDEST PUSH1 0x1 SLOAD DUP2 LT ISZERO PUSH2 0x47E JUMPI PUSH1 0x0 DUP1 DUP6 DUP2 MSTORE PUSH1 0x20 ADD SWAP1 DUP2 MSTORE PUSH1 0x20 ADD PUSH1 0x0 KECCAK256 POP DUP1 DUP1 PUSH1 0x1 ADD SWAP2 POP POP PUSH2 0x454 JUMP JUMPDEST POP POP SWAP2 SWAP1 POP JUMP JUMPDEST PUSH1 0x40 MLOAD DUP1 PUSH1 0x20 ADD PUSH1 0x40 MSTORE DUP1 PUSH1 0x0 PUSH20 0xFFFFFFFFFFFFFFFFFFFFFFFFFFFFFFFFFFFFFFFF AND DUP2 MSTORE POP SWAP1 JUMP JUMPDEST PUSH1 0x0 DUP2 CALLDATALOAD SWAP1 POP PUSH2 0x4BD DUP2 PUSH2 0x5FC JUMP JUMPDEST SWAP3 SWAP2 POP POP JUMP JUMPDEST PUSH1 0x0 DUP2 CALLDATALOAD SWAP1 POP PUSH2 0x4D2 DUP2 PUSH2 0x613 JUMP JUMPDEST SWAP3 SWAP2 POP POP JUMP JUMPDEST PUSH1 0x0 PUSH1 0x20 DUP3 DUP5 SUB SLT ISZERO PUSH2 0x4EA JUMPI PUSH1 0x0 DUP1 REVERT JUMPDEST PUSH1 0x0 PUSH2 0x4F8 DUP5 DUP3 DUP6 ADD PUSH2 0x4C3 JUMP JUMPDEST SWAP2 POP POP SWAP3 SWAP2 POP POP JUMP JUMPDEST PUSH1 0x0 DUP1 PUSH1 0x0 PUSH1 0x60 DUP5 DUP7 SUB SLT ISZERO PUSH2 0x516 JUMPI PUSH1 0x0 DUP1 REVERT JUMPDEST PUSH1 0x0 PUSH2 0x524 DUP7 DUP3 DUP8 ADD PUSH2 0x4C3 JUMP JUMPDEST SWAP4 POP POP PUSH1 0x20 PUSH2 0x535 DUP7 DUP3 DUP8 ADD PUSH2 0x4C3 JUMP JUMPDEST SWAP3 POP POP PUSH1 0x40 PUSH2 0x546 DUP7 DUP3 DUP8 ADD PUSH2 0x4AE JUMP JUMPDEST SWAP2 POP POP SWAP3 POP SWAP3 POP SWAP3 JUMP JUMPDEST PUSH2 0x559 DUP2 PUSH2 0x5C0 JUMP JUMPDEST DUP3 MSTORE POP POP JUMP JUMPDEST PUSH1 0x20 DUP3 ADD PUSH1 0x0 DUP3 ADD MLOAD PUSH2 0x575 PUSH1 0x0 DUP6 ADD DUP3 PUSH2 0x550 JUMP JUMPDEST POP POP POP POP JUMP JUMPDEST PUSH2 0x584 DUP2 PUSH2 0x5F2 JUMP JUMPDEST DUP3 MSTORE POP POP JUMP JUMPDEST PUSH1 0x0 PUSH1 0x20 DUP3 ADD SWAP1 POP PUSH2 0x59F PUSH1 0x0 DUP4 ADD DUP5 PUSH2 0x55F JUMP JUMPDEST SWAP3 SWAP2 POP POP JUMP JUMPDEST PUSH1 0x0 PUSH1 0x20 DUP3 ADD SWAP1 POP PUSH2 0x5BA PUSH1 0x0 DUP4 ADD DUP5 PUSH2 0x57B JUMP JUMPDEST SWAP3 SWAP2 POP POP JUMP JUMPDEST PUSH1 0x0 PUSH2 0x5CB DUP3 PUSH2 0x5D2 JUMP JUMPDEST SWAP1 POP SWAP2 SWAP1 POP JUMP JUMPDEST PUSH1 0x0 PUSH20 0xFFFFFFFFFFFFFFFFFFFFFFFFFFFFFFFFFFFFFFFF DUP3 AND SWAP1 POP SWAP2 SWAP1 POP JUMP JUMPDEST PUSH1 0x0 DUP2 SWAP1 POP SWAP2 SWAP1 POP JUMP JUMPDEST PUSH2 0x605 DUP2 PUSH2 0x5C0 JUMP JUMPDEST DUP2 EQ PUSH2 0x610 JUMPI PUSH1 0x0 DUP1 REVERT JUMPDEST POP JUMP JUMPDEST PUSH2 0x61C DUP2 PUSH2 0x5F2 JUMP JUMPDEST DUP2 EQ PUSH2 0x627 JUMPI PUSH1 0x0 DUP1 REVERT JUMPDEST POP JUMP INVALID LOG3 PUSH6 0x627A7A723158 KECCAK256 ADDRESS 0x2F 0xE9 0xE4 0xA7 DUP13 GT 0x5D RETURNDATASIZE DIV SWAP4 0xC8 ADDMOD DUP1 0x4B 0xCE RETURNDATASIZE DUP13 PUSH27 0x31476D0652E61CE355873CF9976C6578706572696D656E74616CF5 PUSH5 0x736F6C6343 STOP SDIV GT STOP BLOCKHASH "
				},
				"gasEstimates": {
					"creation": {
						"codeDepositCost": "329000",
						"executionCost": "368",
						"totalCost": "329368"
					},
					"external": {
						"counter()": "1107",
						"createDate(uint256,uint256,address)": "infinite",
						"getAddr(uint256)": "infinite"
					}
				},
				"methodIdentifiers": {
					"counter()": "61bc221a",
					"createDate(uint256,uint256,address)": "70335c27",
					"getAddr(uint256)": "d81f84b7"
				}
			},
			"storageLayout": {
				"storage": [
					{
						"astId": 9,
						"contract": "contracts/firebase2.sol:FirebaseSystem",
						"label": "addressList",
						"offset": 0,
						"slot": "0",
						"type": "t_mapping(t_uint256,t_struct(addresses)5_storage)"
					},
					{
						"astId": 11,
						"contract": "contracts/firebase2.sol:FirebaseSystem",
						"label": "counter",
						"offset": 0,
						"slot": "1",
						"type": "t_uint256"
					},
					{
						"astId": 18,
						"contract": "contracts/firebase2.sol:FirebaseSystem",
						"label": "dateOfPolicy",
						"offset": 0,
						"slot": "2",
						"type": "t_mapping(t_uint256,t_mapping(t_uint256,t_array(t_address)dyn_storage))"
					}
				],
				"types": {
					"t_address": {
						"encoding": "inplace",
						"label": "address",
						"numberOfBytes": "20"
					},
					"t_array(t_address)dyn_storage": {
						"base": "t_address",
						"encoding": "dynamic_array",
						"label": "address[]",
						"numberOfBytes": "32"
					},
					"t_mapping(t_uint256,t_array(t_address)dyn_storage)": {
						"encoding": "mapping",
						"key": "t_uint256",
						"label": "mapping(uint256 => address[])",
						"numberOfBytes": "32",
						"value": "t_array(t_address)dyn_storage"
					},
					"t_mapping(t_uint256,t_mapping(t_uint256,t_array(t_address)dyn_storage))": {
						"encoding": "mapping",
						"key": "t_uint256",
						"label": "mapping(uint256 => mapping(uint256 => address[]))",
						"numberOfBytes": "32",
						"value": "t_mapping(t_uint256,t_array(t_address)dyn_storage)"
					},
					"t_mapping(t_uint256,t_struct(addresses)5_storage)": {
						"encoding": "mapping",
						"key": "t_uint256",
						"label": "mapping(uint256 => struct FirebaseSystem.addresses)",
						"numberOfBytes": "32",
						"value": "t_struct(addresses)5_storage"
					},
					"t_struct(addresses)5_storage": {
						"encoding": "inplace",
						"label": "struct FirebaseSystem.addresses",
						"members": [
							{
								"astId": 4,
								"contract": "contracts/firebase2.sol:FirebaseSystem",
								"label": "addr",
								"offset": 0,
								"slot": "0",
								"type": "t_address"
							}
						],
						"numberOfBytes": "32"
					},
					"t_uint256": {
						"encoding": "inplace",
						"label": "uint256",
						"numberOfBytes": "32"
					}
				}
			},
			"userdoc": {
				"methods": {}
			}
		}
	}
}