{
	"contracts/clientfactory.sol": {
		"PolicySmartContract": {
			"abi": [
				{
					"inputs": [
						{
							"internalType": "string[]",
							"name": "_array",
							"type": "string[]"
						}
					],
					"payable": false,
					"stateMutability": "nonpayable",
					"type": "constructor"
				},
				{
					"anonymous": false,
					"inputs": [
						{
							"indexed": false,
							"internalType": "string",
							"name": "newMessage",
							"type": "string"
						},
						{
							"indexed": false,
							"internalType": "string",
							"name": "policy",
							"type": "string"
						},
						{
							"indexed": false,
							"internalType": "string",
							"name": "duration",
							"type": "string"
						},
						{
							"indexed": false,
							"internalType": "string",
							"name": "date_of_policy",
							"type": "string"
						},
						{
							"indexed": false,
							"internalType": "string",
							"name": "phone",
							"type": "string"
						},
						{
							"indexed": false,
							"internalType": "string",
							"name": "name",
							"type": "string"
						},
						{
							"indexed": false,
							"internalType": "string",
							"name": "price",
							"type": "string"
						}
					],
					"name": "_updatedMessages",
					"type": "event"
				},
				{
					"constant": true,
					"inputs": [],
					"name": "date_of_policy",
					"outputs": [
						{
							"internalType": "string",
							"name": "",
							"type": "string"
						}
					],
					"payable": false,
					"stateMutability": "view",
					"type": "function"
				},
				{
					"constant": true,
					"inputs": [],
					"name": "duration",
					"outputs": [
						{
							"internalType": "string",
							"name": "",
							"type": "string"
						}
					],
					"payable": false,
					"stateMutability": "view",
					"type": "function"
				},
				{
					"constant": true,
					"inputs": [],
					"name": "getDate_of_policy",
					"outputs": [
						{
							"internalType": "string",
							"name": "",
							"type": "string"
						}
					],
					"payable": false,
					"stateMutability": "view",
					"type": "function"
				},
				{
					"constant": true,
					"inputs": [],
					"name": "getDuration",
					"outputs": [
						{
							"internalType": "string",
							"name": "",
							"type": "string"
						}
					],
					"payable": false,
					"stateMutability": "view",
					"type": "function"
				},
				{
					"constant": true,
					"inputs": [],
					"name": "getEmailAddress",
					"outputs": [
						{
							"internalType": "string",
							"name": "",
							"type": "string"
						}
					],
					"payable": false,
					"stateMutability": "view",
					"type": "function"
				},
				{
					"constant": true,
					"inputs": [],
					"name": "getName",
					"outputs": [
						{
							"internalType": "string",
							"name": "",
							"type": "string"
						}
					],
					"payable": false,
					"stateMutability": "view",
					"type": "function"
				},
				{
					"constant": true,
					"inputs": [],
					"name": "getPhone",
					"outputs": [
						{
							"internalType": "string",
							"name": "",
							"type": "string"
						}
					],
					"payable": false,
					"stateMutability": "view",
					"type": "function"
				},
				{
					"constant": true,
					"inputs": [],
					"name": "getPolicy",
					"outputs": [
						{
							"internalType": "string",
							"name": "",
							"type": "string"
						}
					],
					"payable": false,
					"stateMutability": "view",
					"type": "function"
				},
				{
					"constant": true,
					"inputs": [],
					"name": "getPrice",
					"outputs": [
						{
							"internalType": "string",
							"name": "",
							"type": "string"
						}
					],
					"payable": false,
					"stateMutability": "view",
					"type": "function"
				},
				{
					"constant": true,
					"inputs": [],
					"name": "message",
					"outputs": [
						{
							"internalType": "string",
							"name": "",
							"type": "string"
						}
					],
					"payable": false,
					"stateMutability": "view",
					"type": "function"
				},
				{
					"constant": true,
					"inputs": [],
					"name": "name",
					"outputs": [
						{
							"internalType": "string",
							"name": "",
							"type": "string"
						}
					],
					"payable": false,
					"stateMutability": "view",
					"type": "function"
				},
				{
					"constant": true,
					"inputs": [],
					"name": "phone",
					"outputs": [
						{
							"internalType": "string",
							"name": "",
							"type": "string"
						}
					],
					"payable": false,
					"stateMutability": "view",
					"type": "function"
				},
				{
					"constant": true,
					"inputs": [],
					"name": "policy",
					"outputs": [
						{
							"internalType": "string",
							"name": "",
							"type": "string"
						}
					],
					"payable": false,
					"stateMutability": "view",
					"type": "function"
				},
				{
					"constant": true,
					"inputs": [],
					"name": "price",
					"outputs": [
						{
							"internalType": "string",
							"name": "",
							"type": "string"
						}
					],
					"payable": false,
					"stateMutability": "view",
					"type": "function"
				}
			],
			"devdoc": {
				"methods": {}
			},
			"evm": {
				"assembly": "    /* \"contracts/clientfactory.sol\":108:2279  contract PolicySmartContract {\r... */\n  mstore(0x40, 0x80)\n    /* \"contracts/clientfactory.sol\":1351:1597  constructor(string[] memory _array) public {\r... */\n  callvalue\n    /* \"--CODEGEN--\":8:17   */\n  dup1\n    /* \"--CODEGEN--\":5:7   */\n  iszero\n  tag_1\n  jumpi\n    /* \"--CODEGEN--\":30:31   */\n  0x00\n    /* \"--CODEGEN--\":27:28   */\n  dup1\n    /* \"--CODEGEN--\":20:32   */\n  revert\n    /* \"--CODEGEN--\":5:7   */\ntag_1:\n    /* \"contracts/clientfactory.sol\":1351:1597  constructor(string[] memory _array) public {\r... */\n  pop\n  mload(0x40)\n  sub(codesize, bytecodeSize)\n  dup1\n  bytecodeSize\n  dup4\n  codecopy\n  dup2\n  dup2\n  add\n  0x40\n  mstore\n  tag_2\n  swap2\n  swap1\n  dup2\n  add\n  swap1\n  jump(tag_3)\ntag_2:\n    /* \"contracts/clientfactory.sol\":1413:1419  _array */\n  dup1\n    /* \"contracts/clientfactory.sol\":1420:1421  0 */\n  0x00\n    /* \"contracts/clientfactory.sol\":1413:1422  _array[0] */\n  dup2\n  mload\n  dup2\n  lt\n  tag_6\n  jumpi\n  invalid\ntag_6:\n  0x20\n  mul\n  0x20\n  add\n  add\n  mload\n    /* \"contracts/clientfactory.sol\":1403:1410  message */\n  0x00\n    /* \"contracts/clientfactory.sol\":1403:1422  message = _array[0] */\n  swap1\n  dup1\n  mload\n  swap1\n  0x20\n  add\n  swap1\n  tag_7\n  swap3\n  swap2\n  swap1\n  tag_8\n  jump\t// in\ntag_7:\n  pop\n    /* \"contracts/clientfactory.sol\":1440:1446  _array */\n  dup1\n    /* \"contracts/clientfactory.sol\":1447:1448  1 */\n  0x01\n    /* \"contracts/clientfactory.sol\":1440:1449  _array[1] */\n  dup2\n  mload\n  dup2\n  lt\n  tag_9\n  jumpi\n  invalid\ntag_9:\n  0x20\n  mul\n  0x20\n  add\n  add\n  mload\n    /* \"contracts/clientfactory.sol\":1431:1437  policy */\n  0x01\n    /* \"contracts/clientfactory.sol\":1431:1449  policy = _array[1] */\n  swap1\n  dup1\n  mload\n  swap1\n  0x20\n  add\n  swap1\n  tag_10\n  swap3\n  swap2\n  swap1\n  tag_8\n  jump\t// in\ntag_10:\n  pop\n    /* \"contracts/clientfactory.sol\":1469:1475  _array */\n  dup1\n    /* \"contracts/clientfactory.sol\":1476:1477  2 */\n  0x02\n    /* \"contracts/clientfactory.sol\":1469:1478  _array[2] */\n  dup2\n  mload\n  dup2\n  lt\n  tag_11\n  jumpi\n  invalid\ntag_11:\n  0x20\n  mul\n  0x20\n  add\n  add\n  mload\n    /* \"contracts/clientfactory.sol\":1458:1466  duration */\n  0x02\n    /* \"contracts/clientfactory.sol\":1458:1478  duration = _array[2] */\n  swap1\n  dup1\n  mload\n  swap1\n  0x20\n  add\n  swap1\n  tag_12\n  swap3\n  swap2\n  swap1\n  tag_8\n  jump\t// in\ntag_12:\n  pop\n    /* \"contracts/clientfactory.sol\":1504:1510  _array */\n  dup1\n    /* \"contracts/clientfactory.sol\":1511:1512  3 */\n  0x03\n    /* \"contracts/clientfactory.sol\":1504:1513  _array[3] */\n  dup2\n  mload\n  dup2\n  lt\n  tag_13\n  jumpi\n  invalid\ntag_13:\n  0x20\n  mul\n  0x20\n  add\n  add\n  mload\n    /* \"contracts/clientfactory.sol\":1487:1501  date_of_policy */\n  0x03\n    /* \"contracts/clientfactory.sol\":1487:1513  date_of_policy = _array[3] */\n  swap1\n  dup1\n  mload\n  swap1\n  0x20\n  add\n  swap1\n  tag_14\n  swap3\n  swap2\n  swap1\n  tag_8\n  jump\t// in\ntag_14:\n  pop\n    /* \"contracts/clientfactory.sol\":1530:1536  _array */\n  dup1\n    /* \"contracts/clientfactory.sol\":1537:1538  4 */\n  0x04\n    /* \"contracts/clientfactory.sol\":1530:1539  _array[4] */\n  dup2\n  mload\n  dup2\n  lt\n  tag_15\n  jumpi\n  invalid\ntag_15:\n  0x20\n  mul\n  0x20\n  add\n  add\n  mload\n    /* \"contracts/clientfactory.sol\":1522:1527  phone */\n  0x04\n    /* \"contracts/clientfactory.sol\":1522:1539  phone = _array[4] */\n  swap1\n  dup1\n  mload\n  swap1\n  0x20\n  add\n  swap1\n  tag_16\n  swap3\n  swap2\n  swap1\n  tag_8\n  jump\t// in\ntag_16:\n  pop\n    /* \"contracts/clientfactory.sol\":1555:1561  _array */\n  dup1\n    /* \"contracts/clientfactory.sol\":1562:1563  5 */\n  0x05\n    /* \"contracts/clientfactory.sol\":1555:1564  _array[5] */\n  dup2\n  mload\n  dup2\n  lt\n  tag_17\n  jumpi\n  invalid\ntag_17:\n  0x20\n  mul\n  0x20\n  add\n  add\n  mload\n    /* \"contracts/clientfactory.sol\":1548:1552  name */\n  0x05\n    /* \"contracts/clientfactory.sol\":1548:1564  name = _array[5] */\n  swap1\n  dup1\n  mload\n  swap1\n  0x20\n  add\n  swap1\n  tag_18\n  swap3\n  swap2\n  swap1\n  tag_8\n  jump\t// in\ntag_18:\n  pop\n    /* \"contracts/clientfactory.sol\":1581:1587  _array */\n  dup1\n    /* \"contracts/clientfactory.sol\":1588:1589  6 */\n  0x06\n    /* \"contracts/clientfactory.sol\":1581:1590  _array[6] */\n  dup2\n  mload\n  dup2\n  lt\n  tag_19\n  jumpi\n  invalid\ntag_19:\n  0x20\n  mul\n  0x20\n  add\n  add\n  mload\n    /* \"contracts/clientfactory.sol\":1573:1578  price */\n  0x06\n    /* \"contracts/clientfactory.sol\":1573:1590  price = _array[6] */\n  swap1\n  dup1\n  mload\n  swap1\n  0x20\n  add\n  swap1\n  tag_20\n  swap3\n  swap2\n  swap1\n  tag_8\n  jump\t// in\ntag_20:\n  pop\n    /* \"contracts/clientfactory.sol\":1351:1597  constructor(string[] memory _array) public {\r... */\n  pop\n    /* \"contracts/clientfactory.sol\":108:2279  contract PolicySmartContract {\r... */\n  jump(tag_21)\ntag_8:\n  dup3\n  dup1\n  sload\n  0x01\n  dup2\n  0x01\n  and\n  iszero\n  0x0100\n  mul\n  sub\n  and\n  0x02\n  swap1\n  div\n  swap1\n  0x00\n  mstore\n  keccak256(0x00, 0x20)\n  swap1\n  0x1f\n  add\n  0x20\n  swap1\n  div\n  dup2\n  add\n  swap3\n  dup3\n  0x1f\n  lt\n  tag_23\n  jumpi\n  dup1\n  mload\n  not(0xff)\n  and\n  dup4\n  dup1\n  add\n  or\n  dup6\n  sstore\n  jump(tag_22)\ntag_23:\n  dup3\n  dup1\n  add\n  0x01\n  add\n  dup6\n  sstore\n  dup3\n  iszero\n  tag_22\n  jumpi\n  swap2\n  dup3\n  add\ntag_24:\n  dup3\n  dup2\n  gt\n  iszero\n  tag_25\n  jumpi\n  dup3\n  mload\n  dup3\n  sstore\n  swap2\n  0x20\n  add\n  swap2\n  swap1\n  0x01\n  add\n  swap1\n  jump(tag_24)\ntag_25:\ntag_22:\n  pop\n  swap1\n  pop\n  tag_26\n  swap2\n  swap1\n  tag_27\n  jump\t// in\ntag_26:\n  pop\n  swap1\n  jump\t// out\ntag_27:\n  tag_28\n  swap2\n  swap1\ntag_29:\n  dup1\n  dup3\n  gt\n  iszero\n  tag_30\n  jumpi\n  0x00\n  dup2\n  0x00\n  swap1\n  sstore\n  pop\n  0x01\n  add\n  jump(tag_29)\ntag_30:\n  pop\n  swap1\n  jump\ntag_28:\n  swap1\n  jump\t// out\n    /* \"--CODEGEN--\":22:726   */\ntag_32:\n  0x00\n    /* \"--CODEGEN--\":156:159   */\n  dup3\n    /* \"--CODEGEN--\":149:153   */\n  0x1f\n    /* \"--CODEGEN--\":141:147   */\n  dup4\n    /* \"--CODEGEN--\":137:154   */\n  add\n    /* \"--CODEGEN--\":133:160   */\n  slt\n    /* \"--CODEGEN--\":123:125   */\n  tag_33\n  jumpi\n    /* \"--CODEGEN--\":174:175   */\n  0x00\n    /* \"--CODEGEN--\":171:172   */\n  dup1\n    /* \"--CODEGEN--\":164:176   */\n  revert\n    /* \"--CODEGEN--\":123:125   */\ntag_33:\n    /* \"--CODEGEN--\":204:210   */\n  dup2\n    /* \"--CODEGEN--\":198:211   */\n  mload\n    /* \"--CODEGEN--\":226:312   */\n  tag_34\n    /* \"--CODEGEN--\":241:311   */\n  tag_35\n    /* \"--CODEGEN--\":304:310   */\n  dup3\n    /* \"--CODEGEN--\":241:311   */\n  jump(tag_36)\ntag_35:\n    /* \"--CODEGEN--\":226:312   */\n  jump(tag_37)\ntag_34:\n    /* \"--CODEGEN--\":217:312   */\n  swap2\n  pop\n    /* \"--CODEGEN--\":329:334   */\n  dup2\n    /* \"--CODEGEN--\":354:360   */\n  dup2\n    /* \"--CODEGEN--\":347:352   */\n  dup4\n    /* \"--CODEGEN--\":340:361   */\n  mstore\n    /* \"--CODEGEN--\":384:388   */\n  0x20\n    /* \"--CODEGEN--\":376:382   */\n  dup5\n    /* \"--CODEGEN--\":372:389   */\n  add\n    /* \"--CODEGEN--\":362:389   */\n  swap4\n  pop\n    /* \"--CODEGEN--\":406:410   */\n  0x20\n    /* \"--CODEGEN--\":401:404   */\n  dup2\n    /* \"--CODEGEN--\":397:411   */\n  add\n    /* \"--CODEGEN--\":390:411   */\n  swap1\n  pop\n    /* \"--CODEGEN--\":459:465   */\n  dup4\n    /* \"--CODEGEN--\":492:493   */\n  0x00\n    /* \"--CODEGEN--\":477:720   */\ntag_38:\n    /* \"--CODEGEN--\":502:508   */\n  dup4\n    /* \"--CODEGEN--\":499:500   */\n  dup2\n    /* \"--CODEGEN--\":496:509   */\n  lt\n    /* \"--CODEGEN--\":477:720   */\n  iszero\n  tag_40\n  jumpi\n    /* \"--CODEGEN--\":578:581   */\n  dup2\n    /* \"--CODEGEN--\":572:582   */\n  mload\n    /* \"--CODEGEN--\":564:570   */\n  dup7\n    /* \"--CODEGEN--\":560:583   */\n  add\n    /* \"--CODEGEN--\":602:656   */\n  tag_41\n    /* \"--CODEGEN--\":652:655   */\n  dup9\n    /* \"--CODEGEN--\":640:650   */\n  dup3\n    /* \"--CODEGEN--\":602:656   */\n  jump(tag_42)\ntag_41:\n    /* \"--CODEGEN--\":597:600   */\n  dup5\n    /* \"--CODEGEN--\":590:657   */\n  mstore\n    /* \"--CODEGEN--\":680:684   */\n  0x20\n    /* \"--CODEGEN--\":675:678   */\n  dup5\n    /* \"--CODEGEN--\":671:685   */\n  add\n    /* \"--CODEGEN--\":664:685   */\n  swap4\n  pop\n    /* \"--CODEGEN--\":708:712   */\n  0x20\n    /* \"--CODEGEN--\":703:706   */\n  dup4\n    /* \"--CODEGEN--\":699:713   */\n  add\n    /* \"--CODEGEN--\":692:713   */\n  swap3\n  pop\n    /* \"--CODEGEN--\":534:720   */\n  pop\n    /* \"--CODEGEN--\":524:525   */\n  0x01\n    /* \"--CODEGEN--\":521:522   */\n  dup2\n    /* \"--CODEGEN--\":517:526   */\n  add\n    /* \"--CODEGEN--\":512:526   */\n  swap1\n  pop\n    /* \"--CODEGEN--\":477:720   */\n  jump(tag_38)\ntag_40:\n    /* \"--CODEGEN--\":481:495   */\n  pop\n    /* \"--CODEGEN--\":116:726   */\n  pop\n  pop\n  pop\n  swap3\n  swap2\n  pop\n  pop\n  jump\n    /* \"--CODEGEN--\":735:1171   */\ntag_42:\n  0x00\n    /* \"--CODEGEN--\":844:847   */\n  dup3\n    /* \"--CODEGEN--\":837:841   */\n  0x1f\n    /* \"--CODEGEN--\":829:835   */\n  dup4\n    /* \"--CODEGEN--\":825:842   */\n  add\n    /* \"--CODEGEN--\":821:848   */\n  slt\n    /* \"--CODEGEN--\":811:813   */\n  tag_43\n  jumpi\n    /* \"--CODEGEN--\":862:863   */\n  0x00\n    /* \"--CODEGEN--\":859:860   */\n  dup1\n    /* \"--CODEGEN--\":852:864   */\n  revert\n    /* \"--CODEGEN--\":811:813   */\ntag_43:\n    /* \"--CODEGEN--\":892:898   */\n  dup2\n    /* \"--CODEGEN--\":886:899   */\n  mload\n    /* \"--CODEGEN--\":914:975   */\n  tag_44\n    /* \"--CODEGEN--\":929:974   */\n  tag_45\n    /* \"--CODEGEN--\":967:973   */\n  dup3\n    /* \"--CODEGEN--\":929:974   */\n  jump(tag_46)\ntag_45:\n    /* \"--CODEGEN--\":914:975   */\n  jump(tag_37)\ntag_44:\n    /* \"--CODEGEN--\":905:975   */\n  swap2\n  pop\n    /* \"--CODEGEN--\":995:1001   */\n  dup1\n    /* \"--CODEGEN--\":988:993   */\n  dup3\n    /* \"--CODEGEN--\":981:1002   */\n  mstore\n    /* \"--CODEGEN--\":1031:1035   */\n  0x20\n    /* \"--CODEGEN--\":1023:1029   */\n  dup4\n    /* \"--CODEGEN--\":1019:1036   */\n  add\n    /* \"--CODEGEN--\":1064:1068   */\n  0x20\n    /* \"--CODEGEN--\":1057:1062   */\n  dup4\n    /* \"--CODEGEN--\":1053:1069   */\n  add\n    /* \"--CODEGEN--\":1099:1102   */\n  dup6\n    /* \"--CODEGEN--\":1090:1096   */\n  dup4\n    /* \"--CODEGEN--\":1085:1088   */\n  dup4\n    /* \"--CODEGEN--\":1081:1097   */\n  add\n    /* \"--CODEGEN--\":1078:1103   */\n  gt\n    /* \"--CODEGEN--\":1075:1077   */\n  iszero\n  tag_47\n  jumpi\n    /* \"--CODEGEN--\":1116:1117   */\n  0x00\n    /* \"--CODEGEN--\":1113:1114   */\n  dup1\n    /* \"--CODEGEN--\":1106:1118   */\n  revert\n    /* \"--CODEGEN--\":1075:1077   */\ntag_47:\n    /* \"--CODEGEN--\":1126:1165   */\n  tag_48\n    /* \"--CODEGEN--\":1158:1164   */\n  dup4\n    /* \"--CODEGEN--\":1153:1156   */\n  dup3\n    /* \"--CODEGEN--\":1148:1151   */\n  dup5\n    /* \"--CODEGEN--\":1126:1165   */\n  jump(tag_49)\ntag_48:\n    /* \"--CODEGEN--\":804:1171   */\n  pop\n  pop\n  pop\n  swap3\n  swap2\n  pop\n  pop\n  jump\n    /* \"--CODEGEN--\":1179:1583   */\ntag_3:\n  0x00\n    /* \"--CODEGEN--\":1325:1327   */\n  0x20\n    /* \"--CODEGEN--\":1313:1322   */\n  dup3\n    /* \"--CODEGEN--\":1304:1311   */\n  dup5\n    /* \"--CODEGEN--\":1300:1323   */\n  sub\n    /* \"--CODEGEN--\":1296:1328   */\n  slt\n    /* \"--CODEGEN--\":1293:1295   */\n  iszero\n  tag_50\n  jumpi\n    /* \"--CODEGEN--\":1341:1342   */\n  0x00\n    /* \"--CODEGEN--\":1338:1339   */\n  dup1\n    /* \"--CODEGEN--\":1331:1343   */\n  revert\n    /* \"--CODEGEN--\":1293:1295   */\ntag_50:\n    /* \"--CODEGEN--\":1397:1398   */\n  0x00\n    /* \"--CODEGEN--\":1386:1395   */\n  dup3\n    /* \"--CODEGEN--\":1382:1399   */\n  add\n    /* \"--CODEGEN--\":1376:1400   */\n  mload\n    /* \"--CODEGEN--\":1420:1438   */\n  0xffffffffffffffff\n    /* \"--CODEGEN--\":1412:1418   */\n  dup2\n    /* \"--CODEGEN--\":1409:1439   */\n  gt\n    /* \"--CODEGEN--\":1406:1408   */\n  iszero\n  tag_51\n  jumpi\n    /* \"--CODEGEN--\":1452:1453   */\n  0x00\n    /* \"--CODEGEN--\":1449:1450   */\n  dup1\n    /* \"--CODEGEN--\":1442:1454   */\n  revert\n    /* \"--CODEGEN--\":1406:1408   */\ntag_51:\n    /* \"--CODEGEN--\":1472:1567   */\n  tag_52\n    /* \"--CODEGEN--\":1559:1566   */\n  dup5\n    /* \"--CODEGEN--\":1550:1556   */\n  dup3\n    /* \"--CODEGEN--\":1539:1548   */\n  dup6\n    /* \"--CODEGEN--\":1535:1557   */\n  add\n    /* \"--CODEGEN--\":1472:1567   */\n  jump(tag_32)\ntag_52:\n    /* \"--CODEGEN--\":1462:1567   */\n  swap2\n  pop\n    /* \"--CODEGEN--\":1355:1573   */\n  pop\n    /* \"--CODEGEN--\":1287:1583   */\n  swap3\n  swap2\n  pop\n  pop\n  jump\n    /* \"--CODEGEN--\":1590:1846   */\ntag_37:\n  0x00\n    /* \"--CODEGEN--\":1652:1654   */\n  0x40\n    /* \"--CODEGEN--\":1646:1655   */\n  mload\n    /* \"--CODEGEN--\":1636:1655   */\n  swap1\n  pop\n    /* \"--CODEGEN--\":1690:1694   */\n  dup2\n    /* \"--CODEGEN--\":1682:1688   */\n  dup2\n    /* \"--CODEGEN--\":1678:1695   */\n  add\n    /* \"--CODEGEN--\":1789:1795   */\n  dup2\n    /* \"--CODEGEN--\":1777:1787   */\n  dup2\n    /* \"--CODEGEN--\":1774:1796   */\n  lt\n    /* \"--CODEGEN--\":1753:1771   */\n  0xffffffffffffffff\n    /* \"--CODEGEN--\":1741:1751   */\n  dup3\n    /* \"--CODEGEN--\":1738:1772   */\n  gt\n    /* \"--CODEGEN--\":1735:1797   */\n  or\n    /* \"--CODEGEN--\":1732:1734   */\n  iszero\n  tag_53\n  jumpi\n    /* \"--CODEGEN--\":1810:1811   */\n  0x00\n    /* \"--CODEGEN--\":1807:1808   */\n  dup1\n    /* \"--CODEGEN--\":1800:1812   */\n  revert\n    /* \"--CODEGEN--\":1732:1734   */\ntag_53:\n    /* \"--CODEGEN--\":1830:1840   */\n  dup1\n    /* \"--CODEGEN--\":1826:1828   */\n  0x40\n    /* \"--CODEGEN--\":1819:1841   */\n  mstore\n    /* \"--CODEGEN--\":1630:1846   */\n  pop\n  swap2\n  swap1\n  pop\n  jump\n    /* \"--CODEGEN--\":1853:2163   */\ntag_36:\n  0x00\n    /* \"--CODEGEN--\":2018:2036   */\n  0xffffffffffffffff\n    /* \"--CODEGEN--\":2010:2016   */\n  dup3\n    /* \"--CODEGEN--\":2007:2037   */\n  gt\n    /* \"--CODEGEN--\":2004:2006   */\n  iszero\n  tag_54\n  jumpi\n    /* \"--CODEGEN--\":2050:2051   */\n  0x00\n    /* \"--CODEGEN--\":2047:2048   */\n  dup1\n    /* \"--CODEGEN--\":2040:2052   */\n  revert\n    /* \"--CODEGEN--\":2004:2006   */\ntag_54:\n    /* \"--CODEGEN--\":2085:2089   */\n  0x20\n    /* \"--CODEGEN--\":2077:2083   */\n  dup3\n    /* \"--CODEGEN--\":2073:2090   */\n  mul\n    /* \"--CODEGEN--\":2065:2090   */\n  swap1\n  pop\n    /* \"--CODEGEN--\":2148:2152   */\n  0x20\n    /* \"--CODEGEN--\":2142:2146   */\n  dup2\n    /* \"--CODEGEN--\":2138:2153   */\n  add\n    /* \"--CODEGEN--\":2130:2153   */\n  swap1\n  pop\n    /* \"--CODEGEN--\":1941:2163   */\n  swap2\n  swap1\n  pop\n  jump\n    /* \"--CODEGEN--\":2170:2488   */\ntag_46:\n  0x00\n    /* \"--CODEGEN--\":2310:2328   */\n  0xffffffffffffffff\n    /* \"--CODEGEN--\":2302:2308   */\n  dup3\n    /* \"--CODEGEN--\":2299:2329   */\n  gt\n    /* \"--CODEGEN--\":2296:2298   */\n  iszero\n  tag_55\n  jumpi\n    /* \"--CODEGEN--\":2342:2343   */\n  0x00\n    /* \"--CODEGEN--\":2339:2340   */\n  dup1\n    /* \"--CODEGEN--\":2332:2344   */\n  revert\n    /* \"--CODEGEN--\":2296:2298   */\ntag_55:\n    /* \"--CODEGEN--\":2409:2413   */\n  0x1f\n    /* \"--CODEGEN--\":2405:2414   */\n  not\n    /* \"--CODEGEN--\":2398:2402   */\n  0x1f\n    /* \"--CODEGEN--\":2390:2396   */\n  dup4\n    /* \"--CODEGEN--\":2386:2403   */\n  add\n    /* \"--CODEGEN--\":2382:2415   */\n  and\n    /* \"--CODEGEN--\":2374:2415   */\n  swap1\n  pop\n    /* \"--CODEGEN--\":2473:2477   */\n  0x20\n    /* \"--CODEGEN--\":2467:2471   */\n  dup2\n    /* \"--CODEGEN--\":2463:2478   */\n  add\n    /* \"--CODEGEN--\":2455:2478   */\n  swap1\n  pop\n    /* \"--CODEGEN--\":2233:2488   */\n  swap2\n  swap1\n  pop\n  jump\n    /* \"--CODEGEN--\":2496:2764   */\ntag_49:\n    /* \"--CODEGEN--\":2561:2562   */\n  0x00\n    /* \"--CODEGEN--\":2568:2669   */\ntag_56:\n    /* \"--CODEGEN--\":2582:2588   */\n  dup4\n    /* \"--CODEGEN--\":2579:2580   */\n  dup2\n    /* \"--CODEGEN--\":2576:2589   */\n  lt\n    /* \"--CODEGEN--\":2568:2669   */\n  iszero\n  tag_58\n  jumpi\n    /* \"--CODEGEN--\":2658:2659   */\n  dup1\n    /* \"--CODEGEN--\":2653:2656   */\n  dup3\n    /* \"--CODEGEN--\":2649:2660   */\n  add\n    /* \"--CODEGEN--\":2643:2661   */\n  mload\n    /* \"--CODEGEN--\":2639:2640   */\n  dup2\n    /* \"--CODEGEN--\":2634:2637   */\n  dup5\n    /* \"--CODEGEN--\":2630:2641   */\n  add\n    /* \"--CODEGEN--\":2623:2662   */\n  mstore\n    /* \"--CODEGEN--\":2604:2606   */\n  0x20\n    /* \"--CODEGEN--\":2601:2602   */\n  dup2\n    /* \"--CODEGEN--\":2597:2607   */\n  add\n    /* \"--CODEGEN--\":2592:2607   */\n  swap1\n  pop\n    /* \"--CODEGEN--\":2568:2669   */\n  jump(tag_56)\ntag_58:\n    /* \"--CODEGEN--\":2684:2690   */\n  dup4\n    /* \"--CODEGEN--\":2681:2682   */\n  dup2\n    /* \"--CODEGEN--\":2678:2691   */\n  gt\n    /* \"--CODEGEN--\":2675:2677   */\n  iszero\n  tag_59\n  jumpi\n    /* \"--CODEGEN--\":2749:2750   */\n  0x00\n    /* \"--CODEGEN--\":2740:2746   */\n  dup5\n    /* \"--CODEGEN--\":2735:2738   */\n  dup5\n    /* \"--CODEGEN--\":2731:2747   */\n  add\n    /* \"--CODEGEN--\":2724:2751   */\n  mstore\n    /* \"--CODEGEN--\":2675:2677   */\ntag_59:\n    /* \"--CODEGEN--\":2545:2764   */\n  pop\n  pop\n  pop\n  pop\n  jump\n    /* \"contracts/clientfactory.sol\":108:2279  contract PolicySmartContract {\r... */\ntag_21:\n  dataSize(sub_0)\n  dup1\n  dataOffset(sub_0)\n  0x00\n  codecopy\n  0x00\n  return\nstop\n\nsub_0: assembly {\n        /* \"contracts/clientfactory.sol\":108:2279  contract PolicySmartContract {\r... */\n      mstore(0x40, 0x80)\n      callvalue\n        /* \"--CODEGEN--\":8:17   */\n      dup1\n        /* \"--CODEGEN--\":5:7   */\n      iszero\n      tag_1\n      jumpi\n        /* \"--CODEGEN--\":30:31   */\n      0x00\n        /* \"--CODEGEN--\":27:28   */\n      dup1\n        /* \"--CODEGEN--\":20:32   */\n      revert\n        /* \"--CODEGEN--\":5:7   */\n    tag_1:\n        /* \"contracts/clientfactory.sol\":108:2279  contract PolicySmartContract {\r... */\n      pop\n      jumpi(tag_2, lt(calldatasize, 0x04))\n      shr(0xe0, calldataload(0x00))\n      dup1\n      0x98d5fdca\n      gt\n      tag_17\n      jumpi\n      dup1\n      0xad2e8c9b\n      gt\n      tag_18\n      jumpi\n      dup1\n      0xad2e8c9b\n      eq\n      tag_13\n      jumpi\n      dup1\n      0xc4382fa6\n      eq\n      tag_14\n      jumpi\n      dup1\n      0xce1e4626\n      eq\n      tag_15\n      jumpi\n      dup1\n      0xe21f37ce\n      eq\n      tag_16\n      jumpi\n      jump(tag_2)\n    tag_18:\n      dup1\n      0x98d5fdca\n      eq\n      tag_10\n      jumpi\n      dup1\n      0xa035b1fe\n      eq\n      tag_11\n      jumpi\n      dup1\n      0xaa3c542d\n      eq\n      tag_12\n      jumpi\n      jump(tag_2)\n    tag_17:\n      dup1\n      0x17d7de7c\n      gt\n      tag_19\n      jumpi\n      dup1\n      0x17d7de7c\n      eq\n      tag_6\n      jumpi\n      dup1\n      0x20bdd61d\n      eq\n      tag_7\n      jumpi\n      dup1\n      0x8863bab0\n      eq\n      tag_8\n      jumpi\n      dup1\n      0x9284f497\n      eq\n      tag_9\n      jumpi\n      jump(tag_2)\n    tag_19:\n      dup1\n      0x0505c8c9\n      eq\n      tag_3\n      jumpi\n      dup1\n      0x06fdde03\n      eq\n      tag_4\n      jumpi\n      dup1\n      0x0fb5a6b4\n      eq\n      tag_5\n      jumpi\n    tag_2:\n      0x00\n      dup1\n      revert\n        /* \"contracts/clientfactory.sol\":887:907  string public policy */\n    tag_3:\n      tag_20\n      tag_21\n      jump\t// in\n    tag_20:\n      mload(0x40)\n      tag_22\n      swap2\n      swap1\n      jump(tag_23)\n    tag_22:\n      mload(0x40)\n      dup1\n      swap2\n      sub\n      swap1\n      return\n        /* \"contracts/clientfactory.sol\":1000:1018  string public name */\n    tag_4:\n      tag_24\n      tag_25\n      jump\t// in\n    tag_24:\n      mload(0x40)\n      tag_26\n      swap2\n      swap1\n      jump(tag_23)\n    tag_26:\n      mload(0x40)\n      dup1\n      swap2\n      sub\n      swap1\n      return\n        /* \"contracts/clientfactory.sol\":913:935  string public duration */\n    tag_5:\n      tag_27\n      tag_28\n      jump\t// in\n    tag_27:\n      mload(0x40)\n      tag_29\n      swap2\n      swap1\n      jump(tag_23)\n    tag_29:\n      mload(0x40)\n      dup1\n      swap2\n      sub\n      swap1\n      return\n        /* \"contracts/clientfactory.sol\":2099:2182  function getName() view public returns (string memory) {\r... */\n    tag_6:\n      tag_30\n      tag_31\n      jump\t// in\n    tag_30:\n      mload(0x40)\n      tag_32\n      swap2\n      swap1\n      jump(tag_33)\n    tag_32:\n      mload(0x40)\n      dup1\n      swap2\n      sub\n      swap1\n      return\n        /* \"contracts/clientfactory.sol\":1897:2000  function getDate_of_policy() view public returns (string memory) {\r... */\n    tag_7:\n      tag_34\n      tag_35\n      jump\t// in\n    tag_34:\n      mload(0x40)\n      tag_36\n      swap2\n      swap1\n      jump(tag_33)\n    tag_36:\n      mload(0x40)\n      dup1\n      swap2\n      sub\n      swap1\n      return\n        /* \"contracts/clientfactory.sol\":2007:2092  function getPhone() view public returns (string memory) {\r... */\n    tag_8:\n      tag_37\n      tag_38\n      jump\t// in\n    tag_37:\n      mload(0x40)\n      tag_39\n      swap2\n      swap1\n      jump(tag_33)\n    tag_39:\n      mload(0x40)\n      dup1\n      swap2\n      sub\n      swap1\n      return\n        /* \"contracts/clientfactory.sol\":975:994  string public phone */\n    tag_9:\n      tag_40\n      tag_41\n      jump\t// in\n    tag_40:\n      mload(0x40)\n      tag_42\n      swap2\n      swap1\n      jump(tag_23)\n    tag_42:\n      mload(0x40)\n      dup1\n      swap2\n      sub\n      swap1\n      return\n        /* \"contracts/clientfactory.sol\":2189:2274  function getPrice() view public returns (string memory) {\r... */\n    tag_10:\n      tag_43\n      tag_44\n      jump\t// in\n    tag_43:\n      mload(0x40)\n      tag_45\n      swap2\n      swap1\n      jump(tag_33)\n    tag_45:\n      mload(0x40)\n      dup1\n      swap2\n      sub\n      swap1\n      return\n        /* \"contracts/clientfactory.sol\":1024:1043  string public price */\n    tag_11:\n      tag_46\n      tag_47\n      jump\t// in\n    tag_46:\n      mload(0x40)\n      tag_48\n      swap2\n      swap1\n      jump(tag_23)\n    tag_48:\n      mload(0x40)\n      dup1\n      swap2\n      sub\n      swap1\n      return\n        /* \"contracts/clientfactory.sol\":941:969  string public date_of_policy */\n    tag_12:\n      tag_49\n      tag_50\n      jump\t// in\n    tag_49:\n      mload(0x40)\n      tag_51\n      swap2\n      swap1\n      jump(tag_23)\n    tag_51:\n      mload(0x40)\n      dup1\n      swap2\n      sub\n      swap1\n      return\n        /* \"contracts/clientfactory.sol\":1799:1890  function getDuration() view public returns (string memory) {\r... */\n    tag_13:\n      tag_52\n      tag_53\n      jump\t// in\n    tag_52:\n      mload(0x40)\n      tag_54\n      swap2\n      swap1\n      jump(tag_33)\n    tag_54:\n      mload(0x40)\n      dup1\n      swap2\n      sub\n      swap1\n      return\n        /* \"contracts/clientfactory.sol\":1604:1698  function getEmailAddress() view public returns (string memory) {\r... */\n    tag_14:\n      tag_55\n      tag_56\n      jump\t// in\n    tag_55:\n      mload(0x40)\n      tag_57\n      swap2\n      swap1\n      jump(tag_33)\n    tag_57:\n      mload(0x40)\n      dup1\n      swap2\n      sub\n      swap1\n      return\n        /* \"contracts/clientfactory.sol\":1705:1792  function getPolicy() view public returns (string memory) {\r... */\n    tag_15:\n      tag_58\n      tag_59\n      jump\t// in\n    tag_58:\n      mload(0x40)\n      tag_60\n      swap2\n      swap1\n      jump(tag_33)\n    tag_60:\n      mload(0x40)\n      dup1\n      swap2\n      sub\n      swap1\n      return\n        /* \"contracts/clientfactory.sol\":860:881  string public message */\n    tag_16:\n      tag_61\n      tag_62\n      jump\t// in\n    tag_61:\n      mload(0x40)\n      tag_63\n      swap2\n      swap1\n      jump(tag_23)\n    tag_63:\n      mload(0x40)\n      dup1\n      swap2\n      sub\n      swap1\n      return\n        /* \"contracts/clientfactory.sol\":887:907  string public policy */\n    tag_21:\n      0x01\n      dup1\n      sload\n      0x01\n      dup2\n      0x01\n      and\n      iszero\n      0x0100\n      mul\n      sub\n      and\n      0x02\n      swap1\n      div\n      dup1\n      0x1f\n      add\n      0x20\n      dup1\n      swap2\n      div\n      mul\n      0x20\n      add\n      mload(0x40)\n      swap1\n      dup2\n      add\n      0x40\n      mstore\n      dup1\n      swap3\n      swap2\n      swap1\n      dup2\n      dup2\n      mstore\n      0x20\n      add\n      dup3\n      dup1\n      sload\n      0x01\n      dup2\n      0x01\n      and\n      iszero\n      0x0100\n      mul\n      sub\n      and\n      0x02\n      swap1\n      div\n      dup1\n      iszero\n      tag_64\n      jumpi\n      dup1\n      0x1f\n      lt\n      tag_65\n      jumpi\n      0x0100\n      dup1\n      dup4\n      sload\n      div\n      mul\n      dup4\n      mstore\n      swap2\n      0x20\n      add\n      swap2\n      jump(tag_64)\n    tag_65:\n      dup3\n      add\n      swap2\n      swap1\n      0x00\n      mstore\n      keccak256(0x00, 0x20)\n      swap1\n    tag_66:\n      dup2\n      sload\n      dup2\n      mstore\n      swap1\n      0x01\n      add\n      swap1\n      0x20\n      add\n      dup1\n      dup4\n      gt\n      tag_66\n      jumpi\n      dup3\n      swap1\n      sub\n      0x1f\n      and\n      dup3\n      add\n      swap2\n    tag_64:\n      pop\n      pop\n      pop\n      pop\n      pop\n      dup2\n      jump\t// out\n        /* \"contracts/clientfactory.sol\":1000:1018  string public name */\n    tag_25:\n      0x05\n      dup1\n      sload\n      0x01\n      dup2\n      0x01\n      and\n      iszero\n      0x0100\n      mul\n      sub\n      and\n      0x02\n      swap1\n      div\n      dup1\n      0x1f\n      add\n      0x20\n      dup1\n      swap2\n      div\n      mul\n      0x20\n      add\n      mload(0x40)\n      swap1\n      dup2\n      add\n      0x40\n      mstore\n      dup1\n      swap3\n      swap2\n      swap1\n      dup2\n      dup2\n      mstore\n      0x20\n      add\n      dup3\n      dup1\n      sload\n      0x01\n      dup2\n      0x01\n      and\n      iszero\n      0x0100\n      mul\n      sub\n      and\n      0x02\n      swap1\n      div\n      dup1\n      iszero\n      tag_67\n      jumpi\n      dup1\n      0x1f\n      lt\n      tag_68\n      jumpi\n      0x0100\n      dup1\n      dup4\n      sload\n      div\n      mul\n      dup4\n      mstore\n      swap2\n      0x20\n      add\n      swap2\n      jump(tag_67)\n    tag_68:\n      dup3\n      add\n      swap2\n      swap1\n      0x00\n      mstore\n      keccak256(0x00, 0x20)\n      swap1\n    tag_69:\n      dup2\n      sload\n      dup2\n      mstore\n      swap1\n      0x01\n      add\n      swap1\n      0x20\n      add\n      dup1\n      dup4\n      gt\n      tag_69\n      jumpi\n      dup3\n      swap1\n      sub\n      0x1f\n      and\n      dup3\n      add\n      swap2\n    tag_67:\n      pop\n      pop\n      pop\n      pop\n      pop\n      dup2\n      jump\t// out\n        /* \"contracts/clientfactory.sol\":913:935  string public duration */\n    tag_28:\n      0x02\n      dup1\n      sload\n      0x01\n      dup2\n      0x01\n      and\n      iszero\n      0x0100\n      mul\n      sub\n      and\n      0x02\n      swap1\n      div\n      dup1\n      0x1f\n      add\n      0x20\n      dup1\n      swap2\n      div\n      mul\n      0x20\n      add\n      mload(0x40)\n      swap1\n      dup2\n      add\n      0x40\n      mstore\n      dup1\n      swap3\n      swap2\n      swap1\n      dup2\n      dup2\n      mstore\n      0x20\n      add\n      dup3\n      dup1\n      sload\n      0x01\n      dup2\n      0x01\n      and\n      iszero\n      0x0100\n      mul\n      sub\n      and\n      0x02\n      swap1\n      div\n      dup1\n      iszero\n      tag_70\n      jumpi\n      dup1\n      0x1f\n      lt\n      tag_71\n      jumpi\n      0x0100\n      dup1\n      dup4\n      sload\n      div\n      mul\n      dup4\n      mstore\n      swap2\n      0x20\n      add\n      swap2\n      jump(tag_70)\n    tag_71:\n      dup3\n      add\n      swap2\n      swap1\n      0x00\n      mstore\n      keccak256(0x00, 0x20)\n      swap1\n    tag_72:\n      dup2\n      sload\n      dup2\n      mstore\n      swap1\n      0x01\n      add\n      swap1\n      0x20\n      add\n      dup1\n      dup4\n      gt\n      tag_72\n      jumpi\n      dup3\n      swap1\n      sub\n      0x1f\n      and\n      dup3\n      add\n      swap2\n    tag_70:\n      pop\n      pop\n      pop\n      pop\n      pop\n      dup2\n      jump\t// out\n        /* \"contracts/clientfactory.sol\":2099:2182  function getName() view public returns (string memory) {\r... */\n    tag_31:\n        /* \"contracts/clientfactory.sol\":2139:2152  string memory */\n      0x60\n        /* \"contracts/clientfactory.sol\":2171:2175  name */\n      0x05\n        /* \"contracts/clientfactory.sol\":2164:2175  return name */\n      dup1\n      sload\n      0x01\n      dup2\n      0x01\n      and\n      iszero\n      0x0100\n      mul\n      sub\n      and\n      0x02\n      swap1\n      div\n      dup1\n      0x1f\n      add\n      0x20\n      dup1\n      swap2\n      div\n      mul\n      0x20\n      add\n      mload(0x40)\n      swap1\n      dup2\n      add\n      0x40\n      mstore\n      dup1\n      swap3\n      swap2\n      swap1\n      dup2\n      dup2\n      mstore\n      0x20\n      add\n      dup3\n      dup1\n      sload\n      0x01\n      dup2\n      0x01\n      and\n      iszero\n      0x0100\n      mul\n      sub\n      and\n      0x02\n      swap1\n      div\n      dup1\n      iszero\n      tag_74\n      jumpi\n      dup1\n      0x1f\n      lt\n      tag_75\n      jumpi\n      0x0100\n      dup1\n      dup4\n      sload\n      div\n      mul\n      dup4\n      mstore\n      swap2\n      0x20\n      add\n      swap2\n      jump(tag_74)\n    tag_75:\n      dup3\n      add\n      swap2\n      swap1\n      0x00\n      mstore\n      keccak256(0x00, 0x20)\n      swap1\n    tag_76:\n      dup2\n      sload\n      dup2\n      mstore\n      swap1\n      0x01\n      add\n      swap1\n      0x20\n      add\n      dup1\n      dup4\n      gt\n      tag_76\n      jumpi\n      dup3\n      swap1\n      sub\n      0x1f\n      and\n      dup3\n      add\n      swap2\n    tag_74:\n      pop\n      pop\n      pop\n      pop\n      pop\n      swap1\n      pop\n        /* \"contracts/clientfactory.sol\":2099:2182  function getName() view public returns (string memory) {\r... */\n      swap1\n      jump\t// out\n        /* \"contracts/clientfactory.sol\":1897:2000  function getDate_of_policy() view public returns (string memory) {\r... */\n    tag_35:\n        /* \"contracts/clientfactory.sol\":1947:1960  string memory */\n      0x60\n        /* \"contracts/clientfactory.sol\":1979:1993  date_of_policy */\n      0x03\n        /* \"contracts/clientfactory.sol\":1972:1993  return date_of_policy */\n      dup1\n      sload\n      0x01\n      dup2\n      0x01\n      and\n      iszero\n      0x0100\n      mul\n      sub\n      and\n      0x02\n      swap1\n      div\n      dup1\n      0x1f\n      add\n      0x20\n      dup1\n      swap2\n      div\n      mul\n      0x20\n      add\n      mload(0x40)\n      swap1\n      dup2\n      add\n      0x40\n      mstore\n      dup1\n      swap3\n      swap2\n      swap1\n      dup2\n      dup2\n      mstore\n      0x20\n      add\n      dup3\n      dup1\n      sload\n      0x01\n      dup2\n      0x01\n      and\n      iszero\n      0x0100\n      mul\n      sub\n      and\n      0x02\n      swap1\n      div\n      dup1\n      iszero\n      tag_78\n      jumpi\n      dup1\n      0x1f\n      lt\n      tag_79\n      jumpi\n      0x0100\n      dup1\n      dup4\n      sload\n      div\n      mul\n      dup4\n      mstore\n      swap2\n      0x20\n      add\n      swap2\n      jump(tag_78)\n    tag_79:\n      dup3\n      add\n      swap2\n      swap1\n      0x00\n      mstore\n      keccak256(0x00, 0x20)\n      swap1\n    tag_80:\n      dup2\n      sload\n      dup2\n      mstore\n      swap1\n      0x01\n      add\n      swap1\n      0x20\n      add\n      dup1\n      dup4\n      gt\n      tag_80\n      jumpi\n      dup3\n      swap1\n      sub\n      0x1f\n      and\n      dup3\n      add\n      swap2\n    tag_78:\n      pop\n      pop\n      pop\n      pop\n      pop\n      swap1\n      pop\n        /* \"contracts/clientfactory.sol\":1897:2000  function getDate_of_policy() view public returns (string memory) {\r... */\n      swap1\n      jump\t// out\n        /* \"contracts/clientfactory.sol\":2007:2092  function getPhone() view public returns (string memory) {\r... */\n    tag_38:\n        /* \"contracts/clientfactory.sol\":2048:2061  string memory */\n      0x60\n        /* \"contracts/clientfactory.sol\":2080:2085  phone */\n      0x04\n        /* \"contracts/clientfactory.sol\":2073:2085  return phone */\n      dup1\n      sload\n      0x01\n      dup2\n      0x01\n      and\n      iszero\n      0x0100\n      mul\n      sub\n      and\n      0x02\n      swap1\n      div\n      dup1\n      0x1f\n      add\n      0x20\n      dup1\n      swap2\n      div\n      mul\n      0x20\n      add\n      mload(0x40)\n      swap1\n      dup2\n      add\n      0x40\n      mstore\n      dup1\n      swap3\n      swap2\n      swap1\n      dup2\n      dup2\n      mstore\n      0x20\n      add\n      dup3\n      dup1\n      sload\n      0x01\n      dup2\n      0x01\n      and\n      iszero\n      0x0100\n      mul\n      sub\n      and\n      0x02\n      swap1\n      div\n      dup1\n      iszero\n      tag_82\n      jumpi\n      dup1\n      0x1f\n      lt\n      tag_83\n      jumpi\n      0x0100\n      dup1\n      dup4\n      sload\n      div\n      mul\n      dup4\n      mstore\n      swap2\n      0x20\n      add\n      swap2\n      jump(tag_82)\n    tag_83:\n      dup3\n      add\n      swap2\n      swap1\n      0x00\n      mstore\n      keccak256(0x00, 0x20)\n      swap1\n    tag_84:\n      dup2\n      sload\n      dup2\n      mstore\n      swap1\n      0x01\n      add\n      swap1\n      0x20\n      add\n      dup1\n      dup4\n      gt\n      tag_84\n      jumpi\n      dup3\n      swap1\n      sub\n      0x1f\n      and\n      dup3\n      add\n      swap2\n    tag_82:\n      pop\n      pop\n      pop\n      pop\n      pop\n      swap1\n      pop\n        /* \"contracts/clientfactory.sol\":2007:2092  function getPhone() view public returns (string memory) {\r... */\n      swap1\n      jump\t// out\n        /* \"contracts/clientfactory.sol\":975:994  string public phone */\n    tag_41:\n      0x04\n      dup1\n      sload\n      0x01\n      dup2\n      0x01\n      and\n      iszero\n      0x0100\n      mul\n      sub\n      and\n      0x02\n      swap1\n      div\n      dup1\n      0x1f\n      add\n      0x20\n      dup1\n      swap2\n      div\n      mul\n      0x20\n      add\n      mload(0x40)\n      swap1\n      dup2\n      add\n      0x40\n      mstore\n      dup1\n      swap3\n      swap2\n      swap1\n      dup2\n      dup2\n      mstore\n      0x20\n      add\n      dup3\n      dup1\n      sload\n      0x01\n      dup2\n      0x01\n      and\n      iszero\n      0x0100\n      mul\n      sub\n      and\n      0x02\n      swap1\n      div\n      dup1\n      iszero\n      tag_85\n      jumpi\n      dup1\n      0x1f\n      lt\n      tag_86\n      jumpi\n      0x0100\n      dup1\n      dup4\n      sload\n      div\n      mul\n      dup4\n      mstore\n      swap2\n      0x20\n      add\n      swap2\n      jump(tag_85)\n    tag_86:\n      dup3\n      add\n      swap2\n      swap1\n      0x00\n      mstore\n      keccak256(0x00, 0x20)\n      swap1\n    tag_87:\n      dup2\n      sload\n      dup2\n      mstore\n      swap1\n      0x01\n      add\n      swap1\n      0x20\n      add\n      dup1\n      dup4\n      gt\n      tag_87\n      jumpi\n      dup3\n      swap1\n      sub\n      0x1f\n      and\n      dup3\n      add\n      swap2\n    tag_85:\n      pop\n      pop\n      pop\n      pop\n      pop\n      dup2\n      jump\t// out\n        /* \"contracts/clientfactory.sol\":2189:2274  function getPrice() view public returns (string memory) {\r... */\n    tag_44:\n        /* \"contracts/clientfactory.sol\":2230:2243  string memory */\n      0x60\n        /* \"contracts/clientfactory.sol\":2262:2267  price */\n      0x06\n        /* \"contracts/clientfactory.sol\":2255:2267  return price */\n      dup1\n      sload\n      0x01\n      dup2\n      0x01\n      and\n      iszero\n      0x0100\n      mul\n      sub\n      and\n      0x02\n      swap1\n      div\n      dup1\n      0x1f\n      add\n      0x20\n      dup1\n      swap2\n      div\n      mul\n      0x20\n      add\n      mload(0x40)\n      swap1\n      dup2\n      add\n      0x40\n      mstore\n      dup1\n      swap3\n      swap2\n      swap1\n      dup2\n      dup2\n      mstore\n      0x20\n      add\n      dup3\n      dup1\n      sload\n      0x01\n      dup2\n      0x01\n      and\n      iszero\n      0x0100\n      mul\n      sub\n      and\n      0x02\n      swap1\n      div\n      dup1\n      iszero\n      tag_89\n      jumpi\n      dup1\n      0x1f\n      lt\n      tag_90\n      jumpi\n      0x0100\n      dup1\n      dup4\n      sload\n      div\n      mul\n      dup4\n      mstore\n      swap2\n      0x20\n      add\n      swap2\n      jump(tag_89)\n    tag_90:\n      dup3\n      add\n      swap2\n      swap1\n      0x00\n      mstore\n      keccak256(0x00, 0x20)\n      swap1\n    tag_91:\n      dup2\n      sload\n      dup2\n      mstore\n      swap1\n      0x01\n      add\n      swap1\n      0x20\n      add\n      dup1\n      dup4\n      gt\n      tag_91\n      jumpi\n      dup3\n      swap1\n      sub\n      0x1f\n      and\n      dup3\n      add\n      swap2\n    tag_89:\n      pop\n      pop\n      pop\n      pop\n      pop\n      swap1\n      pop\n        /* \"contracts/clientfactory.sol\":2189:2274  function getPrice() view public returns (string memory) {\r... */\n      swap1\n      jump\t// out\n        /* \"contracts/clientfactory.sol\":1024:1043  string public price */\n    tag_47:\n      0x06\n      dup1\n      sload\n      0x01\n      dup2\n      0x01\n      and\n      iszero\n      0x0100\n      mul\n      sub\n      and\n      0x02\n      swap1\n      div\n      dup1\n      0x1f\n      add\n      0x20\n      dup1\n      swap2\n      div\n      mul\n      0x20\n      add\n      mload(0x40)\n      swap1\n      dup2\n      add\n      0x40\n      mstore\n      dup1\n      swap3\n      swap2\n      swap1\n      dup2\n      dup2\n      mstore\n      0x20\n      add\n      dup3\n      dup1\n      sload\n      0x01\n      dup2\n      0x01\n      and\n      iszero\n      0x0100\n      mul\n      sub\n      and\n      0x02\n      swap1\n      div\n      dup1\n      iszero\n      tag_92\n      jumpi\n      dup1\n      0x1f\n      lt\n      tag_93\n      jumpi\n      0x0100\n      dup1\n      dup4\n      sload\n      div\n      mul\n      dup4\n      mstore\n      swap2\n      0x20\n      add\n      swap2\n      jump(tag_92)\n    tag_93:\n      dup3\n      add\n      swap2\n      swap1\n      0x00\n      mstore\n      keccak256(0x00, 0x20)\n      swap1\n    tag_94:\n      dup2\n      sload\n      dup2\n      mstore\n      swap1\n      0x01\n      add\n      swap1\n      0x20\n      add\n      dup1\n      dup4\n      gt\n      tag_94\n      jumpi\n      dup3\n      swap1\n      sub\n      0x1f\n      and\n      dup3\n      add\n      swap2\n    tag_92:\n      pop\n      pop\n      pop\n      pop\n      pop\n      dup2\n      jump\t// out\n        /* \"contracts/clientfactory.sol\":941:969  string public date_of_policy */\n    tag_50:\n      0x03\n      dup1\n      sload\n      0x01\n      dup2\n      0x01\n      and\n      iszero\n      0x0100\n      mul\n      sub\n      and\n      0x02\n      swap1\n      div\n      dup1\n      0x1f\n      add\n      0x20\n      dup1\n      swap2\n      div\n      mul\n      0x20\n      add\n      mload(0x40)\n      swap1\n      dup2\n      add\n      0x40\n      mstore\n      dup1\n      swap3\n      swap2\n      swap1\n      dup2\n      dup2\n      mstore\n      0x20\n      add\n      dup3\n      dup1\n      sload\n      0x01\n      dup2\n      0x01\n      and\n      iszero\n      0x0100\n      mul\n      sub\n      and\n      0x02\n      swap1\n      div\n      dup1\n      iszero\n      tag_95\n      jumpi\n      dup1\n      0x1f\n      lt\n      tag_96\n      jumpi\n      0x0100\n      dup1\n      dup4\n      sload\n      div\n      mul\n      dup4\n      mstore\n      swap2\n      0x20\n      add\n      swap2\n      jump(tag_95)\n    tag_96:\n      dup3\n      add\n      swap2\n      swap1\n      0x00\n      mstore\n      keccak256(0x00, 0x20)\n      swap1\n    tag_97:\n      dup2\n      sload\n      dup2\n      mstore\n      swap1\n      0x01\n      add\n      swap1\n      0x20\n      add\n      dup1\n      dup4\n      gt\n      tag_97\n      jumpi\n      dup3\n      swap1\n      sub\n      0x1f\n      and\n      dup3\n      add\n      swap2\n    tag_95:\n      pop\n      pop\n      pop\n      pop\n      pop\n      dup2\n      jump\t// out\n        /* \"contracts/clientfactory.sol\":1799:1890  function getDuration() view public returns (string memory) {\r... */\n    tag_53:\n        /* \"contracts/clientfactory.sol\":1843:1856  string memory */\n      0x60\n        /* \"contracts/clientfactory.sol\":1875:1883  duration */\n      0x02\n        /* \"contracts/clientfactory.sol\":1868:1883  return duration */\n      dup1\n      sload\n      0x01\n      dup2\n      0x01\n      and\n      iszero\n      0x0100\n      mul\n      sub\n      and\n      0x02\n      swap1\n      div\n      dup1\n      0x1f\n      add\n      0x20\n      dup1\n      swap2\n      div\n      mul\n      0x20\n      add\n      mload(0x40)\n      swap1\n      dup2\n      add\n      0x40\n      mstore\n      dup1\n      swap3\n      swap2\n      swap1\n      dup2\n      dup2\n      mstore\n      0x20\n      add\n      dup3\n      dup1\n      sload\n      0x01\n      dup2\n      0x01\n      and\n      iszero\n      0x0100\n      mul\n      sub\n      and\n      0x02\n      swap1\n      div\n      dup1\n      iszero\n      tag_99\n      jumpi\n      dup1\n      0x1f\n      lt\n      tag_100\n      jumpi\n      0x0100\n      dup1\n      dup4\n      sload\n      div\n      mul\n      dup4\n      mstore\n      swap2\n      0x20\n      add\n      swap2\n      jump(tag_99)\n    tag_100:\n      dup3\n      add\n      swap2\n      swap1\n      0x00\n      mstore\n      keccak256(0x00, 0x20)\n      swap1\n    tag_101:\n      dup2\n      sload\n      dup2\n      mstore\n      swap1\n      0x01\n      add\n      swap1\n      0x20\n      add\n      dup1\n      dup4\n      gt\n      tag_101\n      jumpi\n      dup3\n      swap1\n      sub\n      0x1f\n      and\n      dup3\n      add\n      swap2\n    tag_99:\n      pop\n      pop\n      pop\n      pop\n      pop\n      swap1\n      pop\n        /* \"contracts/clientfactory.sol\":1799:1890  function getDuration() view public returns (string memory) {\r... */\n      swap1\n      jump\t// out\n        /* \"contracts/clientfactory.sol\":1604:1698  function getEmailAddress() view public returns (string memory) {\r... */\n    tag_56:\n        /* \"contracts/clientfactory.sol\":1652:1665  string memory */\n      0x60\n        /* \"contracts/clientfactory.sol\":1684:1691  message */\n      0x00\n        /* \"contracts/clientfactory.sol\":1677:1691  return message */\n      dup1\n      sload\n      0x01\n      dup2\n      0x01\n      and\n      iszero\n      0x0100\n      mul\n      sub\n      and\n      0x02\n      swap1\n      div\n      dup1\n      0x1f\n      add\n      0x20\n      dup1\n      swap2\n      div\n      mul\n      0x20\n      add\n      mload(0x40)\n      swap1\n      dup2\n      add\n      0x40\n      mstore\n      dup1\n      swap3\n      swap2\n      swap1\n      dup2\n      dup2\n      mstore\n      0x20\n      add\n      dup3\n      dup1\n      sload\n      0x01\n      dup2\n      0x01\n      and\n      iszero\n      0x0100\n      mul\n      sub\n      and\n      0x02\n      swap1\n      div\n      dup1\n      iszero\n      tag_103\n      jumpi\n      dup1\n      0x1f\n      lt\n      tag_104\n      jumpi\n      0x0100\n      dup1\n      dup4\n      sload\n      div\n      mul\n      dup4\n      mstore\n      swap2\n      0x20\n      add\n      swap2\n      jump(tag_103)\n    tag_104:\n      dup3\n      add\n      swap2\n      swap1\n      0x00\n      mstore\n      keccak256(0x00, 0x20)\n      swap1\n    tag_105:\n      dup2\n      sload\n      dup2\n      mstore\n      swap1\n      0x01\n      add\n      swap1\n      0x20\n      add\n      dup1\n      dup4\n      gt\n      tag_105\n      jumpi\n      dup3\n      swap1\n      sub\n      0x1f\n      and\n      dup3\n      add\n      swap2\n    tag_103:\n      pop\n      pop\n      pop\n      pop\n      pop\n      swap1\n      pop\n        /* \"contracts/clientfactory.sol\":1604:1698  function getEmailAddress() view public returns (string memory) {\r... */\n      swap1\n      jump\t// out\n        /* \"contracts/clientfactory.sol\":1705:1792  function getPolicy() view public returns (string memory) {\r... */\n    tag_59:\n        /* \"contracts/clientfactory.sol\":1747:1760  string memory */\n      0x60\n        /* \"contracts/clientfactory.sol\":1779:1785  policy */\n      0x01\n        /* \"contracts/clientfactory.sol\":1772:1785  return policy */\n      dup1\n      sload\n      0x01\n      dup2\n      0x01\n      and\n      iszero\n      0x0100\n      mul\n      sub\n      and\n      0x02\n      swap1\n      div\n      dup1\n      0x1f\n      add\n      0x20\n      dup1\n      swap2\n      div\n      mul\n      0x20\n      add\n      mload(0x40)\n      swap1\n      dup2\n      add\n      0x40\n      mstore\n      dup1\n      swap3\n      swap2\n      swap1\n      dup2\n      dup2\n      mstore\n      0x20\n      add\n      dup3\n      dup1\n      sload\n      0x01\n      dup2\n      0x01\n      and\n      iszero\n      0x0100\n      mul\n      sub\n      and\n      0x02\n      swap1\n      div\n      dup1\n      iszero\n      tag_107\n      jumpi\n      dup1\n      0x1f\n      lt\n      tag_108\n      jumpi\n      0x0100\n      dup1\n      dup4\n      sload\n      div\n      mul\n      dup4\n      mstore\n      swap2\n      0x20\n      add\n      swap2\n      jump(tag_107)\n    tag_108:\n      dup3\n      add\n      swap2\n      swap1\n      0x00\n      mstore\n      keccak256(0x00, 0x20)\n      swap1\n    tag_109:\n      dup2\n      sload\n      dup2\n      mstore\n      swap1\n      0x01\n      add\n      swap1\n      0x20\n      add\n      dup1\n      dup4\n      gt\n      tag_109\n      jumpi\n      dup3\n      swap1\n      sub\n      0x1f\n      and\n      dup3\n      add\n      swap2\n    tag_107:\n      pop\n      pop\n      pop\n      pop\n      pop\n      swap1\n      pop\n        /* \"contracts/clientfactory.sol\":1705:1792  function getPolicy() view public returns (string memory) {\r... */\n      swap1\n      jump\t// out\n        /* \"contracts/clientfactory.sol\":860:881  string public message */\n    tag_62:\n      0x00\n      dup1\n      sload\n      0x01\n      dup2\n      0x01\n      and\n      iszero\n      0x0100\n      mul\n      sub\n      and\n      0x02\n      swap1\n      div\n      dup1\n      0x1f\n      add\n      0x20\n      dup1\n      swap2\n      div\n      mul\n      0x20\n      add\n      mload(0x40)\n      swap1\n      dup2\n      add\n      0x40\n      mstore\n      dup1\n      swap3\n      swap2\n      swap1\n      dup2\n      dup2\n      mstore\n      0x20\n      add\n      dup3\n      dup1\n      sload\n      0x01\n      dup2\n      0x01\n      and\n      iszero\n      0x0100\n      mul\n      sub\n      and\n      0x02\n      swap1\n      div\n      dup1\n      iszero\n      tag_110\n      jumpi\n      dup1\n      0x1f\n      lt\n      tag_111\n      jumpi\n      0x0100\n      dup1\n      dup4\n      sload\n      div\n      mul\n      dup4\n      mstore\n      swap2\n      0x20\n      add\n      swap2\n      jump(tag_110)\n    tag_111:\n      dup3\n      add\n      swap2\n      swap1\n      0x00\n      mstore\n      keccak256(0x00, 0x20)\n      swap1\n    tag_112:\n      dup2\n      sload\n      dup2\n      mstore\n      swap1\n      0x01\n      add\n      swap1\n      0x20\n      add\n      dup1\n      dup4\n      gt\n      tag_112\n      jumpi\n      dup3\n      swap1\n      sub\n      0x1f\n      and\n      dup3\n      add\n      swap2\n    tag_110:\n      pop\n      pop\n      pop\n      pop\n      pop\n      dup2\n      jump\t// out\n        /* \"--CODEGEN--\":5:352   */\n    tag_114:\n      0x00\n        /* \"--CODEGEN--\":117:156   */\n      tag_115\n        /* \"--CODEGEN--\":150:155   */\n      dup3\n        /* \"--CODEGEN--\":117:156   */\n      jump(tag_116)\n    tag_115:\n        /* \"--CODEGEN--\":168:239   */\n      tag_117\n        /* \"--CODEGEN--\":232:238   */\n      dup2\n        /* \"--CODEGEN--\":227:230   */\n      dup6\n        /* \"--CODEGEN--\":168:239   */\n      jump(tag_118)\n    tag_117:\n        /* \"--CODEGEN--\":161:239   */\n      swap4\n      pop\n        /* \"--CODEGEN--\":244:296   */\n      tag_119\n        /* \"--CODEGEN--\":289:295   */\n      dup2\n        /* \"--CODEGEN--\":284:287   */\n      dup6\n        /* \"--CODEGEN--\":277:281   */\n      0x20\n        /* \"--CODEGEN--\":270:275   */\n      dup7\n        /* \"--CODEGEN--\":266:282   */\n      add\n        /* \"--CODEGEN--\":244:296   */\n      jump(tag_120)\n    tag_119:\n        /* \"--CODEGEN--\":317:346   */\n      tag_121\n        /* \"--CODEGEN--\":339:345   */\n      dup2\n        /* \"--CODEGEN--\":317:346   */\n      jump(tag_122)\n    tag_121:\n        /* \"--CODEGEN--\":312:315   */\n      dup5\n        /* \"--CODEGEN--\":308:347   */\n      add\n        /* \"--CODEGEN--\":301:347   */\n      swap2\n      pop\n        /* \"--CODEGEN--\":97:352   */\n      pop\n      swap3\n      swap2\n      pop\n      pop\n      jump\n        /* \"--CODEGEN--\":359:698   */\n    tag_123:\n      0x00\n        /* \"--CODEGEN--\":467:502   */\n      tag_124\n        /* \"--CODEGEN--\":496:501   */\n      dup3\n        /* \"--CODEGEN--\":467:502   */\n      jump(tag_125)\n    tag_124:\n        /* \"--CODEGEN--\":514:585   */\n      tag_126\n        /* \"--CODEGEN--\":578:584   */\n      dup2\n        /* \"--CODEGEN--\":573:576   */\n      dup6\n        /* \"--CODEGEN--\":514:585   */\n      jump(tag_118)\n    tag_126:\n        /* \"--CODEGEN--\":507:585   */\n      swap4\n      pop\n        /* \"--CODEGEN--\":590:642   */\n      tag_127\n        /* \"--CODEGEN--\":635:641   */\n      dup2\n        /* \"--CODEGEN--\":630:633   */\n      dup6\n        /* \"--CODEGEN--\":623:627   */\n      0x20\n        /* \"--CODEGEN--\":616:621   */\n      dup7\n        /* \"--CODEGEN--\":612:628   */\n      add\n        /* \"--CODEGEN--\":590:642   */\n      jump(tag_120)\n    tag_127:\n        /* \"--CODEGEN--\":663:692   */\n      tag_128\n        /* \"--CODEGEN--\":685:691   */\n      dup2\n        /* \"--CODEGEN--\":663:692   */\n      jump(tag_122)\n    tag_128:\n        /* \"--CODEGEN--\":658:661   */\n      dup5\n        /* \"--CODEGEN--\":654:693   */\n      add\n        /* \"--CODEGEN--\":647:693   */\n      swap2\n      pop\n        /* \"--CODEGEN--\":447:698   */\n      pop\n      swap3\n      swap2\n      pop\n      pop\n      jump\n        /* \"--CODEGEN--\":705:998   */\n    tag_23:\n      0x00\n        /* \"--CODEGEN--\":839:841   */\n      0x20\n        /* \"--CODEGEN--\":828:837   */\n      dup3\n        /* \"--CODEGEN--\":824:842   */\n      add\n        /* \"--CODEGEN--\":816:842   */\n      swap1\n      pop\n        /* \"--CODEGEN--\":889:898   */\n      dup2\n        /* \"--CODEGEN--\":883:887   */\n      dup2\n        /* \"--CODEGEN--\":879:899   */\n      sub\n        /* \"--CODEGEN--\":875:876   */\n      0x00\n        /* \"--CODEGEN--\":864:873   */\n      dup4\n        /* \"--CODEGEN--\":860:877   */\n      add\n        /* \"--CODEGEN--\":853:900   */\n      mstore\n        /* \"--CODEGEN--\":914:988   */\n      tag_129\n        /* \"--CODEGEN--\":983:987   */\n      dup2\n        /* \"--CODEGEN--\":974:980   */\n      dup5\n        /* \"--CODEGEN--\":914:988   */\n      jump(tag_123)\n    tag_129:\n        /* \"--CODEGEN--\":906:988   */\n      swap1\n      pop\n        /* \"--CODEGEN--\":810:998   */\n      swap3\n      swap2\n      pop\n      pop\n      jump\n        /* \"--CODEGEN--\":1005:1306   */\n    tag_33:\n      0x00\n        /* \"--CODEGEN--\":1143:1145   */\n      0x20\n        /* \"--CODEGEN--\":1132:1141   */\n      dup3\n        /* \"--CODEGEN--\":1128:1146   */\n      add\n        /* \"--CODEGEN--\":1120:1146   */\n      swap1\n      pop\n        /* \"--CODEGEN--\":1193:1202   */\n      dup2\n        /* \"--CODEGEN--\":1187:1191   */\n      dup2\n        /* \"--CODEGEN--\":1183:1203   */\n      sub\n        /* \"--CODEGEN--\":1179:1180   */\n      0x00\n        /* \"--CODEGEN--\":1168:1177   */\n      dup4\n        /* \"--CODEGEN--\":1164:1181   */\n      add\n        /* \"--CODEGEN--\":1157:1204   */\n      mstore\n        /* \"--CODEGEN--\":1218:1296   */\n      tag_130\n        /* \"--CODEGEN--\":1291:1295   */\n      dup2\n        /* \"--CODEGEN--\":1282:1288   */\n      dup5\n        /* \"--CODEGEN--\":1218:1296   */\n      jump(tag_114)\n    tag_130:\n        /* \"--CODEGEN--\":1210:1296   */\n      swap1\n      pop\n        /* \"--CODEGEN--\":1114:1306   */\n      swap3\n      swap2\n      pop\n      pop\n      jump\n        /* \"--CODEGEN--\":1313:1431   */\n    tag_125:\n      0x00\n        /* \"--CODEGEN--\":1403:1408   */\n      dup2\n        /* \"--CODEGEN--\":1397:1409   */\n      mload\n        /* \"--CODEGEN--\":1387:1409   */\n      swap1\n      pop\n        /* \"--CODEGEN--\":1368:1431   */\n      swap2\n      swap1\n      pop\n      jump\n        /* \"--CODEGEN--\":1438:1560   */\n    tag_116:\n      0x00\n        /* \"--CODEGEN--\":1532:1537   */\n      dup2\n        /* \"--CODEGEN--\":1526:1538   */\n      mload\n        /* \"--CODEGEN--\":1516:1538   */\n      swap1\n      pop\n        /* \"--CODEGEN--\":1497:1560   */\n      swap2\n      swap1\n      pop\n      jump\n        /* \"--CODEGEN--\":1568:1731   */\n    tag_118:\n      0x00\n        /* \"--CODEGEN--\":1683:1689   */\n      dup3\n        /* \"--CODEGEN--\":1678:1681   */\n      dup3\n        /* \"--CODEGEN--\":1671:1690   */\n      mstore\n        /* \"--CODEGEN--\":1720:1724   */\n      0x20\n        /* \"--CODEGEN--\":1715:1718   */\n      dup3\n        /* \"--CODEGEN--\":1711:1725   */\n      add\n        /* \"--CODEGEN--\":1696:1725   */\n      swap1\n      pop\n        /* \"--CODEGEN--\":1664:1731   */\n      swap3\n      swap2\n      pop\n      pop\n      jump\n        /* \"--CODEGEN--\":1740:2008   */\n    tag_120:\n        /* \"--CODEGEN--\":1805:1806   */\n      0x00\n        /* \"--CODEGEN--\":1812:1913   */\n    tag_131:\n        /* \"--CODEGEN--\":1826:1832   */\n      dup4\n        /* \"--CODEGEN--\":1823:1824   */\n      dup2\n        /* \"--CODEGEN--\":1820:1833   */\n      lt\n        /* \"--CODEGEN--\":1812:1913   */\n      iszero\n      tag_133\n      jumpi\n        /* \"--CODEGEN--\":1902:1903   */\n      dup1\n        /* \"--CODEGEN--\":1897:1900   */\n      dup3\n        /* \"--CODEGEN--\":1893:1904   */\n      add\n        /* \"--CODEGEN--\":1887:1905   */\n      mload\n        /* \"--CODEGEN--\":1883:1884   */\n      dup2\n        /* \"--CODEGEN--\":1878:1881   */\n      dup5\n        /* \"--CODEGEN--\":1874:1885   */\n      add\n        /* \"--CODEGEN--\":1867:1906   */\n      mstore\n        /* \"--CODEGEN--\":1848:1850   */\n      0x20\n        /* \"--CODEGEN--\":1845:1846   */\n      dup2\n        /* \"--CODEGEN--\":1841:1851   */\n      add\n        /* \"--CODEGEN--\":1836:1851   */\n      swap1\n      pop\n        /* \"--CODEGEN--\":1812:1913   */\n      jump(tag_131)\n    tag_133:\n        /* \"--CODEGEN--\":1928:1934   */\n      dup4\n        /* \"--CODEGEN--\":1925:1926   */\n      dup2\n        /* \"--CODEGEN--\":1922:1935   */\n      gt\n        /* \"--CODEGEN--\":1919:1921   */\n      iszero\n      tag_134\n      jumpi\n        /* \"--CODEGEN--\":1993:1994   */\n      0x00\n        /* \"--CODEGEN--\":1984:1990   */\n      dup5\n        /* \"--CODEGEN--\":1979:1982   */\n      dup5\n        /* \"--CODEGEN--\":1975:1991   */\n      add\n        /* \"--CODEGEN--\":1968:1995   */\n      mstore\n        /* \"--CODEGEN--\":1919:1921   */\n    tag_134:\n        /* \"--CODEGEN--\":1789:2008   */\n      pop\n      pop\n      pop\n      pop\n      jump\n        /* \"--CODEGEN--\":2016:2113   */\n    tag_122:\n      0x00\n        /* \"--CODEGEN--\":2104:2106   */\n      0x1f\n        /* \"--CODEGEN--\":2100:2107   */\n      not\n        /* \"--CODEGEN--\":2095:2097   */\n      0x1f\n        /* \"--CODEGEN--\":2088:2093   */\n      dup4\n        /* \"--CODEGEN--\":2084:2098   */\n      add\n        /* \"--CODEGEN--\":2080:2108   */\n      and\n        /* \"--CODEGEN--\":2070:2108   */\n      swap1\n      pop\n        /* \"--CODEGEN--\":2064:2113   */\n      swap2\n      swap1\n      pop\n      jump\n\n    auxdata: 0xa365627a7a723158204ce8f38fffeebb7f29bba93b996443380ea8e7e0a7c67bb50a9e8671072e59eb6c6578706572696d656e74616cf564736f6c63430005110040\n}\n",
				"bytecode": {
					"linkReferences": {},
					"object": "60806040523480156200001157600080fd5b50604051620010ce380380620010ce833981810160405262000037919081019062000308565b806000815181106200004557fe5b6020026020010151600090805190602001906200006492919062000180565b50806001815181106200007357fe5b6020026020010151600190805190602001906200009292919062000180565b5080600281518110620000a157fe5b602002602001015160029080519060200190620000c092919062000180565b5080600381518110620000cf57fe5b602002602001015160039080519060200190620000ee92919062000180565b5080600481518110620000fd57fe5b6020026020010151600490805190602001906200011c92919062000180565b50806005815181106200012b57fe5b6020026020010151600590805190602001906200014a92919062000180565b50806006815181106200015957fe5b6020026020010151600690805190602001906200017892919062000180565b505062000407565b828054600181600116156101000203166002900490600052602060002090601f016020900481019282601f10620001c357805160ff1916838001178555620001f4565b82800160010185558215620001f4579182015b82811115620001f3578251825591602001919060010190620001d6565b5b50905062000203919062000207565b5090565b6200022c91905b80821115620002285760008160009055506001016200020e565b5090565b90565b600082601f8301126200024157600080fd5b81516200025862000252826200037b565b6200034d565b9150818183526020840193506020810190508360005b83811015620002a25781518601620002878882620002ac565b8452602084019350602083019250506001810190506200026e565b5050505092915050565b600082601f830112620002be57600080fd5b8151620002d5620002cf82620003a4565b6200034d565b91508082526020830160208301858383011115620002f257600080fd5b620002ff838284620003d1565b50505092915050565b6000602082840312156200031b57600080fd5b600082015167ffffffffffffffff8111156200033657600080fd5b62000344848285016200022f565b91505092915050565b6000604051905081810181811067ffffffffffffffff821117156200037157600080fd5b8060405250919050565b600067ffffffffffffffff8211156200039357600080fd5b602082029050602081019050919050565b600067ffffffffffffffff821115620003bc57600080fd5b601f19601f8301169050602081019050919050565b60005b83811015620003f1578082015181840152602081019050620003d4565b8381111562000401576000848401525b50505050565b610cb780620004176000396000f3fe608060405234801561001057600080fd5b50600436106100ea5760003560e01c806398d5fdca1161008c578063ad2e8c9b11610066578063ad2e8c9b1461021b578063c4382fa614610239578063ce1e462614610257578063e21f37ce14610275576100ea565b806398d5fdca146101c1578063a035b1fe146101df578063aa3c542d146101fd576100ea565b806317d7de7c116100c857806317d7de7c1461014957806320bdd61d146101675780638863bab0146101855780639284f497146101a3576100ea565b80630505c8c9146100ef57806306fdde031461010d5780630fb5a6b41461012b575b600080fd5b6100f7610293565b6040516101049190610bc5565b60405180910390f35b610115610331565b6040516101229190610bc5565b60405180910390f35b6101336103cf565b6040516101409190610bc5565b60405180910390f35b61015161046d565b60405161015e9190610be7565b60405180910390f35b61016f61050f565b60405161017c9190610be7565b60405180910390f35b61018d6105b1565b60405161019a9190610be7565b60405180910390f35b6101ab610653565b6040516101b89190610bc5565b60405180910390f35b6101c96106f1565b6040516101d69190610be7565b60405180910390f35b6101e7610793565b6040516101f49190610bc5565b60405180910390f35b610205610831565b6040516102129190610bc5565b60405180910390f35b6102236108cf565b6040516102309190610be7565b60405180910390f35b610241610971565b60405161024e9190610be7565b60405180910390f35b61025f610a13565b60405161026c9190610be7565b60405180910390f35b61027d610ab5565b60405161028a9190610bc5565b60405180910390f35b60018054600181600116156101000203166002900480601f0160208091040260200160405190810160405280929190818152602001828054600181600116156101000203166002900480156103295780601f106102fe57610100808354040283529160200191610329565b820191906000526020600020905b81548152906001019060200180831161030c57829003601f168201915b505050505081565b60058054600181600116156101000203166002900480601f0160208091040260200160405190810160405280929190818152602001828054600181600116156101000203166002900480156103c75780601f1061039c576101008083540402835291602001916103c7565b820191906000526020600020905b8154815290600101906020018083116103aa57829003601f168201915b505050505081565b60028054600181600116156101000203166002900480601f0160208091040260200160405190810160405280929190818152602001828054600181600116156101000203166002900480156104655780601f1061043a57610100808354040283529160200191610465565b820191906000526020600020905b81548152906001019060200180831161044857829003601f168201915b505050505081565b606060058054600181600116156101000203166002900480601f0160208091040260200160405190810160405280929190818152602001828054600181600116156101000203166002900480156105055780601f106104da57610100808354040283529160200191610505565b820191906000526020600020905b8154815290600101906020018083116104e857829003601f168201915b5050505050905090565b606060038054600181600116156101000203166002900480601f0160208091040260200160405190810160405280929190818152602001828054600181600116156101000203166002900480156105a75780601f1061057c576101008083540402835291602001916105a7565b820191906000526020600020905b81548152906001019060200180831161058a57829003601f168201915b5050505050905090565b606060048054600181600116156101000203166002900480601f0160208091040260200160405190810160405280929190818152602001828054600181600116156101000203166002900480156106495780601f1061061e57610100808354040283529160200191610649565b820191906000526020600020905b81548152906001019060200180831161062c57829003601f168201915b5050505050905090565b60048054600181600116156101000203166002900480601f0160208091040260200160405190810160405280929190818152602001828054600181600116156101000203166002900480156106e95780601f106106be576101008083540402835291602001916106e9565b820191906000526020600020905b8154815290600101906020018083116106cc57829003601f168201915b505050505081565b606060068054600181600116156101000203166002900480601f0160208091040260200160405190810160405280929190818152602001828054600181600116156101000203166002900480156107895780601f1061075e57610100808354040283529160200191610789565b820191906000526020600020905b81548152906001019060200180831161076c57829003601f168201915b5050505050905090565b60068054600181600116156101000203166002900480601f0160208091040260200160405190810160405280929190818152602001828054600181600116156101000203166002900480156108295780601f106107fe57610100808354040283529160200191610829565b820191906000526020600020905b81548152906001019060200180831161080c57829003601f168201915b505050505081565b60038054600181600116156101000203166002900480601f0160208091040260200160405190810160405280929190818152602001828054600181600116156101000203166002900480156108c75780601f1061089c576101008083540402835291602001916108c7565b820191906000526020600020905b8154815290600101906020018083116108aa57829003601f168201915b505050505081565b606060028054600181600116156101000203166002900480601f0160208091040260200160405190810160405280929190818152602001828054600181600116156101000203166002900480156109675780601f1061093c57610100808354040283529160200191610967565b820191906000526020600020905b81548152906001019060200180831161094a57829003601f168201915b5050505050905090565b606060008054600181600116156101000203166002900480601f016020809104026020016040519081016040528092919081815260200182805460018160011615610100020316600290048015610a095780601f106109de57610100808354040283529160200191610a09565b820191906000526020600020905b8154815290600101906020018083116109ec57829003601f168201915b5050505050905090565b606060018054600181600116156101000203166002900480601f016020809104026020016040519081016040528092919081815260200182805460018160011615610100020316600290048015610aab5780601f10610a8057610100808354040283529160200191610aab565b820191906000526020600020905b815481529060010190602001808311610a8e57829003601f168201915b5050505050905090565b60008054600181600116156101000203166002900480601f016020809104026020016040519081016040528092919081815260200182805460018160011615610100020316600290048015610b4b5780601f10610b2057610100808354040283529160200191610b4b565b820191906000526020600020905b815481529060010190602001808311610b2e57829003601f168201915b505050505081565b6000610b5e82610c14565b610b688185610c1f565b9350610b78818560208601610c30565b610b8181610c63565b840191505092915050565b6000610b9782610c09565b610ba18185610c1f565b9350610bb1818560208601610c30565b610bba81610c63565b840191505092915050565b60006020820190508181036000830152610bdf8184610b8c565b905092915050565b60006020820190508181036000830152610c018184610b53565b905092915050565b600081519050919050565b600081519050919050565b600082825260208201905092915050565b60005b83811015610c4e578082015181840152602081019050610c33565b83811115610c5d576000848401525b50505050565b6000601f19601f830116905091905056fea365627a7a723158204ce8f38fffeebb7f29bba93b996443380ea8e7e0a7c67bb50a9e8671072e59eb6c6578706572696d656e74616cf564736f6c63430005110040",
					"opcodes": "PUSH1 0x80 PUSH1 0x40 MSTORE CALLVALUE DUP1 ISZERO PUSH3 0x11 JUMPI PUSH1 0x0 DUP1 REVERT JUMPDEST POP PUSH1 0x40 MLOAD PUSH3 0x10CE CODESIZE SUB DUP1 PUSH3 0x10CE DUP4 CODECOPY DUP2 DUP2 ADD PUSH1 0x40 MSTORE PUSH3 0x37 SWAP2 SWAP1 DUP2 ADD SWAP1 PUSH3 0x308 JUMP JUMPDEST DUP1 PUSH1 0x0 DUP2 MLOAD DUP2 LT PUSH3 0x45 JUMPI INVALID JUMPDEST PUSH1 0x20 MUL PUSH1 0x20 ADD ADD MLOAD PUSH1 0x0 SWAP1 DUP1 MLOAD SWAP1 PUSH1 0x20 ADD SWAP1 PUSH3 0x64 SWAP3 SWAP2 SWAP1 PUSH3 0x180 JUMP JUMPDEST POP DUP1 PUSH1 0x1 DUP2 MLOAD DUP2 LT PUSH3 0x73 JUMPI INVALID JUMPDEST PUSH1 0x20 MUL PUSH1 0x20 ADD ADD MLOAD PUSH1 0x1 SWAP1 DUP1 MLOAD SWAP1 PUSH1 0x20 ADD SWAP1 PUSH3 0x92 SWAP3 SWAP2 SWAP1 PUSH3 0x180 JUMP JUMPDEST POP DUP1 PUSH1 0x2 DUP2 MLOAD DUP2 LT PUSH3 0xA1 JUMPI INVALID JUMPDEST PUSH1 0x20 MUL PUSH1 0x20 ADD ADD MLOAD PUSH1 0x2 SWAP1 DUP1 MLOAD SWAP1 PUSH1 0x20 ADD SWAP1 PUSH3 0xC0 SWAP3 SWAP2 SWAP1 PUSH3 0x180 JUMP JUMPDEST POP DUP1 PUSH1 0x3 DUP2 MLOAD DUP2 LT PUSH3 0xCF JUMPI INVALID JUMPDEST PUSH1 0x20 MUL PUSH1 0x20 ADD ADD MLOAD PUSH1 0x3 SWAP1 DUP1 MLOAD SWAP1 PUSH1 0x20 ADD SWAP1 PUSH3 0xEE SWAP3 SWAP2 SWAP1 PUSH3 0x180 JUMP JUMPDEST POP DUP1 PUSH1 0x4 DUP2 MLOAD DUP2 LT PUSH3 0xFD JUMPI INVALID JUMPDEST PUSH1 0x20 MUL PUSH1 0x20 ADD ADD MLOAD PUSH1 0x4 SWAP1 DUP1 MLOAD SWAP1 PUSH1 0x20 ADD SWAP1 PUSH3 0x11C SWAP3 SWAP2 SWAP1 PUSH3 0x180 JUMP JUMPDEST POP DUP1 PUSH1 0x5 DUP2 MLOAD DUP2 LT PUSH3 0x12B JUMPI INVALID JUMPDEST PUSH1 0x20 MUL PUSH1 0x20 ADD ADD MLOAD PUSH1 0x5 SWAP1 DUP1 MLOAD SWAP1 PUSH1 0x20 ADD SWAP1 PUSH3 0x14A SWAP3 SWAP2 SWAP1 PUSH3 0x180 JUMP JUMPDEST POP DUP1 PUSH1 0x6 DUP2 MLOAD DUP2 LT PUSH3 0x159 JUMPI INVALID JUMPDEST PUSH1 0x20 MUL PUSH1 0x20 ADD ADD MLOAD PUSH1 0x6 SWAP1 DUP1 MLOAD SWAP1 PUSH1 0x20 ADD SWAP1 PUSH3 0x178 SWAP3 SWAP2 SWAP1 PUSH3 0x180 JUMP JUMPDEST POP POP PUSH3 0x407 JUMP JUMPDEST DUP3 DUP1 SLOAD PUSH1 0x1 DUP2 PUSH1 0x1 AND ISZERO PUSH2 0x100 MUL SUB AND PUSH1 0x2 SWAP1 DIV SWAP1 PUSH1 0x0 MSTORE PUSH1 0x20 PUSH1 0x0 KECCAK256 SWAP1 PUSH1 0x1F ADD PUSH1 0x20 SWAP1 DIV DUP2 ADD SWAP3 DUP3 PUSH1 0x1F LT PUSH3 0x1C3 JUMPI DUP1 MLOAD PUSH1 0xFF NOT AND DUP4 DUP1 ADD OR DUP6 SSTORE PUSH3 0x1F4 JUMP JUMPDEST DUP3 DUP1 ADD PUSH1 0x1 ADD DUP6 SSTORE DUP3 ISZERO PUSH3 0x1F4 JUMPI SWAP2 DUP3 ADD JUMPDEST DUP3 DUP2 GT ISZERO PUSH3 0x1F3 JUMPI DUP3 MLOAD DUP3 SSTORE SWAP2 PUSH1 0x20 ADD SWAP2 SWAP1 PUSH1 0x1 ADD SWAP1 PUSH3 0x1D6 JUMP JUMPDEST JUMPDEST POP SWAP1 POP PUSH3 0x203 SWAP2 SWAP1 PUSH3 0x207 JUMP JUMPDEST POP SWAP1 JUMP JUMPDEST PUSH3 0x22C SWAP2 SWAP1 JUMPDEST DUP1 DUP3 GT ISZERO PUSH3 0x228 JUMPI PUSH1 0x0 DUP2 PUSH1 0x0 SWAP1 SSTORE POP PUSH1 0x1 ADD PUSH3 0x20E JUMP JUMPDEST POP SWAP1 JUMP JUMPDEST SWAP1 JUMP JUMPDEST PUSH1 0x0 DUP3 PUSH1 0x1F DUP4 ADD SLT PUSH3 0x241 JUMPI PUSH1 0x0 DUP1 REVERT JUMPDEST DUP2 MLOAD PUSH3 0x258 PUSH3 0x252 DUP3 PUSH3 0x37B JUMP JUMPDEST PUSH3 0x34D JUMP JUMPDEST SWAP2 POP DUP2 DUP2 DUP4 MSTORE PUSH1 0x20 DUP5 ADD SWAP4 POP PUSH1 0x20 DUP2 ADD SWAP1 POP DUP4 PUSH1 0x0 JUMPDEST DUP4 DUP2 LT ISZERO PUSH3 0x2A2 JUMPI DUP2 MLOAD DUP7 ADD PUSH3 0x287 DUP9 DUP3 PUSH3 0x2AC JUMP JUMPDEST DUP5 MSTORE PUSH1 0x20 DUP5 ADD SWAP4 POP PUSH1 0x20 DUP4 ADD SWAP3 POP POP PUSH1 0x1 DUP2 ADD SWAP1 POP PUSH3 0x26E JUMP JUMPDEST POP POP POP POP SWAP3 SWAP2 POP POP JUMP JUMPDEST PUSH1 0x0 DUP3 PUSH1 0x1F DUP4 ADD SLT PUSH3 0x2BE JUMPI PUSH1 0x0 DUP1 REVERT JUMPDEST DUP2 MLOAD PUSH3 0x2D5 PUSH3 0x2CF DUP3 PUSH3 0x3A4 JUMP JUMPDEST PUSH3 0x34D JUMP JUMPDEST SWAP2 POP DUP1 DUP3 MSTORE PUSH1 0x20 DUP4 ADD PUSH1 0x20 DUP4 ADD DUP6 DUP4 DUP4 ADD GT ISZERO PUSH3 0x2F2 JUMPI PUSH1 0x0 DUP1 REVERT JUMPDEST PUSH3 0x2FF DUP4 DUP3 DUP5 PUSH3 0x3D1 JUMP JUMPDEST POP POP POP SWAP3 SWAP2 POP POP JUMP JUMPDEST PUSH1 0x0 PUSH1 0x20 DUP3 DUP5 SUB SLT ISZERO PUSH3 0x31B JUMPI PUSH1 0x0 DUP1 REVERT JUMPDEST PUSH1 0x0 DUP3 ADD MLOAD PUSH8 0xFFFFFFFFFFFFFFFF DUP2 GT ISZERO PUSH3 0x336 JUMPI PUSH1 0x0 DUP1 REVERT JUMPDEST PUSH3 0x344 DUP5 DUP3 DUP6 ADD PUSH3 0x22F JUMP JUMPDEST SWAP2 POP POP SWAP3 SWAP2 POP POP JUMP JUMPDEST PUSH1 0x0 PUSH1 0x40 MLOAD SWAP1 POP DUP2 DUP2 ADD DUP2 DUP2 LT PUSH8 0xFFFFFFFFFFFFFFFF DUP3 GT OR ISZERO PUSH3 0x371 JUMPI PUSH1 0x0 DUP1 REVERT JUMPDEST DUP1 PUSH1 0x40 MSTORE POP SWAP2 SWAP1 POP JUMP JUMPDEST PUSH1 0x0 PUSH8 0xFFFFFFFFFFFFFFFF DUP3 GT ISZERO PUSH3 0x393 JUMPI PUSH1 0x0 DUP1 REVERT JUMPDEST PUSH1 0x20 DUP3 MUL SWAP1 POP PUSH1 0x20 DUP2 ADD SWAP1 POP SWAP2 SWAP1 POP JUMP JUMPDEST PUSH1 0x0 PUSH8 0xFFFFFFFFFFFFFFFF DUP3 GT ISZERO PUSH3 0x3BC JUMPI PUSH1 0x0 DUP1 REVERT JUMPDEST PUSH1 0x1F NOT PUSH1 0x1F DUP4 ADD AND SWAP1 POP PUSH1 0x20 DUP2 ADD SWAP1 POP SWAP2 SWAP1 POP JUMP JUMPDEST PUSH1 0x0 JUMPDEST DUP4 DUP2 LT ISZERO PUSH3 0x3F1 JUMPI DUP1 DUP3 ADD MLOAD DUP2 DUP5 ADD MSTORE PUSH1 0x20 DUP2 ADD SWAP1 POP PUSH3 0x3D4 JUMP JUMPDEST DUP4 DUP2 GT ISZERO PUSH3 0x401 JUMPI PUSH1 0x0 DUP5 DUP5 ADD MSTORE JUMPDEST POP POP POP POP JUMP JUMPDEST PUSH2 0xCB7 DUP1 PUSH3 0x417 PUSH1 0x0 CODECOPY PUSH1 0x0 RETURN INVALID PUSH1 0x80 PUSH1 0x40 MSTORE CALLVALUE DUP1 ISZERO PUSH2 0x10 JUMPI PUSH1 0x0 DUP1 REVERT JUMPDEST POP PUSH1 0x4 CALLDATASIZE LT PUSH2 0xEA JUMPI PUSH1 0x0 CALLDATALOAD PUSH1 0xE0 SHR DUP1 PUSH4 0x98D5FDCA GT PUSH2 0x8C JUMPI DUP1 PUSH4 0xAD2E8C9B GT PUSH2 0x66 JUMPI DUP1 PUSH4 0xAD2E8C9B EQ PUSH2 0x21B JUMPI DUP1 PUSH4 0xC4382FA6 EQ PUSH2 0x239 JUMPI DUP1 PUSH4 0xCE1E4626 EQ PUSH2 0x257 JUMPI DUP1 PUSH4 0xE21F37CE EQ PUSH2 0x275 JUMPI PUSH2 0xEA JUMP JUMPDEST DUP1 PUSH4 0x98D5FDCA EQ PUSH2 0x1C1 JUMPI DUP1 PUSH4 0xA035B1FE EQ PUSH2 0x1DF JUMPI DUP1 PUSH4 0xAA3C542D EQ PUSH2 0x1FD JUMPI PUSH2 0xEA JUMP JUMPDEST DUP1 PUSH4 0x17D7DE7C GT PUSH2 0xC8 JUMPI DUP1 PUSH4 0x17D7DE7C EQ PUSH2 0x149 JUMPI DUP1 PUSH4 0x20BDD61D EQ PUSH2 0x167 JUMPI DUP1 PUSH4 0x8863BAB0 EQ PUSH2 0x185 JUMPI DUP1 PUSH4 0x9284F497 EQ PUSH2 0x1A3 JUMPI PUSH2 0xEA JUMP JUMPDEST DUP1 PUSH4 0x505C8C9 EQ PUSH2 0xEF JUMPI DUP1 PUSH4 0x6FDDE03 EQ PUSH2 0x10D JUMPI DUP1 PUSH4 0xFB5A6B4 EQ PUSH2 0x12B JUMPI JUMPDEST PUSH1 0x0 DUP1 REVERT JUMPDEST PUSH2 0xF7 PUSH2 0x293 JUMP JUMPDEST PUSH1 0x40 MLOAD PUSH2 0x104 SWAP2 SWAP1 PUSH2 0xBC5 JUMP JUMPDEST PUSH1 0x40 MLOAD DUP1 SWAP2 SUB SWAP1 RETURN JUMPDEST PUSH2 0x115 PUSH2 0x331 JUMP JUMPDEST PUSH1 0x40 MLOAD PUSH2 0x122 SWAP2 SWAP1 PUSH2 0xBC5 JUMP JUMPDEST PUSH1 0x40 MLOAD DUP1 SWAP2 SUB SWAP1 RETURN JUMPDEST PUSH2 0x133 PUSH2 0x3CF JUMP JUMPDEST PUSH1 0x40 MLOAD PUSH2 0x140 SWAP2 SWAP1 PUSH2 0xBC5 JUMP JUMPDEST PUSH1 0x40 MLOAD DUP1 SWAP2 SUB SWAP1 RETURN JUMPDEST PUSH2 0x151 PUSH2 0x46D JUMP JUMPDEST PUSH1 0x40 MLOAD PUSH2 0x15E SWAP2 SWAP1 PUSH2 0xBE7 JUMP JUMPDEST PUSH1 0x40 MLOAD DUP1 SWAP2 SUB SWAP1 RETURN JUMPDEST PUSH2 0x16F PUSH2 0x50F JUMP JUMPDEST PUSH1 0x40 MLOAD PUSH2 0x17C SWAP2 SWAP1 PUSH2 0xBE7 JUMP JUMPDEST PUSH1 0x40 MLOAD DUP1 SWAP2 SUB SWAP1 RETURN JUMPDEST PUSH2 0x18D PUSH2 0x5B1 JUMP JUMPDEST PUSH1 0x40 MLOAD PUSH2 0x19A SWAP2 SWAP1 PUSH2 0xBE7 JUMP JUMPDEST PUSH1 0x40 MLOAD DUP1 SWAP2 SUB SWAP1 RETURN JUMPDEST PUSH2 0x1AB PUSH2 0x653 JUMP JUMPDEST PUSH1 0x40 MLOAD PUSH2 0x1B8 SWAP2 SWAP1 PUSH2 0xBC5 JUMP JUMPDEST PUSH1 0x40 MLOAD DUP1 SWAP2 SUB SWAP1 RETURN JUMPDEST PUSH2 0x1C9 PUSH2 0x6F1 JUMP JUMPDEST PUSH1 0x40 MLOAD PUSH2 0x1D6 SWAP2 SWAP1 PUSH2 0xBE7 JUMP JUMPDEST PUSH1 0x40 MLOAD DUP1 SWAP2 SUB SWAP1 RETURN JUMPDEST PUSH2 0x1E7 PUSH2 0x793 JUMP JUMPDEST PUSH1 0x40 MLOAD PUSH2 0x1F4 SWAP2 SWAP1 PUSH2 0xBC5 JUMP JUMPDEST PUSH1 0x40 MLOAD DUP1 SWAP2 SUB SWAP1 RETURN JUMPDEST PUSH2 0x205 PUSH2 0x831 JUMP JUMPDEST PUSH1 0x40 MLOAD PUSH2 0x212 SWAP2 SWAP1 PUSH2 0xBC5 JUMP JUMPDEST PUSH1 0x40 MLOAD DUP1 SWAP2 SUB SWAP1 RETURN JUMPDEST PUSH2 0x223 PUSH2 0x8CF JUMP JUMPDEST PUSH1 0x40 MLOAD PUSH2 0x230 SWAP2 SWAP1 PUSH2 0xBE7 JUMP JUMPDEST PUSH1 0x40 MLOAD DUP1 SWAP2 SUB SWAP1 RETURN JUMPDEST PUSH2 0x241 PUSH2 0x971 JUMP JUMPDEST PUSH1 0x40 MLOAD PUSH2 0x24E SWAP2 SWAP1 PUSH2 0xBE7 JUMP JUMPDEST PUSH1 0x40 MLOAD DUP1 SWAP2 SUB SWAP1 RETURN JUMPDEST PUSH2 0x25F PUSH2 0xA13 JUMP JUMPDEST PUSH1 0x40 MLOAD PUSH2 0x26C SWAP2 SWAP1 PUSH2 0xBE7 JUMP JUMPDEST PUSH1 0x40 MLOAD DUP1 SWAP2 SUB SWAP1 RETURN JUMPDEST PUSH2 0x27D PUSH2 0xAB5 JUMP JUMPDEST PUSH1 0x40 MLOAD PUSH2 0x28A SWAP2 SWAP1 PUSH2 0xBC5 JUMP JUMPDEST PUSH1 0x40 MLOAD DUP1 SWAP2 SUB SWAP1 RETURN JUMPDEST PUSH1 0x1 DUP1 SLOAD PUSH1 0x1 DUP2 PUSH1 0x1 AND ISZERO PUSH2 0x100 MUL SUB AND PUSH1 0x2 SWAP1 DIV DUP1 PUSH1 0x1F ADD PUSH1 0x20 DUP1 SWAP2 DIV MUL PUSH1 0x20 ADD PUSH1 0x40 MLOAD SWAP1 DUP2 ADD PUSH1 0x40 MSTORE DUP1 SWAP3 SWAP2 SWAP1 DUP2 DUP2 MSTORE PUSH1 0x20 ADD DUP3 DUP1 SLOAD PUSH1 0x1 DUP2 PUSH1 0x1 AND ISZERO PUSH2 0x100 MUL SUB AND PUSH1 0x2 SWAP1 DIV DUP1 ISZERO PUSH2 0x329 JUMPI DUP1 PUSH1 0x1F LT PUSH2 0x2FE JUMPI PUSH2 0x100 DUP1 DUP4 SLOAD DIV MUL DUP4 MSTORE SWAP2 PUSH1 0x20 ADD SWAP2 PUSH2 0x329 JUMP JUMPDEST DUP3 ADD SWAP2 SWAP1 PUSH1 0x0 MSTORE PUSH1 0x20 PUSH1 0x0 KECCAK256 SWAP1 JUMPDEST DUP2 SLOAD DUP2 MSTORE SWAP1 PUSH1 0x1 ADD SWAP1 PUSH1 0x20 ADD DUP1 DUP4 GT PUSH2 0x30C JUMPI DUP3 SWAP1 SUB PUSH1 0x1F AND DUP3 ADD SWAP2 JUMPDEST POP POP POP POP POP DUP2 JUMP JUMPDEST PUSH1 0x5 DUP1 SLOAD PUSH1 0x1 DUP2 PUSH1 0x1 AND ISZERO PUSH2 0x100 MUL SUB AND PUSH1 0x2 SWAP1 DIV DUP1 PUSH1 0x1F ADD PUSH1 0x20 DUP1 SWAP2 DIV MUL PUSH1 0x20 ADD PUSH1 0x40 MLOAD SWAP1 DUP2 ADD PUSH1 0x40 MSTORE DUP1 SWAP3 SWAP2 SWAP1 DUP2 DUP2 MSTORE PUSH1 0x20 ADD DUP3 DUP1 SLOAD PUSH1 0x1 DUP2 PUSH1 0x1 AND ISZERO PUSH2 0x100 MUL SUB AND PUSH1 0x2 SWAP1 DIV DUP1 ISZERO PUSH2 0x3C7 JUMPI DUP1 PUSH1 0x1F LT PUSH2 0x39C JUMPI PUSH2 0x100 DUP1 DUP4 SLOAD DIV MUL DUP4 MSTORE SWAP2 PUSH1 0x20 ADD SWAP2 PUSH2 0x3C7 JUMP JUMPDEST DUP3 ADD SWAP2 SWAP1 PUSH1 0x0 MSTORE PUSH1 0x20 PUSH1 0x0 KECCAK256 SWAP1 JUMPDEST DUP2 SLOAD DUP2 MSTORE SWAP1 PUSH1 0x1 ADD SWAP1 PUSH1 0x20 ADD DUP1 DUP4 GT PUSH2 0x3AA JUMPI DUP3 SWAP1 SUB PUSH1 0x1F AND DUP3 ADD SWAP2 JUMPDEST POP POP POP POP POP DUP2 JUMP JUMPDEST PUSH1 0x2 DUP1 SLOAD PUSH1 0x1 DUP2 PUSH1 0x1 AND ISZERO PUSH2 0x100 MUL SUB AND PUSH1 0x2 SWAP1 DIV DUP1 PUSH1 0x1F ADD PUSH1 0x20 DUP1 SWAP2 DIV MUL PUSH1 0x20 ADD PUSH1 0x40 MLOAD SWAP1 DUP2 ADD PUSH1 0x40 MSTORE DUP1 SWAP3 SWAP2 SWAP1 DUP2 DUP2 MSTORE PUSH1 0x20 ADD DUP3 DUP1 SLOAD PUSH1 0x1 DUP2 PUSH1 0x1 AND ISZERO PUSH2 0x100 MUL SUB AND PUSH1 0x2 SWAP1 DIV DUP1 ISZERO PUSH2 0x465 JUMPI DUP1 PUSH1 0x1F LT PUSH2 0x43A JUMPI PUSH2 0x100 DUP1 DUP4 SLOAD DIV MUL DUP4 MSTORE SWAP2 PUSH1 0x20 ADD SWAP2 PUSH2 0x465 JUMP JUMPDEST DUP3 ADD SWAP2 SWAP1 PUSH1 0x0 MSTORE PUSH1 0x20 PUSH1 0x0 KECCAK256 SWAP1 JUMPDEST DUP2 SLOAD DUP2 MSTORE SWAP1 PUSH1 0x1 ADD SWAP1 PUSH1 0x20 ADD DUP1 DUP4 GT PUSH2 0x448 JUMPI DUP3 SWAP1 SUB PUSH1 0x1F AND DUP3 ADD SWAP2 JUMPDEST POP POP POP POP POP DUP2 JUMP JUMPDEST PUSH1 0x60 PUSH1 0x5 DUP1 SLOAD PUSH1 0x1 DUP2 PUSH1 0x1 AND ISZERO PUSH2 0x100 MUL SUB AND PUSH1 0x2 SWAP1 DIV DUP1 PUSH1 0x1F ADD PUSH1 0x20 DUP1 SWAP2 DIV MUL PUSH1 0x20 ADD PUSH1 0x40 MLOAD SWAP1 DUP2 ADD PUSH1 0x40 MSTORE DUP1 SWAP3 SWAP2 SWAP1 DUP2 DUP2 MSTORE PUSH1 0x20 ADD DUP3 DUP1 SLOAD PUSH1 0x1 DUP2 PUSH1 0x1 AND ISZERO PUSH2 0x100 MUL SUB AND PUSH1 0x2 SWAP1 DIV DUP1 ISZERO PUSH2 0x505 JUMPI DUP1 PUSH1 0x1F LT PUSH2 0x4DA JUMPI PUSH2 0x100 DUP1 DUP4 SLOAD DIV MUL DUP4 MSTORE SWAP2 PUSH1 0x20 ADD SWAP2 PUSH2 0x505 JUMP JUMPDEST DUP3 ADD SWAP2 SWAP1 PUSH1 0x0 MSTORE PUSH1 0x20 PUSH1 0x0 KECCAK256 SWAP1 JUMPDEST DUP2 SLOAD DUP2 MSTORE SWAP1 PUSH1 0x1 ADD SWAP1 PUSH1 0x20 ADD DUP1 DUP4 GT PUSH2 0x4E8 JUMPI DUP3 SWAP1 SUB PUSH1 0x1F AND DUP3 ADD SWAP2 JUMPDEST POP POP POP POP POP SWAP1 POP SWAP1 JUMP JUMPDEST PUSH1 0x60 PUSH1 0x3 DUP1 SLOAD PUSH1 0x1 DUP2 PUSH1 0x1 AND ISZERO PUSH2 0x100 MUL SUB AND PUSH1 0x2 SWAP1 DIV DUP1 PUSH1 0x1F ADD PUSH1 0x20 DUP1 SWAP2 DIV MUL PUSH1 0x20 ADD PUSH1 0x40 MLOAD SWAP1 DUP2 ADD PUSH1 0x40 MSTORE DUP1 SWAP3 SWAP2 SWAP1 DUP2 DUP2 MSTORE PUSH1 0x20 ADD DUP3 DUP1 SLOAD PUSH1 0x1 DUP2 PUSH1 0x1 AND ISZERO PUSH2 0x100 MUL SUB AND PUSH1 0x2 SWAP1 DIV DUP1 ISZERO PUSH2 0x5A7 JUMPI DUP1 PUSH1 0x1F LT PUSH2 0x57C JUMPI PUSH2 0x100 DUP1 DUP4 SLOAD DIV MUL DUP4 MSTORE SWAP2 PUSH1 0x20 ADD SWAP2 PUSH2 0x5A7 JUMP JUMPDEST DUP3 ADD SWAP2 SWAP1 PUSH1 0x0 MSTORE PUSH1 0x20 PUSH1 0x0 KECCAK256 SWAP1 JUMPDEST DUP2 SLOAD DUP2 MSTORE SWAP1 PUSH1 0x1 ADD SWAP1 PUSH1 0x20 ADD DUP1 DUP4 GT PUSH2 0x58A JUMPI DUP3 SWAP1 SUB PUSH1 0x1F AND DUP3 ADD SWAP2 JUMPDEST POP POP POP POP POP SWAP1 POP SWAP1 JUMP JUMPDEST PUSH1 0x60 PUSH1 0x4 DUP1 SLOAD PUSH1 0x1 DUP2 PUSH1 0x1 AND ISZERO PUSH2 0x100 MUL SUB AND PUSH1 0x2 SWAP1 DIV DUP1 PUSH1 0x1F ADD PUSH1 0x20 DUP1 SWAP2 DIV MUL PUSH1 0x20 ADD PUSH1 0x40 MLOAD SWAP1 DUP2 ADD PUSH1 0x40 MSTORE DUP1 SWAP3 SWAP2 SWAP1 DUP2 DUP2 MSTORE PUSH1 0x20 ADD DUP3 DUP1 SLOAD PUSH1 0x1 DUP2 PUSH1 0x1 AND ISZERO PUSH2 0x100 MUL SUB AND PUSH1 0x2 SWAP1 DIV DUP1 ISZERO PUSH2 0x649 JUMPI DUP1 PUSH1 0x1F LT PUSH2 0x61E JUMPI PUSH2 0x100 DUP1 DUP4 SLOAD DIV MUL DUP4 MSTORE SWAP2 PUSH1 0x20 ADD SWAP2 PUSH2 0x649 JUMP JUMPDEST DUP3 ADD SWAP2 SWAP1 PUSH1 0x0 MSTORE PUSH1 0x20 PUSH1 0x0 KECCAK256 SWAP1 JUMPDEST DUP2 SLOAD DUP2 MSTORE SWAP1 PUSH1 0x1 ADD SWAP1 PUSH1 0x20 ADD DUP1 DUP4 GT PUSH2 0x62C JUMPI DUP3 SWAP1 SUB PUSH1 0x1F AND DUP3 ADD SWAP2 JUMPDEST POP POP POP POP POP SWAP1 POP SWAP1 JUMP JUMPDEST PUSH1 0x4 DUP1 SLOAD PUSH1 0x1 DUP2 PUSH1 0x1 AND ISZERO PUSH2 0x100 MUL SUB AND PUSH1 0x2 SWAP1 DIV DUP1 PUSH1 0x1F ADD PUSH1 0x20 DUP1 SWAP2 DIV MUL PUSH1 0x20 ADD PUSH1 0x40 MLOAD SWAP1 DUP2 ADD PUSH1 0x40 MSTORE DUP1 SWAP3 SWAP2 SWAP1 DUP2 DUP2 MSTORE PUSH1 0x20 ADD DUP3 DUP1 SLOAD PUSH1 0x1 DUP2 PUSH1 0x1 AND ISZERO PUSH2 0x100 MUL SUB AND PUSH1 0x2 SWAP1 DIV DUP1 ISZERO PUSH2 0x6E9 JUMPI DUP1 PUSH1 0x1F LT PUSH2 0x6BE JUMPI PUSH2 0x100 DUP1 DUP4 SLOAD DIV MUL DUP4 MSTORE SWAP2 PUSH1 0x20 ADD SWAP2 PUSH2 0x6E9 JUMP JUMPDEST DUP3 ADD SWAP2 SWAP1 PUSH1 0x0 MSTORE PUSH1 0x20 PUSH1 0x0 KECCAK256 SWAP1 JUMPDEST DUP2 SLOAD DUP2 MSTORE SWAP1 PUSH1 0x1 ADD SWAP1 PUSH1 0x20 ADD DUP1 DUP4 GT PUSH2 0x6CC JUMPI DUP3 SWAP1 SUB PUSH1 0x1F AND DUP3 ADD SWAP2 JUMPDEST POP POP POP POP POP DUP2 JUMP JUMPDEST PUSH1 0x60 PUSH1 0x6 DUP1 SLOAD PUSH1 0x1 DUP2 PUSH1 0x1 AND ISZERO PUSH2 0x100 MUL SUB AND PUSH1 0x2 SWAP1 DIV DUP1 PUSH1 0x1F ADD PUSH1 0x20 DUP1 SWAP2 DIV MUL PUSH1 0x20 ADD PUSH1 0x40 MLOAD SWAP1 DUP2 ADD PUSH1 0x40 MSTORE DUP1 SWAP3 SWAP2 SWAP1 DUP2 DUP2 MSTORE PUSH1 0x20 ADD DUP3 DUP1 SLOAD PUSH1 0x1 DUP2 PUSH1 0x1 AND ISZERO PUSH2 0x100 MUL SUB AND PUSH1 0x2 SWAP1 DIV DUP1 ISZERO PUSH2 0x789 JUMPI DUP1 PUSH1 0x1F LT PUSH2 0x75E JUMPI PUSH2 0x100 DUP1 DUP4 SLOAD DIV MUL DUP4 MSTORE SWAP2 PUSH1 0x20 ADD SWAP2 PUSH2 0x789 JUMP JUMPDEST DUP3 ADD SWAP2 SWAP1 PUSH1 0x0 MSTORE PUSH1 0x20 PUSH1 0x0 KECCAK256 SWAP1 JUMPDEST DUP2 SLOAD DUP2 MSTORE SWAP1 PUSH1 0x1 ADD SWAP1 PUSH1 0x20 ADD DUP1 DUP4 GT PUSH2 0x76C JUMPI DUP3 SWAP1 SUB PUSH1 0x1F AND DUP3 ADD SWAP2 JUMPDEST POP POP POP POP POP SWAP1 POP SWAP1 JUMP JUMPDEST PUSH1 0x6 DUP1 SLOAD PUSH1 0x1 DUP2 PUSH1 0x1 AND ISZERO PUSH2 0x100 MUL SUB AND PUSH1 0x2 SWAP1 DIV DUP1 PUSH1 0x1F ADD PUSH1 0x20 DUP1 SWAP2 DIV MUL PUSH1 0x20 ADD PUSH1 0x40 MLOAD SWAP1 DUP2 ADD PUSH1 0x40 MSTORE DUP1 SWAP3 SWAP2 SWAP1 DUP2 DUP2 MSTORE PUSH1 0x20 ADD DUP3 DUP1 SLOAD PUSH1 0x1 DUP2 PUSH1 0x1 AND ISZERO PUSH2 0x100 MUL SUB AND PUSH1 0x2 SWAP1 DIV DUP1 ISZERO PUSH2 0x829 JUMPI DUP1 PUSH1 0x1F LT PUSH2 0x7FE JUMPI PUSH2 0x100 DUP1 DUP4 SLOAD DIV MUL DUP4 MSTORE SWAP2 PUSH1 0x20 ADD SWAP2 PUSH2 0x829 JUMP JUMPDEST DUP3 ADD SWAP2 SWAP1 PUSH1 0x0 MSTORE PUSH1 0x20 PUSH1 0x0 KECCAK256 SWAP1 JUMPDEST DUP2 SLOAD DUP2 MSTORE SWAP1 PUSH1 0x1 ADD SWAP1 PUSH1 0x20 ADD DUP1 DUP4 GT PUSH2 0x80C JUMPI DUP3 SWAP1 SUB PUSH1 0x1F AND DUP3 ADD SWAP2 JUMPDEST POP POP POP POP POP DUP2 JUMP JUMPDEST PUSH1 0x3 DUP1 SLOAD PUSH1 0x1 DUP2 PUSH1 0x1 AND ISZERO PUSH2 0x100 MUL SUB AND PUSH1 0x2 SWAP1 DIV DUP1 PUSH1 0x1F ADD PUSH1 0x20 DUP1 SWAP2 DIV MUL PUSH1 0x20 ADD PUSH1 0x40 MLOAD SWAP1 DUP2 ADD PUSH1 0x40 MSTORE DUP1 SWAP3 SWAP2 SWAP1 DUP2 DUP2 MSTORE PUSH1 0x20 ADD DUP3 DUP1 SLOAD PUSH1 0x1 DUP2 PUSH1 0x1 AND ISZERO PUSH2 0x100 MUL SUB AND PUSH1 0x2 SWAP1 DIV DUP1 ISZERO PUSH2 0x8C7 JUMPI DUP1 PUSH1 0x1F LT PUSH2 0x89C JUMPI PUSH2 0x100 DUP1 DUP4 SLOAD DIV MUL DUP4 MSTORE SWAP2 PUSH1 0x20 ADD SWAP2 PUSH2 0x8C7 JUMP JUMPDEST DUP3 ADD SWAP2 SWAP1 PUSH1 0x0 MSTORE PUSH1 0x20 PUSH1 0x0 KECCAK256 SWAP1 JUMPDEST DUP2 SLOAD DUP2 MSTORE SWAP1 PUSH1 0x1 ADD SWAP1 PUSH1 0x20 ADD DUP1 DUP4 GT PUSH2 0x8AA JUMPI DUP3 SWAP1 SUB PUSH1 0x1F AND DUP3 ADD SWAP2 JUMPDEST POP POP POP POP POP DUP2 JUMP JUMPDEST PUSH1 0x60 PUSH1 0x2 DUP1 SLOAD PUSH1 0x1 DUP2 PUSH1 0x1 AND ISZERO PUSH2 0x100 MUL SUB AND PUSH1 0x2 SWAP1 DIV DUP1 PUSH1 0x1F ADD PUSH1 0x20 DUP1 SWAP2 DIV MUL PUSH1 0x20 ADD PUSH1 0x40 MLOAD SWAP1 DUP2 ADD PUSH1 0x40 MSTORE DUP1 SWAP3 SWAP2 SWAP1 DUP2 DUP2 MSTORE PUSH1 0x20 ADD DUP3 DUP1 SLOAD PUSH1 0x1 DUP2 PUSH1 0x1 AND ISZERO PUSH2 0x100 MUL SUB AND PUSH1 0x2 SWAP1 DIV DUP1 ISZERO PUSH2 0x967 JUMPI DUP1 PUSH1 0x1F LT PUSH2 0x93C JUMPI PUSH2 0x100 DUP1 DUP4 SLOAD DIV MUL DUP4 MSTORE SWAP2 PUSH1 0x20 ADD SWAP2 PUSH2 0x967 JUMP JUMPDEST DUP3 ADD SWAP2 SWAP1 PUSH1 0x0 MSTORE PUSH1 0x20 PUSH1 0x0 KECCAK256 SWAP1 JUMPDEST DUP2 SLOAD DUP2 MSTORE SWAP1 PUSH1 0x1 ADD SWAP1 PUSH1 0x20 ADD DUP1 DUP4 GT PUSH2 0x94A JUMPI DUP3 SWAP1 SUB PUSH1 0x1F AND DUP3 ADD SWAP2 JUMPDEST POP POP POP POP POP SWAP1 POP SWAP1 JUMP JUMPDEST PUSH1 0x60 PUSH1 0x0 DUP1 SLOAD PUSH1 0x1 DUP2 PUSH1 0x1 AND ISZERO PUSH2 0x100 MUL SUB AND PUSH1 0x2 SWAP1 DIV DUP1 PUSH1 0x1F ADD PUSH1 0x20 DUP1 SWAP2 DIV MUL PUSH1 0x20 ADD PUSH1 0x40 MLOAD SWAP1 DUP2 ADD PUSH1 0x40 MSTORE DUP1 SWAP3 SWAP2 SWAP1 DUP2 DUP2 MSTORE PUSH1 0x20 ADD DUP3 DUP1 SLOAD PUSH1 0x1 DUP2 PUSH1 0x1 AND ISZERO PUSH2 0x100 MUL SUB AND PUSH1 0x2 SWAP1 DIV DUP1 ISZERO PUSH2 0xA09 JUMPI DUP1 PUSH1 0x1F LT PUSH2 0x9DE JUMPI PUSH2 0x100 DUP1 DUP4 SLOAD DIV MUL DUP4 MSTORE SWAP2 PUSH1 0x20 ADD SWAP2 PUSH2 0xA09 JUMP JUMPDEST DUP3 ADD SWAP2 SWAP1 PUSH1 0x0 MSTORE PUSH1 0x20 PUSH1 0x0 KECCAK256 SWAP1 JUMPDEST DUP2 SLOAD DUP2 MSTORE SWAP1 PUSH1 0x1 ADD SWAP1 PUSH1 0x20 ADD DUP1 DUP4 GT PUSH2 0x9EC JUMPI DUP3 SWAP1 SUB PUSH1 0x1F AND DUP3 ADD SWAP2 JUMPDEST POP POP POP POP POP SWAP1 POP SWAP1 JUMP JUMPDEST PUSH1 0x60 PUSH1 0x1 DUP1 SLOAD PUSH1 0x1 DUP2 PUSH1 0x1 AND ISZERO PUSH2 0x100 MUL SUB AND PUSH1 0x2 SWAP1 DIV DUP1 PUSH1 0x1F ADD PUSH1 0x20 DUP1 SWAP2 DIV MUL PUSH1 0x20 ADD PUSH1 0x40 MLOAD SWAP1 DUP2 ADD PUSH1 0x40 MSTORE DUP1 SWAP3 SWAP2 SWAP1 DUP2 DUP2 MSTORE PUSH1 0x20 ADD DUP3 DUP1 SLOAD PUSH1 0x1 DUP2 PUSH1 0x1 AND ISZERO PUSH2 0x100 MUL SUB AND PUSH1 0x2 SWAP1 DIV DUP1 ISZERO PUSH2 0xAAB JUMPI DUP1 PUSH1 0x1F LT PUSH2 0xA80 JUMPI PUSH2 0x100 DUP1 DUP4 SLOAD DIV MUL DUP4 MSTORE SWAP2 PUSH1 0x20 ADD SWAP2 PUSH2 0xAAB JUMP JUMPDEST DUP3 ADD SWAP2 SWAP1 PUSH1 0x0 MSTORE PUSH1 0x20 PUSH1 0x0 KECCAK256 SWAP1 JUMPDEST DUP2 SLOAD DUP2 MSTORE SWAP1 PUSH1 0x1 ADD SWAP1 PUSH1 0x20 ADD DUP1 DUP4 GT PUSH2 0xA8E JUMPI DUP3 SWAP1 SUB PUSH1 0x1F AND DUP3 ADD SWAP2 JUMPDEST POP POP POP POP POP SWAP1 POP SWAP1 JUMP JUMPDEST PUSH1 0x0 DUP1 SLOAD PUSH1 0x1 DUP2 PUSH1 0x1 AND ISZERO PUSH2 0x100 MUL SUB AND PUSH1 0x2 SWAP1 DIV DUP1 PUSH1 0x1F ADD PUSH1 0x20 DUP1 SWAP2 DIV MUL PUSH1 0x20 ADD PUSH1 0x40 MLOAD SWAP1 DUP2 ADD PUSH1 0x40 MSTORE DUP1 SWAP3 SWAP2 SWAP1 DUP2 DUP2 MSTORE PUSH1 0x20 ADD DUP3 DUP1 SLOAD PUSH1 0x1 DUP2 PUSH1 0x1 AND ISZERO PUSH2 0x100 MUL SUB AND PUSH1 0x2 SWAP1 DIV DUP1 ISZERO PUSH2 0xB4B JUMPI DUP1 PUSH1 0x1F LT PUSH2 0xB20 JUMPI PUSH2 0x100 DUP1 DUP4 SLOAD DIV MUL DUP4 MSTORE SWAP2 PUSH1 0x20 ADD SWAP2 PUSH2 0xB4B JUMP JUMPDEST DUP3 ADD SWAP2 SWAP1 PUSH1 0x0 MSTORE PUSH1 0x20 PUSH1 0x0 KECCAK256 SWAP1 JUMPDEST DUP2 SLOAD DUP2 MSTORE SWAP1 PUSH1 0x1 ADD SWAP1 PUSH1 0x20 ADD DUP1 DUP4 GT PUSH2 0xB2E JUMPI DUP3 SWAP1 SUB PUSH1 0x1F AND DUP3 ADD SWAP2 JUMPDEST POP POP POP POP POP DUP2 JUMP JUMPDEST PUSH1 0x0 PUSH2 0xB5E DUP3 PUSH2 0xC14 JUMP JUMPDEST PUSH2 0xB68 DUP2 DUP6 PUSH2 0xC1F JUMP JUMPDEST SWAP4 POP PUSH2 0xB78 DUP2 DUP6 PUSH1 0x20 DUP7 ADD PUSH2 0xC30 JUMP JUMPDEST PUSH2 0xB81 DUP2 PUSH2 0xC63 JUMP JUMPDEST DUP5 ADD SWAP2 POP POP SWAP3 SWAP2 POP POP JUMP JUMPDEST PUSH1 0x0 PUSH2 0xB97 DUP3 PUSH2 0xC09 JUMP JUMPDEST PUSH2 0xBA1 DUP2 DUP6 PUSH2 0xC1F JUMP JUMPDEST SWAP4 POP PUSH2 0xBB1 DUP2 DUP6 PUSH1 0x20 DUP7 ADD PUSH2 0xC30 JUMP JUMPDEST PUSH2 0xBBA DUP2 PUSH2 0xC63 JUMP JUMPDEST DUP5 ADD SWAP2 POP POP SWAP3 SWAP2 POP POP JUMP JUMPDEST PUSH1 0x0 PUSH1 0x20 DUP3 ADD SWAP1 POP DUP2 DUP2 SUB PUSH1 0x0 DUP4 ADD MSTORE PUSH2 0xBDF DUP2 DUP5 PUSH2 0xB8C JUMP JUMPDEST SWAP1 POP SWAP3 SWAP2 POP POP JUMP JUMPDEST PUSH1 0x0 PUSH1 0x20 DUP3 ADD SWAP1 POP DUP2 DUP2 SUB PUSH1 0x0 DUP4 ADD MSTORE PUSH2 0xC01 DUP2 DUP5 PUSH2 0xB53 JUMP JUMPDEST SWAP1 POP SWAP3 SWAP2 POP POP JUMP JUMPDEST PUSH1 0x0 DUP2 MLOAD SWAP1 POP SWAP2 SWAP1 POP JUMP JUMPDEST PUSH1 0x0 DUP2 MLOAD SWAP1 POP SWAP2 SWAP1 POP JUMP JUMPDEST PUSH1 0x0 DUP3 DUP3 MSTORE PUSH1 0x20 DUP3 ADD SWAP1 POP SWAP3 SWAP2 POP POP JUMP JUMPDEST PUSH1 0x0 JUMPDEST DUP4 DUP2 LT ISZERO PUSH2 0xC4E JUMPI DUP1 DUP3 ADD MLOAD DUP2 DUP5 ADD MSTORE PUSH1 0x20 DUP2 ADD SWAP1 POP PUSH2 0xC33 JUMP JUMPDEST DUP4 DUP2 GT ISZERO PUSH2 0xC5D JUMPI PUSH1 0x0 DUP5 DUP5 ADD MSTORE JUMPDEST POP POP POP POP JUMP JUMPDEST PUSH1 0x0 PUSH1 0x1F NOT PUSH1 0x1F DUP4 ADD AND SWAP1 POP SWAP2 SWAP1 POP JUMP INVALID LOG3 PUSH6 0x627A7A723158 KECCAK256 0x4C 0xE8 RETURN DUP16 SELFDESTRUCT 0xEE 0xBB PUSH32 0x29BBA93B996443380EA8E7E0A7C67BB50A9E8671072E59EB6C6578706572696D PUSH6 0x6E74616CF564 PUSH20 0x6F6C634300051100400000000000000000000000 "
				},
				"gasEstimates": {
					"creation": {
						"codeDepositCost": "651000",
						"executionCost": "infinite",
						"totalCost": "infinite"
					},
					"external": {
						"date_of_policy()": "infinite",
						"duration()": "infinite",
						"getDate_of_policy()": "infinite",
						"getDuration()": "infinite",
						"getEmailAddress()": "infinite",
						"getName()": "infinite",
						"getPhone()": "infinite",
						"getPolicy()": "infinite",
						"getPrice()": "infinite",
						"message()": "infinite",
						"name()": "infinite",
						"phone()": "infinite",
						"policy()": "infinite",
						"price()": "infinite"
					}
				},
				"methodIdentifiers": {
					"date_of_policy()": "aa3c542d",
					"duration()": "0fb5a6b4",
					"getDate_of_policy()": "20bdd61d",
					"getDuration()": "ad2e8c9b",
					"getEmailAddress()": "c4382fa6",
					"getName()": "17d7de7c",
					"getPhone()": "8863bab0",
					"getPolicy()": "ce1e4626",
					"getPrice()": "98d5fdca",
					"message()": "e21f37ce",
					"name()": "06fdde03",
					"phone()": "9284f497",
					"policy()": "0505c8c9",
					"price()": "a035b1fe"
				}
			},
			"storageLayout": {
				"storage": [
					{
						"astId": 20,
						"contract": "contracts/clientfactory.sol:PolicySmartContract",
						"label": "message",
						"offset": 0,
						"slot": "0",
						"type": "t_string_storage"
					},
					{
						"astId": 22,
						"contract": "contracts/clientfactory.sol:PolicySmartContract",
						"label": "policy",
						"offset": 0,
						"slot": "1",
						"type": "t_string_storage"
					},
					{
						"astId": 24,
						"contract": "contracts/clientfactory.sol:PolicySmartContract",
						"label": "duration",
						"offset": 0,
						"slot": "2",
						"type": "t_string_storage"
					},
					{
						"astId": 26,
						"contract": "contracts/clientfactory.sol:PolicySmartContract",
						"label": "date_of_policy",
						"offset": 0,
						"slot": "3",
						"type": "t_string_storage"
					},
					{
						"astId": 28,
						"contract": "contracts/clientfactory.sol:PolicySmartContract",
						"label": "phone",
						"offset": 0,
						"slot": "4",
						"type": "t_string_storage"
					},
					{
						"astId": 30,
						"contract": "contracts/clientfactory.sol:PolicySmartContract",
						"label": "name",
						"offset": 0,
						"slot": "5",
						"type": "t_string_storage"
					},
					{
						"astId": 32,
						"contract": "contracts/clientfactory.sol:PolicySmartContract",
						"label": "price",
						"offset": 0,
						"slot": "6",
						"type": "t_string_storage"
					}
				],
				"types": {
					"t_string_storage": {
						"encoding": "bytes",
						"label": "string",
						"numberOfBytes": "32"
					}
				}
			},
			"userdoc": {
				"methods": {}
			}
		}
	}
}