{
  "_format": "hh-sol-artifact-1",
  "contractName": "FirebaseSystem",
  "sourceName": "contracts/firebase.sol",
  "abi": [
    {
      "inputs": [],
      "stateMutability": "nonpayable",
      "type": "constructor"
    },
    {
      "inputs": [
        {
          "internalType": "uint256",
          "name": "_paymentStatus",
          "type": "uint256"
        },
        {
          "internalType": "string",
          "name": "_date",
          "type": "string"
        },
        {
          "internalType": "address",
          "name": "_addr",
          "type": "address"
        }
      ],
      "name": "checkForSpecificAddress",
      "outputs": [
        {
          "internalType": "address",
          "name": "",
          "type": "address"
        }
      ],
      "stateMutability": "view",
      "type": "function"
    },
    {
      "inputs": [
        {
          "internalType": "uint256",
          "name": "_oldStatus",
          "type": "uint256"
        },
        {
          "internalType": "string",
          "name": "_date",
          "type": "string"
        },
        {
          "internalType": "address",
          "name": "_addr",
          "type": "address"
        }
      ],
      "name": "removeAddressToChangeAddress",
      "outputs": [],
      "stateMutability": "nonpayable",
      "type": "function"
    },
    {
      "inputs": [
        {
          "internalType": "uint256",
          "name": "_paymentStatus",
          "type": "uint256"
        },
        {
          "internalType": "string",
          "name": "_date",
          "type": "string"
        }
      ],
      "name": "retrieveAddress",
      "outputs": [
        {
          "internalType": "address[]",
          "name": "",
          "type": "address[]"
        }
      ],
      "stateMutability": "view",
      "type": "function"
    },
    {
      "inputs": [
        {
          "internalType": "uint256",
          "name": "_paymentStatus",
          "type": "uint256"
        },
        {
          "internalType": "string",
          "name": "_date",
          "type": "string"
        },
        {
          "internalType": "address",
          "name": "_addr",
          "type": "address"
        }
      ],
      "name": "storeAddressByPaymentStatus",
      "outputs": [],
      "stateMutability": "nonpayable",
      "type": "function"
    }
  ],
  "bytecode": "0x60806040523480156200001157600080fd5b506200006f60006040518060400160405280600481526020017f30373132000000000000000000000000000000000000000000000000000000008152507370eda919278179ba6e546f7edeaf2383ce41cc4e6200018c60201b60201c565b620000cc60006040518060400160405280600481526020017f303731320000000000000000000000000000000000000000000000000000000081525073f093c5a67aa483923ff5aa96d16fca851f16392d6200018c60201b60201c565b6200012960006040518060400160405280600481526020017f303831320000000000000000000000000000000000000000000000000000000081525073f093c5a67aa483923ff5aa96d16fca851f16392d6200018c60201b60201c565b6200018660006040518060400160405280600481526020017f303831320000000000000000000000000000000000000000000000000000000081525073f093c5a67aa483923ff5aa96d16fca851f16392d6200018c60201b60201c565b620002be565b60008084815260200190815260200160002082604051620001ae919062000259565b9081526020016040518091039020819080600181540180825580915050600190039060005260206000200160009091909190916101000a81548173ffffffffffffffffffffffffffffffffffffffff021916908373ffffffffffffffffffffffffffffffffffffffff160217905550505050565b60006200022f8262000272565b6200023b81856200027d565b93506200024d81856020860162000288565b80840191505092915050565b600062000267828462000222565b915081905092915050565b600081519050919050565b600081905092915050565b60005b83811015620002a85780820151818401526020810190506200028b565b83811115620002b8576000848401525b50505050565b610c2f80620002ce6000396000f3fe608060405234801561001057600080fd5b506004361061004c5760003560e01c806344f563fe14610051578063563ac793146100815780639c7008c2146100b1578063a712fdd1146100cd575b600080fd5b61006b60048036038101906100669190610738565b6100e9565b6040516100789190610935565b60405180910390f35b61009b600480360381019061009691906106d8565b61025a565b6040516100a89190610950565b60405180910390f35b6100cb60048036038101906100c691906107ac565b6103f3565b005b6100e760048036038101906100e291906107ac565b610487565b005b60008060005b6000808881526020019081526020016000208686604051610111929190610905565b90815260200160405180910390208054905081101561024d57600080888152602001908152602001600020868660405161014c929190610905565b9081526020016040518091039020818154811061016c5761016b610b3e565b5b9060005260206000200160009054906101000a900473ffffffffffffffffffffffffffffffffffffffff1673ffffffffffffffffffffffffffffffffffffffff168473ffffffffffffffffffffffffffffffffffffffff16141561023a5760008088815260200190815260200160002086866040516101ec929190610905565b9081526020016040518091039020818154811061020c5761020b610b3e565b5b9060005260206000200160009054906101000a900473ffffffffffffffffffffffffffffffffffffffff1691505b808061024590610ac6565b9150506100ef565b5080915050949350505050565b606060008060008681526020019081526020016000208484604051610280929190610905565b90815260200160405180910390208054905067ffffffffffffffff8111156102ab576102aa610b6d565b5b6040519080825280602002602001820160405280156102d95781602001602082028036833780820191505090505b50905060005b6000808781526020019081526020016000208585604051610301929190610905565b9081526020016040518091039020805490508110156103e757600080878152602001908152602001600020858560405161033c929190610905565b9081526020016040518091039020818154811061035c5761035b610b3e565b5b9060005260206000200160009054906101000a900473ffffffffffffffffffffffffffffffffffffffff1682828151811061039a57610399610b3e565b5b602002602001019073ffffffffffffffffffffffffffffffffffffffff16908173ffffffffffffffffffffffffffffffffffffffff168152505080806103df90610ac6565b9150506102df565b50809150509392505050565b60008084815260200190815260200160002082604051610413919061091e565b9081526020016040518091039020819080600181540180825580915050600190039060005260206000200160009091909190916101000a81548173ffffffffffffffffffffffffffffffffffffffff021916908373ffffffffffffffffffffffffffffffffffffffff160217905550505050565b60005b600080858152602001908152602001600020836040516104aa919061091e565b9081526020016040518091039020805490508110156105e257600080858152602001908152602001600020836040516104e3919061091e565b9081526020016040518091039020818154811061050357610502610b3e565b5b9060005260206000200160009054906101000a900473ffffffffffffffffffffffffffffffffffffffff1673ffffffffffffffffffffffffffffffffffffffff168273ffffffffffffffffffffffffffffffffffffffff1614156105cf5760008085815260200190815260200160002083604051610581919061091e565b908152602001604051809103902081815481106105a1576105a0610b3e565b5b9060005260206000200160006101000a81549073ffffffffffffffffffffffffffffffffffffffff02191690555b80806105da90610ac6565b91505061048a565b50505050565b60006105fb6105f684610997565b610972565b90508281526020810184848401111561061757610616610bab565b5b610622848285610a53565b509392505050565b60008135905061063981610bcb565b92915050565b60008083601f84011261065557610654610ba1565b5b8235905067ffffffffffffffff81111561067257610671610b9c565b5b60208301915083600182028301111561068e5761068d610ba6565b5b9250929050565b600082601f8301126106aa576106a9610ba1565b5b81356106ba8482602086016105e8565b91505092915050565b6000813590506106d281610be2565b92915050565b6000806000604084860312156106f1576106f0610bb5565b5b60006106ff868287016106c3565b935050602084013567ffffffffffffffff8111156107205761071f610bb0565b5b61072c8682870161063f565b92509250509250925092565b6000806000806060858703121561075257610751610bb5565b5b6000610760878288016106c3565b945050602085013567ffffffffffffffff81111561078157610780610bb0565b5b61078d8782880161063f565b935093505060406107a08782880161062a565b91505092959194509250565b6000806000606084860312156107c5576107c4610bb5565b5b60006107d3868287016106c3565b935050602084013567ffffffffffffffff8111156107f4576107f3610bb0565b5b61080086828701610695565b92505060406108118682870161062a565b9150509250925092565b60006108278383610833565b60208301905092915050565b61083c81610a17565b82525050565b61084b81610a17565b82525050565b600061085c826109d8565b61086681856109fb565b9350610871836109c8565b8060005b838110156108a2578151610889888261081b565b9750610894836109ee565b925050600181019050610875565b5085935050505092915050565b60006108bb8385610a0c565b93506108c8838584610a53565b82840190509392505050565b60006108df826109e3565b6108e98185610a0c565b93506108f9818560208601610a62565b80840191505092915050565b60006109128284866108af565b91508190509392505050565b600061092a82846108d4565b915081905092915050565b600060208201905061094a6000830184610842565b92915050565b6000602082019050818103600083015261096a8184610851565b905092915050565b600061097c61098d565b90506109888282610a95565b919050565b6000604051905090565b600067ffffffffffffffff8211156109b2576109b1610b6d565b5b6109bb82610bba565b9050602081019050919050565b6000819050602082019050919050565b600081519050919050565b600081519050919050565b6000602082019050919050565b600082825260208201905092915050565b600081905092915050565b6000610a2282610a29565b9050919050565b600073ffffffffffffffffffffffffffffffffffffffff82169050919050565b6000819050919050565b82818337600083830152505050565b60005b83811015610a80578082015181840152602081019050610a65565b83811115610a8f576000848401525b50505050565b610a9e82610bba565b810181811067ffffffffffffffff82111715610abd57610abc610b6d565b5b80604052505050565b6000610ad182610a49565b91507fffffffffffffffffffffffffffffffffffffffffffffffffffffffffffffffff821415610b0457610b03610b0f565b5b600182019050919050565b7f4e487b7100000000000000000000000000000000000000000000000000000000600052601160045260246000fd5b7f4e487b7100000000000000000000000000000000000000000000000000000000600052603260045260246000fd5b7f4e487b7100000000000000000000000000000000000000000000000000000000600052604160045260246000fd5b600080fd5b600080fd5b600080fd5b600080fd5b600080fd5b600080fd5b6000601f19601f8301169050919050565b610bd481610a17565b8114610bdf57600080fd5b50565b610beb81610a49565b8114610bf657600080fd5b5056fea2646970667358221220fbcb2d770bfb4b7bc7858e94fc102aa53d4e688c0d2bf4dc374d570af59c807f64736f6c63430008070033",
  "linkReferences": {},
  "deployedLinkReferences": {}
}