{
	"data": {
		"bytecode": {
			"linkReferences": {},
			"object": "6080604052601960005534801561001557600080fd5b50610103806100256000396000f3fe6080604052348015600f57600080fd5b506004361060325760003560e01c8063186c2e5f14603757806390f1f758146053575b600080fd5b603d607e565b6040518082815260200191505060405180910390f35b607c60048036036020811015606757600080fd5b81019080803590602001909291905050506087565b005b60008054905090565b80600054016000819055507f62b24dade1d60100598a2e47eeaae020444fac981892da639c830479473c5bab6000546040518082815260200191505060405180910390a15056fea265627a7a72315820574e82ad3aac3fa9a6498e22f5279e7c43d76720009a0f201c30003b96db203a64736f6c63430005110032",
			"opcodes": "PUSH1 0x80 PUSH1 0x40 MSTORE PUSH1 0x19 PUSH1 0x0 SSTORE CALLVALUE DUP1 ISZERO PUSH2 0x15 JUMPI PUSH1 0x0 DUP1 REVERT JUMPDEST POP PUSH2 0x103 DUP1 PUSH2 0x25 PUSH1 0x0 CODECOPY PUSH1 0x0 RETURN INVALID PUSH1 0x80 PUSH1 0x40 MSTORE CALLVALUE DUP1 ISZERO PUSH1 0xF JUMPI PUSH1 0x0 DUP1 REVERT JUMPDEST POP PUSH1 0x4 CALLDATASIZE LT PUSH1 0x32 JUMPI PUSH1 0x0 CALLDATALOAD PUSH1 0xE0 SHR DUP1 PUSH4 0x186C2E5F EQ PUSH1 0x37 JUMPI DUP1 PUSH4 0x90F1F758 EQ PUSH1 0x53 JUMPI JUMPDEST PUSH1 0x0 DUP1 REVERT JUMPDEST PUSH1 0x3D PUSH1 0x7E JUMP JUMPDEST PUSH1 0x40 MLOAD DUP1 DUP3 DUP2 MSTORE PUSH1 0x20 ADD SWAP2 POP POP PUSH1 0x40 MLOAD DUP1 SWAP2 SUB SWAP1 RETURN JUMPDEST PUSH1 0x7C PUSH1 0x4 DUP1 CALLDATASIZE SUB PUSH1 0x20 DUP2 LT ISZERO PUSH1 0x67 JUMPI PUSH1 0x0 DUP1 REVERT JUMPDEST DUP2 ADD SWAP1 DUP1 DUP1 CALLDATALOAD SWAP1 PUSH1 0x20 ADD SWAP1 SWAP3 SWAP2 SWAP1 POP POP POP PUSH1 0x87 JUMP JUMPDEST STOP JUMPDEST PUSH1 0x0 DUP1 SLOAD SWAP1 POP SWAP1 JUMP JUMPDEST DUP1 PUSH1 0x0 SLOAD ADD PUSH1 0x0 DUP2 SWAP1 SSTORE POP PUSH32 0x62B24DADE1D60100598A2E47EEAAE020444FAC981892DA639C830479473C5BAB PUSH1 0x0 SLOAD PUSH1 0x40 MLOAD DUP1 DUP3 DUP2 MSTORE PUSH1 0x20 ADD SWAP2 POP POP PUSH1 0x40 MLOAD DUP1 SWAP2 SUB SWAP1 LOG1 POP JUMP INVALID LOG2 PUSH6 0x627A7A723158 KECCAK256 JUMPI 0x4E DUP3 0xAD GASPRICE 0xAC EXTCODEHASH 0xA9 0xA6 0x49 DUP15 0x22 CREATE2 0x27 SWAP15 PUSH29 0x43D76720009A0F201C30003B96DB203A64736F6C634300051100320000 "
		},
		"gasEstimates": {
			"creation": {
				"codeDepositCost": "51800",
				"executionCost": "20111",
				"totalCost": "71911"
			},
			"external": {
				"Add(uint256)": "22915",
				"getInput()": "991"
			}
		},
		"methodIdentifiers": {
			"Add(uint256)": "90f1f758",
			"getInput()": "186c2e5f"
		}
	},
	"abi": [
		{
			"anonymous": false,
			"inputs": [
				{
					"indexed": false,
					"internalType": "uint256",
					"name": "plus",
					"type": "uint256"
				}
			],
			"name": "Plus",
			"type": "event"
		},
		{
			"constant": false,
			"inputs": [
				{
					"internalType": "uint256",
					"name": "add",
					"type": "uint256"
				}
			],
			"name": "Add",
			"outputs": [],
			"payable": false,
			"stateMutability": "nonpayable",
			"type": "function"
		},
		{
			"constant": true,
			"inputs": [],
			"name": "getInput",
			"outputs": [
				{
					"internalType": "uint256",
					"name": "",
					"type": "uint256"
				}
			],
			"payable": false,
			"stateMutability": "view",
			"type": "function"
		}
	]
}