{
  "contractName": "Alarm",
  "abi": [
    {
      "anonymous": false,
      "inputs": [
        {
          "indexed": false,
          "internalType": "uint256",
          "name": "plus",
          "type": "uint256"
        }
      ],
      "name": "Plus",
      "type": "event"
    },
    {
      "inputs": [
        {
          "internalType": "uint256",
          "name": "add",
          "type": "uint256"
        }
      ],
      "name": "Add",
      "outputs": [],
      "stateMutability": "nonpayable",
      "type": "function"
    },
    {
      "inputs": [],
      "name": "getInput",
      "outputs": [
        {
          "internalType": "uint256",
          "name": "",
          "type": "uint256"
        }
      ],
      "stateMutability": "view",
      "type": "function"
    }
  ],
  "bytecode": "0x6080604052601960005534801561001557600080fd5b506101f9806100256000396000f3fe608060405234801561001057600080fd5b50600436106100365760003560e01c8063186c2e5f1461003b57806390f1f75814610059575b600080fd5b610043610075565b60405161005091906100e7565b60405180910390f35b610073600480360381019061006e9190610133565b61007e565b005b60008054905090565b8060005461008c919061018f565b6000819055507f62b24dade1d60100598a2e47eeaae020444fac981892da639c830479473c5bab6000546040516100c391906100e7565b60405180910390a150565b6000819050919050565b6100e1816100ce565b82525050565b60006020820190506100fc60008301846100d8565b92915050565b600080fd5b610110816100ce565b811461011b57600080fd5b50565b60008135905061012d81610107565b92915050565b60006020828403121561014957610148610102565b5b60006101578482850161011e565b91505092915050565b7f4e487b7100000000000000000000000000000000000000000000000000000000600052601160045260246000fd5b600061019a826100ce565b91506101a5836100ce565b92508282019050808211156101bd576101bc610160565b5b9291505056fea264697066735822122065299ba74046579987bf4c051df9ffe4f0cd662973b06e88f7df970f2485b9f764736f6c63430008110033",
  "immutableReferences": {},
  "source": "//SPDX-License-Identifier: UNLICENSED\r\n\r\npragma solidity >=0.4.25 <0.9.0;\r\n\r\ncontract Alarm {\r\n    uint number = 25;\r\n    event Plus(uint plus);\r\n\r\n   function Add(uint add) public {\r\n       number = number + add;\r\n       emit Plus(number);\r\n   }\r\n   \r\n   function getInput() view public returns (uint) {\r\n       return number;\r\n   }\r\n}",
  "sourcePath": "c:\\Users\\weibo\\Desktop\\FYPJ\\Sprint 1\\Week 2\\Create Policy\\Sprint 4\\contracts\\alarm.sol",
  "compiler": {
    "name": "solc",
    "version": "0.8.17+commit.8df45f5f.Emscripten.clang"
  },
  "schemaVersion": "3.4.11",
  "updatedAt": "2022-12-19T04:57:11.791Z",
  "devdoc": {
    "kind": "dev",
    "methods": {},
    "version": 1
  },
  "userdoc": {
    "kind": "user",
    "methods": {},
    "version": 1
  }
}