{
  "contractName": "FirebaseSystem",
  "abi": [
    {
      "inputs": [],
      "stateMutability": "nonpayable",
      "type": "constructor"
    },
    {
      "inputs": [
        {
          "internalType": "uint256",
          "name": "_paymentStatus",
          "type": "uint256"
        },
        {
          "internalType": "string",
          "name": "_date",
          "type": "string"
        },
        {
          "internalType": "address",
          "name": "_addr",
          "type": "address"
        }
      ],
      "name": "storeAddressByPaymentStatus",
      "outputs": [],
      "stateMutability": "nonpayable",
      "type": "function"
    },
    {
      "inputs": [
        {
          "internalType": "uint256",
          "name": "_paymentStatus",
          "type": "uint256"
        },
        {
          "internalType": "string",
          "name": "_date",
          "type": "string"
        }
      ],
      "name": "retrieveAddress",
      "outputs": [
        {
          "internalType": "address[]",
          "name": "",
          "type": "address[]"
        }
      ],
      "stateMutability": "view",
      "type": "function"
    },
    {
      "inputs": [
        {
          "internalType": "uint256",
          "name": "_paymentStatus",
          "type": "uint256"
        },
        {
          "internalType": "string",
          "name": "_date",
          "type": "string"
        },
        {
          "internalType": "address",
          "name": "_addr",
          "type": "address"
        }
      ],
      "name": "checkForSpecificAddress",
      "outputs": [
        {
          "internalType": "address",
          "name": "",
          "type": "address"
        }
      ],
      "stateMutability": "view",
      "type": "function"
    },
    {
      "inputs": [
        {
          "internalType": "uint256",
          "name": "_oldStatus",
          "type": "uint256"
        },
        {
          "internalType": "string",
          "name": "_date",
          "type": "string"
        },
        {
          "internalType": "address",
          "name": "_addr",
          "type": "address"
        }
      ],
      "name": "removeAddressToChangeAddress",
      "outputs": [],
      "stateMutability": "nonpayable",
      "type": "function"
    }
  ],
  "bytecode": "0x60806040523480156200001157600080fd5b506200006f60006040518060400160405280600481526020017f30373132000000000000000000000000000000000000000000000000000000008152507370eda919278179ba6e546f7edeaf2383ce41cc4e6200018c60201b60201c565b620000cc60006040518060400160405280600481526020017f303731320000000000000000000000000000000000000000000000000000000081525073f093c5a67aa483923ff5aa96d16fca851f16392d6200018c60201b60201c565b6200012960006040518060400160405280600481526020017f303831320000000000000000000000000000000000000000000000000000000081525073f093c5a67aa483923ff5aa96d16fca851f16392d6200018c60201b60201c565b6200018660006040518060400160405280600481526020017f303831320000000000000000000000000000000000000000000000000000000081525073f093c5a67aa483923ff5aa96d16fca851f16392d6200018c60201b60201c565b620002b4565b60008084815260200190815260200160002082604051620001ae91906200029b565b9081526020016040518091039020819080600181540180825580915050600190039060005260206000200160009091909190916101000a81548173ffffffffffffffffffffffffffffffffffffffff021916908373ffffffffffffffffffffffffffffffffffffffff160217905550505050565b600081519050919050565b600081905092915050565b60005b83811015620002585780820151818401526020810190506200023b565b60008484015250505050565b6000620002718262000222565b6200027d81856200022d565b93506200028f81856020860162000238565b80840191505092915050565b6000620002a9828462000264565b915081905092915050565b610c2380620002c46000396000f3fe608060405234801561001057600080fd5b506004361061004c5760003560e01c806344f563fe14610051578063563ac793146100815780639c7008c2146100b1578063a712fdd1146100cd575b600080fd5b61006b600480360381019061006691906106f3565b6100e9565b6040516100789190610776565b60405180910390f35b61009b60048036038101906100969190610791565b610259565b6040516100a891906108af565b60405180910390f35b6100cb60048036038101906100c69190610a12565b6103f2565b005b6100e760048036038101906100e29190610a12565b610486565b005b60008060005b6000808881526020019081526020016000208686604051610111929190610ab1565b90815260200160405180910390208054905081101561024c57600080888152602001908152602001600020868660405161014c929190610ab1565b9081526020016040518091039020818154811061016c5761016b610aca565b5b9060005260206000200160009054906101000a900473ffffffffffffffffffffffffffffffffffffffff1673ffffffffffffffffffffffffffffffffffffffff168473ffffffffffffffffffffffffffffffffffffffff16036102395760008088815260200190815260200160002086866040516101eb929190610ab1565b9081526020016040518091039020818154811061020b5761020a610aca565b5b9060005260206000200160009054906101000a900473ffffffffffffffffffffffffffffffffffffffff1691505b808061024490610b28565b9150506100ef565b5080915050949350505050565b60606000806000868152602001908152602001600020848460405161027f929190610ab1565b90815260200160405180910390208054905067ffffffffffffffff8111156102aa576102a96108e7565b5b6040519080825280602002602001820160405280156102d85781602001602082028036833780820191505090505b50905060005b6000808781526020019081526020016000208585604051610300929190610ab1565b9081526020016040518091039020805490508110156103e657600080878152602001908152602001600020858560405161033b929190610ab1565b9081526020016040518091039020818154811061035b5761035a610aca565b5b9060005260206000200160009054906101000a900473ffffffffffffffffffffffffffffffffffffffff1682828151811061039957610398610aca565b5b602002602001019073ffffffffffffffffffffffffffffffffffffffff16908173ffffffffffffffffffffffffffffffffffffffff168152505080806103de90610b28565b9150506102de565b50809150509392505050565b600080848152602001908152602001600020826040516104129190610bd6565b9081526020016040518091039020819080600181540180825580915050600190039060005260206000200160009091909190916101000a81548173ffffffffffffffffffffffffffffffffffffffff021916908373ffffffffffffffffffffffffffffffffffffffff160217905550505050565b60005b600080858152602001908152602001600020836040516104a99190610bd6565b9081526020016040518091039020805490508110156105e057600080858152602001908152602001600020836040516104e29190610bd6565b9081526020016040518091039020818154811061050257610501610aca565b5b9060005260206000200160009054906101000a900473ffffffffffffffffffffffffffffffffffffffff1673ffffffffffffffffffffffffffffffffffffffff168273ffffffffffffffffffffffffffffffffffffffff16036105cd576000808581526020019081526020016000208360405161057f9190610bd6565b9081526020016040518091039020818154811061059f5761059e610aca565b5b9060005260206000200160006101000a81549073ffffffffffffffffffffffffffffffffffffffff02191690555b80806105d890610b28565b915050610489565b50505050565b6000604051905090565b600080fd5b600080fd5b6000819050919050565b61060d816105fa565b811461061857600080fd5b50565b60008135905061062a81610604565b92915050565b600080fd5b600080fd5b600080fd5b60008083601f84011261065557610654610630565b5b8235905067ffffffffffffffff81111561067257610671610635565b5b60208301915083600182028301111561068e5761068d61063a565b5b9250929050565b600073ffffffffffffffffffffffffffffffffffffffff82169050919050565b60006106c082610695565b9050919050565b6106d0816106b5565b81146106db57600080fd5b50565b6000813590506106ed816106c7565b92915050565b6000806000806060858703121561070d5761070c6105f0565b5b600061071b8782880161061b565b945050602085013567ffffffffffffffff81111561073c5761073b6105f5565b5b6107488782880161063f565b9350935050604061075b878288016106de565b91505092959194509250565b610770816106b5565b82525050565b600060208201905061078b6000830184610767565b92915050565b6000806000604084860312156107aa576107a96105f0565b5b60006107b88682870161061b565b935050602084013567ffffffffffffffff8111156107d9576107d86105f5565b5b6107e58682870161063f565b92509250509250925092565b600081519050919050565b600082825260208201905092915050565b6000819050602082019050919050565b610826816106b5565b82525050565b6000610838838361081d565b60208301905092915050565b6000602082019050919050565b600061085c826107f1565b61086681856107fc565b93506108718361080d565b8060005b838110156108a2578151610889888261082c565b975061089483610844565b925050600181019050610875565b5085935050505092915050565b600060208201905081810360008301526108c98184610851565b905092915050565b600080fd5b6000601f19601f8301169050919050565b7f4e487b7100000000000000000000000000000000000000000000000000000000600052604160045260246000fd5b61091f826108d6565b810181811067ffffffffffffffff8211171561093e5761093d6108e7565b5b80604052505050565b60006109516105e6565b905061095d8282610916565b919050565b600067ffffffffffffffff82111561097d5761097c6108e7565b5b610986826108d6565b9050602081019050919050565b82818337600083830152505050565b60006109b56109b084610962565b610947565b9050828152602081018484840111156109d1576109d06108d1565b5b6109dc848285610993565b509392505050565b600082601f8301126109f9576109f8610630565b5b8135610a098482602086016109a2565b91505092915050565b600080600060608486031215610a2b57610a2a6105f0565b5b6000610a398682870161061b565b935050602084013567ffffffffffffffff811115610a5a57610a596105f5565b5b610a66868287016109e4565b9250506040610a77868287016106de565b9150509250925092565b600081905092915050565b6000610a988385610a81565b9350610aa5838584610993565b82840190509392505050565b6000610abe828486610a8c565b91508190509392505050565b7f4e487b7100000000000000000000000000000000000000000000000000000000600052603260045260246000fd5b7f4e487b7100000000000000000000000000000000000000000000000000000000600052601160045260246000fd5b6000610b33826105fa565b91507fffffffffffffffffffffffffffffffffffffffffffffffffffffffffffffffff8203610b6557610b64610af9565b5b600182019050919050565b600081519050919050565b60005b83811015610b99578082015181840152602081019050610b7e565b60008484015250505050565b6000610bb082610b70565b610bba8185610a81565b9350610bca818560208601610b7b565b80840191505092915050565b6000610be28284610ba5565b91508190509291505056fea2646970667358221220105662629efae9885b05b7000abb20f78155a65004cb9bc9f51644acfd80573164736f6c63430008110033",
  "immutableReferences": {},
  "source": "// SPDX-License-Identifier: GPL-3.0\r\n\r\npragma solidity >=0.4.25 <0.9.0;\r\n\r\ncontract FirebaseSystem{\r\n    // payment status key => value ( date key => address value)\r\n    // payment status 0 = unpaid, 1 = paid, 2 = overdue\r\n    mapping (uint => mapping (string => address[])) addressLookUpByPaymentStatus;\r\n\r\n    //function to store address\r\n    function storeAddressByPaymentStatus(uint _paymentStatus, string memory _date, address _addr) public{\r\n        addressLookUpByPaymentStatus[_paymentStatus][_date].push(_addr);\r\n    }\r\n\r\n    //retrieve all address with the same payment status and date of policy\r\n    function retrieveAddress(uint _paymentStatus, string calldata _date) external view returns(address[] memory){\r\n        address[] memory tempList = new address[](addressLookUpByPaymentStatus[_paymentStatus][_date].length);\r\n        for (uint i = 0; i < addressLookUpByPaymentStatus[_paymentStatus][_date].length; i++){\r\n            tempList[i] = addressLookUpByPaymentStatus[_paymentStatus][_date][i];\r\n        }\r\n        return tempList;\r\n    }\r\n\r\n    //retrieve specific address, have to provide address. Used for testing whether address has been stored\r\n    function checkForSpecificAddress(uint _paymentStatus, string calldata _date, address _addr) external view returns(address){\r\n        address tempAddr;\r\n        for (uint i = 0; i < addressLookUpByPaymentStatus[_paymentStatus][_date].length; i++){\r\n            if (_addr == addressLookUpByPaymentStatus[_paymentStatus][_date][i]){\r\n                tempAddr = addressLookUpByPaymentStatus[_paymentStatus][_date][i];\r\n            }\r\n        }\r\n        return tempAddr;\r\n    }\r\n\r\n    //remove address in the mapping. Used for updating of payment status.\r\n    function removeAddressToChangeAddress(uint _oldStatus, string memory _date, address _addr) public{\r\n        for (uint i = 0; i < addressLookUpByPaymentStatus[_oldStatus][_date].length; i++){\r\n            if (_addr == addressLookUpByPaymentStatus[_oldStatus][_date][i]){\r\n                delete addressLookUpByPaymentStatus[_oldStatus][_date][i];\r\n            }\r\n        }\r\n    }\r\n\r\n\r\n    constructor(){\r\n        storeAddressByPaymentStatus(0, \"0712\", 0x70Eda919278179BA6E546F7EDeaf2383cE41cC4e);\r\n        storeAddressByPaymentStatus(0, \"0712\", 0xF093C5A67aa483923Ff5AA96D16fCa851F16392D);\r\n        storeAddressByPaymentStatus(0, \"0812\", 0xF093C5A67aa483923Ff5AA96D16fCa851F16392D);\r\n        storeAddressByPaymentStatus(0, \"0812\", 0xF093C5A67aa483923Ff5AA96D16fCa851F16392D);\r\n    }\r\n}",
  "sourcePath": "c:\\Users\\weibo\\Desktop\\FYPJ\\Sprint 1\\Week 2\\Create Policy\\Sprint 4\\contracts\\firebase.sol",
  "compiler": {
    "name": "solc",
    "version": "0.8.17+commit.8df45f5f.Emscripten.clang"
  },
  "schemaVersion": "3.4.11",
  "updatedAt": "2022-12-19T04:57:11.804Z",
  "devdoc": {
    "kind": "dev",
    "methods": {},
    "version": 1
  },
  "userdoc": {
    "kind": "user",
    "methods": {},
    "version": 1
  }
}