{
  "contractName": "Mapping",
  "abi": [
    {
      "anonymous": false,
      "inputs": [
        {
          "indexed": false,
          "internalType": "address",
          "name": "contractAddress",
          "type": "address"
        }
      ],
      "name": "Map",
      "type": "event"
    },
    {
      "inputs": [
        {
          "internalType": "string",
          "name": "",
          "type": "string"
        }
      ],
      "name": "myMap",
      "outputs": [
        {
          "internalType": "address",
          "name": "",
          "type": "address"
        }
      ],
      "stateMutability": "view",
      "type": "function"
    },
    {
      "inputs": [
        {
          "internalType": "string",
          "name": "_id",
          "type": "string"
        }
      ],
      "name": "getId",
      "outputs": [
        {
          "internalType": "address",
          "name": "",
          "type": "address"
        }
      ],
      "stateMutability": "nonpayable",
      "type": "function"
    },
    {
      "inputs": [
        {
          "internalType": "string",
          "name": "_id",
          "type": "string"
        }
      ],
      "name": "getIdview",
      "outputs": [
        {
          "internalType": "address",
          "name": "",
          "type": "address"
        }
      ],
      "stateMutability": "view",
      "type": "function"
    },
    {
      "inputs": [
        {
          "internalType": "string",
          "name": "_id",
          "type": "string"
        },
        {
          "internalType": "address",
          "name": "_addr",
          "type": "address"
        }
      ],
      "name": "setId",
      "outputs": [],
      "stateMutability": "nonpayable",
      "type": "function"
    },
    {
      "inputs": [
        {
          "internalType": "string",
          "name": "_id",
          "type": "string"
        }
      ],
      "name": "removeId",
      "outputs": [],
      "stateMutability": "nonpayable",
      "type": "function"
    }
  ],
  "bytecode": "0x608060405234801561001057600080fd5b5061065b806100206000396000f3fe608060405234801561001057600080fd5b50600436106100575760003560e01c80636630b2ae1461005c5780636c88e56d1461008c578063bee51f3b146100a8578063ebd746c9146100d8578063ff3a0ad0146100f4575b600080fd5b61007660048036038101906100719190610470565b610124565b60405161008391906104fa565b60405180910390f35b6100a660048036038101906100a19190610541565b61016b565b005b6100c260048036038101906100bd9190610470565b6101cc565b6040516100cf91906104fa565b60405180910390f35b6100f260048036038101906100ed9190610470565b610289565b005b61010e60048036038101906101099190610470565b6102cd565b60405161011b91906104fa565b60405180910390f35b60008082604051610135919061060e565b908152602001604051809103902060009054906101000a900473ffffffffffffffffffffffffffffffffffffffff169050919050565b8060008360405161017c919061060e565b908152602001604051809103902060006101000a81548173ffffffffffffffffffffffffffffffffffffffff021916908373ffffffffffffffffffffffffffffffffffffffff1602179055505050565b60007fc483b71cb91a8ae5b1f275635dce163bf3e07b25d4a368b76c039f86b9196c3e6000836040516101ff919061060e565b908152602001604051809103902060009054906101000a900473ffffffffffffffffffffffffffffffffffffffff1660405161023b91906104fa565b60405180910390a1600082604051610253919061060e565b908152602001604051809103902060009054906101000a900473ffffffffffffffffffffffffffffffffffffffff169050919050565b600081604051610299919061060e565b908152602001604051809103902060006101000a81549073ffffffffffffffffffffffffffffffffffffffff021916905550565b6000818051602081018201805184825260208301602085012081835280955050505050506000915054906101000a900473ffffffffffffffffffffffffffffffffffffffff1681565b6000604051905090565b600080fd5b600080fd5b600080fd5b600080fd5b6000601f19601f8301169050919050565b7f4e487b7100000000000000000000000000000000000000000000000000000000600052604160045260246000fd5b61037d82610334565b810181811067ffffffffffffffff8211171561039c5761039b610345565b5b80604052505050565b60006103af610316565b90506103bb8282610374565b919050565b600067ffffffffffffffff8211156103db576103da610345565b5b6103e482610334565b9050602081019050919050565b82818337600083830152505050565b600061041361040e846103c0565b6103a5565b90508281526020810184848401111561042f5761042e61032f565b5b61043a8482856103f1565b509392505050565b600082601f8301126104575761045661032a565b5b8135610467848260208601610400565b91505092915050565b60006020828403121561048657610485610320565b5b600082013567ffffffffffffffff8111156104a4576104a3610325565b5b6104b084828501610442565b91505092915050565b600073ffffffffffffffffffffffffffffffffffffffff82169050919050565b60006104e4826104b9565b9050919050565b6104f4816104d9565b82525050565b600060208201905061050f60008301846104eb565b92915050565b61051e816104d9565b811461052957600080fd5b50565b60008135905061053b81610515565b92915050565b6000806040838503121561055857610557610320565b5b600083013567ffffffffffffffff81111561057657610575610325565b5b61058285828601610442565b92505060206105938582860161052c565b9150509250929050565b600081519050919050565b600081905092915050565b60005b838110156105d15780820151818401526020810190506105b6565b60008484015250505050565b60006105e88261059d565b6105f281856105a8565b93506106028185602086016105b3565b80840191505092915050565b600061061a82846105dd565b91508190509291505056fea2646970667358221220ece8ecc05df5cf936f0f9976ceb7f471c8617e44d361b18816de5af4da64652f64736f6c63430008110033",
  "immutableReferences": {},
  "source": "// SPDX-License-Identifier: GPL-3.0\r\npragma solidity >=0.4.25 <0.9.0;\r\n\r\ncontract Mapping {\r\n    // Mapping from address to uint\r\n    mapping(string => address) public myMap;\r\n\r\n    event Map(address contractAddress);\r\n\r\n    function getId(string memory _id) public returns (address) {\r\n        // Mapping always returns a value.\r\n        // If the value was never set, it will return the default value.\r\n        emit Map(myMap[_id]);\r\n        return myMap[_id];\r\n    }\r\n\r\n    function getIdview(string memory _id) public view returns (address) {\r\n       return myMap[_id];\r\n    }\r\n\r\n    function setId(string memory _id, address _addr) public {\r\n        // Update the value at this address\r\n        myMap[_id] = _addr;\r\n    }\r\n\r\n    function removeId(string memory _id) public {\r\n        // Reset the value to the default value.\r\n        delete myMap[_id];\r\n    }\r\n}",
  "sourcePath": "c:\\Users\\weibo\\Desktop\\FYPJ\\Sprint 1\\Week 2\\Create Policy\\Sprint 4\\contracts\\mapping.sol",
  "compiler": {
    "name": "solc",
    "version": "0.8.17+commit.8df45f5f.Emscripten.clang"
  },
  "schemaVersion": "3.4.11",
  "updatedAt": "2022-12-19T04:57:11.809Z",
  "devdoc": {
    "kind": "dev",
    "methods": {},
    "version": 1
  },
  "userdoc": {
    "kind": "user",
    "methods": {},
    "version": 1
  }
}