{
  "contractName": "SmartContractFactory",
  "abi": [
    {
      "anonymous": false,
      "inputs": [
        {
          "indexed": false,
          "internalType": "contract PolicySmartContract",
          "name": "a",
          "type": "address"
        },
        {
          "indexed": false,
          "internalType": "string",
          "name": "newMessage",
          "type": "string"
        },
        {
          "indexed": false,
          "internalType": "string",
          "name": "policy",
          "type": "string"
        },
        {
          "indexed": false,
          "internalType": "string",
          "name": "duration",
          "type": "string"
        },
        {
          "indexed": false,
          "internalType": "string",
          "name": "date_of_policy",
          "type": "string"
        },
        {
          "indexed": false,
          "internalType": "string",
          "name": "phone",
          "type": "string"
        },
        {
          "indexed": false,
          "internalType": "string",
          "name": "name",
          "type": "string"
        },
        {
          "indexed": false,
          "internalType": "string",
          "name": "price",
          "type": "string"
        }
      ],
      "name": "Policy",
      "type": "event"
    },
    {
      "inputs": [
        {
          "internalType": "string",
          "name": "newMessage",
          "type": "string"
        },
        {
          "internalType": "string",
          "name": "_policy",
          "type": "string"
        },
        {
          "internalType": "string",
          "name": "_duration",
          "type": "string"
        },
        {
          "internalType": "string",
          "name": "_date_of_policy",
          "type": "string"
        },
        {
          "internalType": "string",
          "name": "_phone",
          "type": "string"
        },
        {
          "internalType": "string",
          "name": "_name",
          "type": "string"
        },
        {
          "internalType": "string",
          "name": "_price",
          "type": "string"
        }
      ],
      "name": "update",
      "outputs": [
        {
          "internalType": "contract PolicySmartContract",
          "name": "",
          "type": "address"
        }
      ],
      "stateMutability": "nonpayable",
      "type": "function"
    }
  ],
  "bytecode": "0x608060405234801561001057600080fd5b50611a46806100206000396000f3fe60806040523480156200001157600080fd5b50600436106200002e5760003560e01c80634e1512721462000033575b600080fd5b6200005160048036038101906200004b919062000308565b62000069565b6040516200006091906200051f565b60405180910390f35b600087878787878787604051620000809062000184565b620000929796959493929190620005c5565b604051809103906000f080158015620000af573d6000803e3d6000fd5b506000806101000a81548173ffffffffffffffffffffffffffffffffffffffff021916908373ffffffffffffffffffffffffffffffffffffffff1602179055507f3b2dd5b1b2b100286dda470391c57c7f4b8f02a164ef56c0373656cffc90704f60008054906101000a900473ffffffffffffffffffffffffffffffffffffffff16898989898989896040516200014e98979695949392919062000673565b60405180910390a160008054906101000a900473ffffffffffffffffffffffffffffffffffffffff169050979650505050505050565b6112de806200073383390190565b6000604051905090565b600080fd5b600080fd5b600080fd5b600080fd5b6000601f19601f8301169050919050565b7f4e487b7100000000000000000000000000000000000000000000000000000000600052604160045260246000fd5b620001fb82620001b0565b810181811067ffffffffffffffff821117156200021d576200021c620001c1565b5b80604052505050565b60006200023262000192565b9050620002408282620001f0565b919050565b600067ffffffffffffffff821115620002635762000262620001c1565b5b6200026e82620001b0565b9050602081019050919050565b82818337600083830152505050565b6000620002a16200029b8462000245565b62000226565b905082815260208101848484011115620002c057620002bf620001ab565b5b620002cd8482856200027b565b509392505050565b600082601f830112620002ed57620002ec620001a6565b5b8135620002ff8482602086016200028a565b91505092915050565b600080600080600080600060e0888a0312156200032a57620003296200019c565b5b600088013567ffffffffffffffff8111156200034b576200034a620001a1565b5b620003598a828b01620002d5565b975050602088013567ffffffffffffffff8111156200037d576200037c620001a1565b5b6200038b8a828b01620002d5565b965050604088013567ffffffffffffffff811115620003af57620003ae620001a1565b5b620003bd8a828b01620002d5565b955050606088013567ffffffffffffffff811115620003e157620003e0620001a1565b5b620003ef8a828b01620002d5565b945050608088013567ffffffffffffffff811115620004135762000412620001a1565b5b620004218a828b01620002d5565b93505060a088013567ffffffffffffffff811115620004455762000444620001a1565b5b620004538a828b01620002d5565b92505060c088013567ffffffffffffffff811115620004775762000476620001a1565b5b620004858a828b01620002d5565b91505092959891949750929550565b600073ffffffffffffffffffffffffffffffffffffffff82169050919050565b6000819050919050565b6000620004df620004d9620004d38462000494565b620004b4565b62000494565b9050919050565b6000620004f382620004be565b9050919050565b60006200050782620004e6565b9050919050565b6200051981620004fa565b82525050565b60006020820190506200053660008301846200050e565b92915050565b600081519050919050565b600082825260208201905092915050565b60005b83811015620005785780820151818401526020810190506200055b565b60008484015250505050565b600062000591826200053c565b6200059d818562000547565b9350620005af81856020860162000558565b620005ba81620001b0565b840191505092915050565b600060e0820190508181036000830152620005e1818a62000584565b90508181036020830152620005f7818962000584565b905081810360408301526200060d818862000584565b9050818103606083015262000623818762000584565b9050818103608083015262000639818662000584565b905081810360a08301526200064f818562000584565b905081810360c083015262000665818462000584565b905098975050505050505050565b6000610100820190506200068b600083018b6200050e565b81810360208301526200069f818a62000584565b90508181036040830152620006b5818962000584565b90508181036060830152620006cb818862000584565b90508181036080830152620006e1818762000584565b905081810360a0830152620006f7818662000584565b905081810360c08301526200070d818562000584565b905081810360e083015262000723818462000584565b9050999850505050505050505056fe60806040523480156200001157600080fd5b50604051620012de380380620012de833981810160405281019062000037919062000255565b86600090816200004891906200062c565b5085600190816200005a91906200062c565b5084600290816200006c91906200062c565b5083600390816200007e91906200062c565b5082600490816200009091906200062c565b508160059081620000a291906200062c565b508060069081620000b491906200062c565b505050505050505062000713565b6000604051905090565b600080fd5b600080fd5b600080fd5b600080fd5b6000601f19601f8301169050919050565b7f4e487b7100000000000000000000000000000000000000000000000000000000600052604160045260246000fd5b6200012b82620000e0565b810181811067ffffffffffffffff821117156200014d576200014c620000f1565b5b80604052505050565b600062000162620000c2565b905062000170828262000120565b919050565b600067ffffffffffffffff821115620001935762000192620000f1565b5b6200019e82620000e0565b9050602081019050919050565b60005b83811015620001cb578082015181840152602081019050620001ae565b60008484015250505050565b6000620001ee620001e88462000175565b62000156565b9050828152602081018484840111156200020d576200020c620000db565b5b6200021a848285620001ab565b509392505050565b600082601f8301126200023a5762000239620000d6565b5b81516200024c848260208601620001d7565b91505092915050565b600080600080600080600060e0888a031215620002775762000276620000cc565b5b600088015167ffffffffffffffff811115620002985762000297620000d1565b5b620002a68a828b0162000222565b975050602088015167ffffffffffffffff811115620002ca57620002c9620000d1565b5b620002d88a828b0162000222565b965050604088015167ffffffffffffffff811115620002fc57620002fb620000d1565b5b6200030a8a828b0162000222565b955050606088015167ffffffffffffffff8111156200032e576200032d620000d1565b5b6200033c8a828b0162000222565b945050608088015167ffffffffffffffff81111562000360576200035f620000d1565b5b6200036e8a828b0162000222565b93505060a088015167ffffffffffffffff811115620003925762000391620000d1565b5b620003a08a828b0162000222565b92505060c088015167ffffffffffffffff811115620003c457620003c3620000d1565b5b620003d28a828b0162000222565b91505092959891949750929550565b600081519050919050565b7f4e487b7100000000000000000000000000000000000000000000000000000000600052602260045260246000fd5b600060028204905060018216806200043457607f821691505b6020821081036200044a5762000449620003ec565b5b50919050565b60008190508160005260206000209050919050565b60006020601f8301049050919050565b600082821b905092915050565b600060088302620004b47fffffffffffffffffffffffffffffffffffffffffffffffffffffffffffffffff8262000475565b620004c0868362000475565b95508019841693508086168417925050509392505050565b6000819050919050565b6000819050919050565b60006200050d620005076200050184620004d8565b620004e2565b620004d8565b9050919050565b6000819050919050565b6200052983620004ec565b62000541620005388262000514565b84845462000482565b825550505050565b600090565b6200055862000549565b620005658184846200051e565b505050565b5b818110156200058d57620005816000826200054e565b6001810190506200056b565b5050565b601f821115620005dc57620005a68162000450565b620005b18462000465565b81016020851015620005c1578190505b620005d9620005d08562000465565b8301826200056a565b50505b505050565b600082821c905092915050565b60006200060160001984600802620005e1565b1980831691505092915050565b60006200061c8383620005ee565b9150826002028217905092915050565b6200063782620003e1565b67ffffffffffffffff811115620006535762000652620000f1565b5b6200065f82546200041b565b6200066c82828562000591565b600060209050601f831160018114620006a457600084156200068f578287015190505b6200069b85826200060e565b8655506200070b565b601f198416620006b48662000450565b60005b82811015620006de57848901518255600182019150602085019450602081019050620006b7565b86831015620006fe5784890151620006fa601f891682620005ee565b8355505b6001600288020188555050505b505050505050565b610bbb80620007236000396000f3fe608060405234801561001057600080fd5b50600436106100ea5760003560e01c806398d5fdca1161008c578063ad2e8c9b11610066578063ad2e8c9b1461021b578063c4382fa614610239578063ce1e462614610257578063e21f37ce14610275576100ea565b806398d5fdca146101c1578063a035b1fe146101df578063aa3c542d146101fd576100ea565b806317d7de7c116100c857806317d7de7c1461014957806320bdd61d146101675780638863bab0146101855780639284f497146101a3576100ea565b80630505c8c9146100ef57806306fdde031461010d5780630fb5a6b41461012b575b600080fd5b6100f7610293565b6040516101049190610b03565b60405180910390f35b610115610321565b6040516101229190610b03565b60405180910390f35b6101336103af565b6040516101409190610b03565b60405180910390f35b61015161043d565b60405161015e9190610b03565b60405180910390f35b61016f6104cf565b60405161017c9190610b03565b60405180910390f35b61018d610561565b60405161019a9190610b03565b60405180910390f35b6101ab6105f3565b6040516101b89190610b03565b60405180910390f35b6101c9610681565b6040516101d69190610b03565b60405180910390f35b6101e7610713565b6040516101f49190610b03565b60405180910390f35b6102056107a1565b6040516102129190610b03565b60405180910390f35b61022361082f565b6040516102309190610b03565b60405180910390f35b6102416108c1565b60405161024e9190610b03565b60405180910390f35b61025f610953565b60405161026c9190610b03565b60405180910390f35b61027d6109e5565b60405161028a9190610b03565b60405180910390f35b600180546102a090610b54565b80601f01602080910402602001604051908101604052809291908181526020018280546102cc90610b54565b80156103195780601f106102ee57610100808354040283529160200191610319565b820191906000526020600020905b8154815290600101906020018083116102fc57829003601f168201915b505050505081565b6005805461032e90610b54565b80601f016020809104026020016040519081016040528092919081815260200182805461035a90610b54565b80156103a75780601f1061037c576101008083540402835291602001916103a7565b820191906000526020600020905b81548152906001019060200180831161038a57829003601f168201915b505050505081565b600280546103bc90610b54565b80601f01602080910402602001604051908101604052809291908181526020018280546103e890610b54565b80156104355780601f1061040a57610100808354040283529160200191610435565b820191906000526020600020905b81548152906001019060200180831161041857829003601f168201915b505050505081565b60606005805461044c90610b54565b80601f016020809104026020016040519081016040528092919081815260200182805461047890610b54565b80156104c55780601f1061049a576101008083540402835291602001916104c5565b820191906000526020600020905b8154815290600101906020018083116104a857829003601f168201915b5050505050905090565b6060600380546104de90610b54565b80601f016020809104026020016040519081016040528092919081815260200182805461050a90610b54565b80156105575780601f1061052c57610100808354040283529160200191610557565b820191906000526020600020905b81548152906001019060200180831161053a57829003601f168201915b5050505050905090565b60606004805461057090610b54565b80601f016020809104026020016040519081016040528092919081815260200182805461059c90610b54565b80156105e95780601f106105be576101008083540402835291602001916105e9565b820191906000526020600020905b8154815290600101906020018083116105cc57829003601f168201915b5050505050905090565b6004805461060090610b54565b80601f016020809104026020016040519081016040528092919081815260200182805461062c90610b54565b80156106795780601f1061064e57610100808354040283529160200191610679565b820191906000526020600020905b81548152906001019060200180831161065c57829003601f168201915b505050505081565b60606006805461069090610b54565b80601f01602080910402602001604051908101604052809291908181526020018280546106bc90610b54565b80156107095780601f106106de57610100808354040283529160200191610709565b820191906000526020600020905b8154815290600101906020018083116106ec57829003601f168201915b5050505050905090565b6006805461072090610b54565b80601f016020809104026020016040519081016040528092919081815260200182805461074c90610b54565b80156107995780601f1061076e57610100808354040283529160200191610799565b820191906000526020600020905b81548152906001019060200180831161077c57829003601f168201915b505050505081565b600380546107ae90610b54565b80601f01602080910402602001604051908101604052809291908181526020018280546107da90610b54565b80156108275780601f106107fc57610100808354040283529160200191610827565b820191906000526020600020905b81548152906001019060200180831161080a57829003601f168201915b505050505081565b60606002805461083e90610b54565b80601f016020809104026020016040519081016040528092919081815260200182805461086a90610b54565b80156108b75780601f1061088c576101008083540402835291602001916108b7565b820191906000526020600020905b81548152906001019060200180831161089a57829003601f168201915b5050505050905090565b6060600080546108d090610b54565b80601f01602080910402602001604051908101604052809291908181526020018280546108fc90610b54565b80156109495780601f1061091e57610100808354040283529160200191610949565b820191906000526020600020905b81548152906001019060200180831161092c57829003601f168201915b5050505050905090565b60606001805461096290610b54565b80601f016020809104026020016040519081016040528092919081815260200182805461098e90610b54565b80156109db5780601f106109b0576101008083540402835291602001916109db565b820191906000526020600020905b8154815290600101906020018083116109be57829003601f168201915b5050505050905090565b600080546109f290610b54565b80601f0160208091040260200160405190810160405280929190818152602001828054610a1e90610b54565b8015610a6b5780601f10610a4057610100808354040283529160200191610a6b565b820191906000526020600020905b815481529060010190602001808311610a4e57829003601f168201915b505050505081565b600081519050919050565b600082825260208201905092915050565b60005b83811015610aad578082015181840152602081019050610a92565b60008484015250505050565b6000601f19601f8301169050919050565b6000610ad582610a73565b610adf8185610a7e565b9350610aef818560208601610a8f565b610af881610ab9565b840191505092915050565b60006020820190508181036000830152610b1d8184610aca565b905092915050565b7f4e487b7100000000000000000000000000000000000000000000000000000000600052602260045260246000fd5b60006002820490506001821680610b6c57607f821691505b602082108103610b7f57610b7e610b25565b5b5091905056fea2646970667358221220e342aae1f5d9d21c1698157e084516039435d959883351528fc884cfe4fd2f0164736f6c63430008110033a2646970667358221220765d1190573376c01371453caea2d6a7d30faf395b8e6d9a9f8d3cb25d62429d64736f6c63430008110033",
  "immutableReferences": {},
  "source": "// SPDX-License-Identifier: GPL-3.0\r\npragma solidity >=0.4.25 <0.9.0;\r\n\r\ncontract PolicySmartContract {\r\n\r\n    //Emitted when update function is called\r\n   //Smart contract events are a way for your contract to communicate that something happened on the blockchain to your app front-end, which can be 'listening' for certain events and take action when they happen.\r\n   event _updatedMessages(string newMessage, string policy, string duration, string date_of_policy, string phone, string name, string price);\r\n\r\n   // Declares a state variable `message` of type `string`.\r\n   // State variables are variables whose values are permanently stored in contract storage. The keyword `public` makes variables accessible from outside a contract and creates a function that other contracts or clients can call to access the value.\r\n   string public message;\r\n   string public policy;\r\n   string public duration;\r\n   string public date_of_policy;\r\n   string public phone;\r\n   string public name;\r\n   string public price;\r\n\r\n   // Similar to many class-based object-oriented languages, a constructor is a special function that is only executed upon contract creation.\r\n   // Constructors are used to initialize the contract's data. Learn more:https://solidity.readthedocs.io/en/v0.5.10/contracts.html#constructors\r\n\r\n   constructor(string memory newMessage, string memory _policy, string memory _duration, string memory _date_of_policy, string memory _phone, string memory _name, string memory _price) {\r\n      message = newMessage;\r\n      policy = _policy;\r\n      duration = _duration;\r\n      date_of_policy = _date_of_policy;\r\n      phone = _phone;\r\n      name = _name;\r\n      price = _price;\r\n   }\r\n\r\n   function getEmailAddress() view public returns (string memory) {\r\n       return message;\r\n   }\r\n\r\n   function getPolicy() view public returns (string memory) {\r\n       return policy;\r\n   }\r\n\r\n   function getDuration() view public returns (string memory) {\r\n       return duration;\r\n   }\r\n\r\n   function getDate_of_policy() view public returns (string memory) {\r\n       return date_of_policy;\r\n   }\r\n\r\n   function getPhone() view public returns (string memory) {\r\n       return phone;\r\n   }\r\n\r\n   function getName() view public returns (string memory) {\r\n       return name;\r\n   }\r\n\r\n   function getPrice() view public returns (string memory) {\r\n       return price;\r\n   }\r\n\r\n}\r\n\r\ncontract SmartContractFactory {\r\n\r\n    PolicySmartContract a;\r\n    event Policy(PolicySmartContract a, string newMessage, string policy, string duration, string date_of_policy, string phone, string name, string price);\r\n\r\n    function update(string memory newMessage, string memory _policy, string memory _duration, string memory _date_of_policy, string memory _phone, string memory _name, string memory _price) public returns(PolicySmartContract) {\r\n      // Create the policy smart contract here\r\n       a = new PolicySmartContract(newMessage, _policy, _duration, _date_of_policy, _phone, _name, _price);\r\n       emit Policy(a, newMessage, _policy, _duration, _date_of_policy, _phone, _name, _price);\r\n       return a; \r\n   }\r\n}",
  "sourcePath": "c:\\Users\\weibo\\Desktop\\FYPJ\\Sprint 1\\Week 2\\Create Policy\\Sprint 4\\contracts\\clientfactory.sol",
  "compiler": {
    "name": "solc",
    "version": "0.8.17+commit.8df45f5f.Emscripten.clang"
  },
  "schemaVersion": "3.4.11",
  "updatedAt": "2022-12-19T04:57:11.800Z",
  "devdoc": {
    "kind": "dev",
    "methods": {},
    "version": 1
  },
  "userdoc": {
    "kind": "user",
    "methods": {},
    "version": 1
  }
}